:105974000000000000000000004F000000000700CD
:10598400070000147F147F1400242A7F2A120023A6
:1059940013086462003649552250000005030000D4
:1059A40000001C224100000041221C000014083E9B
:1059B40008140008083E08080000503000000008E1
:1059C40008080808000060600000002010080402B5
:1059D400003E5149453E0000427F40000042615173
:1059E4004946002141454B31001814127F1000270D
:1059F40045454539003C4A494930000171090503D0
:105A040000364949493600064949291E0000363600
:105A14000000000056360000000814224100001463
:105A24001414141400004122140800020151090640
:105A340000324979413E007E1111117E007F4949AF
:105A4400493E003E41414122007F4141221C007FEA
:105A540049494941007F09090901003E4149497A00
:105A6400007F0808087F0000417F4100002040417A
:105A74003F01007F08142241007F40404040007FE6
:105A84000204027F007F0408107F003E4141413E32
:105A9400007F09090906003E4151215E007F091972
:105AA40029460046494949310001017F0101003F6F
:105AB4004040403F001F2040201F003F4038403FEF
:105AC400006314081463000304780403006151495B
:105AD400454300007F4141000015167C1615000067
:105AE40041417F0000040201020400404040404064
:105AF400000001020400002054545478007F4844FC
:105B0400443800384444442000384444487F003832
:105B14005454541800087E090102000C5252523E9B
:105B2400007F080404780000447D400000204044C5
:105B34003D00007F102844000000417F4000007EAB
:105B4400020C027C007E0402027C00384444443887
:105B5400007C1414140800081414187C007C080435
:105B6400040800485454542000043F444020003C9E
:105B74004040207C001C2040201C003C4030403C25
:105B8400004428102844000C5050503C00446454F5
:105B94004C440000083641000000007F0000000073
:105BA400413608000008040810080008082A1C08E8
:105BB40000081C2A08080004027F02040010207F49
:105BC4002010001C2A322A1C001C2244221C001112
:105BD4000A040A1100070507000000000000000085
:105BE40000000000000000000000000038FCFC3849
:105BF40000000000000D0D000000000E1E00001E3D
:105C04000E00000000000000000020F8F820F8F862
:105C14002000020F0F020F0F0200387C444747CCCC
:105C240098000306041C1C07030030300080C06089
:105C340030000C060301000C0C0080D87CE4BCD8B6
:105C44004000070F0808070F080000101E0E000090
:105C5400000000000000000000000000F0F80C0448
:105C64000000000003070C0800000000040CF8F01A
:105C740000000000080C0703000080A0E0C0C0E0A2
:105C8400A0800002030101030200008080E0E080A4
:105C9400800000000003030000000000000000007A
:105CA40000000000101E0E000000808080808080B4
:105CB4008000000000000000000000000000000060
:105CC40000000000000C0C00000000000080C06018
:105CD40030000C06030100000000F8FC04C424FC9E
:105CE400F800070F0908080F0700001018FCFC0053
:105CF40000000008080F0F080800080C84C4643C66
:105D040018000E0F0908080C0C00080C444444FC4D
:105D1400B800040C0808080F0700C0E0B098FCFCA9
:105D24008000000000080F0F08007C7C4444C4C4B9
:105D34008400040C0808080F0700F0F84C4444C41D
:105D44008000070F0808080F07000C0C0484C47CAB
:105D54003C0000000F0F00000000B8FC444444FC69
:105D6400B800070F0808080F0700387C444444FCB7
:105D7400F800000808080C07030000000030300099
:105D840000000000000606000000000000303000A3
:105D940000000000080E060000000080C0603018FB
:105DA400080000000103060C080040404040404049
:105DB400400002020202020202000008183060C021
:105DC400800000080C0603010000181C04C4E43C15
:105DD40018000000000D0D000000F0F808C848F895
:105DE400F000070F080B0B0B0100E0F0988C98F003
:105DF400E0000F0F0000000F0F0004FCFC4444FC03
:105E0400B800080F0F08080F0700F0F80C04040C82
:105E1400180003070C08080C060004FCFC040CF82A
:105E2400F000080F0F080C07030004FCFC44E40C0A
:105E34001C00080F0F08080C0E0004FCFC44E40CC2
:105E44001C00080F0F0800000000F0F80C84848C7C
:105E5400980003070C0808070F00FCFC404040FCB6
:105E6400FC000F0F0000000F0F00000004FCFC04F6
:105E740000000000080F0F08000000000004FCFCF4
:105E84000400070F08080F07000004FCFCC0F03CE6
:105E94000C00080F0F00010F0E0004FCFC040000AE
:105EA4000000080F0F08080C0E00FCFC387038FCCA
:105EB400FC000F0F0000000F0F00FCFC3870E0FC2A
:105EC400FC000F0F0000000F0F00F0F80C040CF89A
:105ED400F00003070C080C07030004FCFC44447C9A
:105EE4003800080F0F0800000000F8FC040404FC4C
:105EF400F800070F080E3C3F270004FCFC44C4FCD8
:105F04003800080F0F00000F0F00183C6444C49CB5
:105F14001800060E0808080F0700001C0CFCFC0CF7
:105F24001C000000080F0F080000FCFC000000FC2F
:105F3400FC00070F0808080F0700FCFC000000FC29
:105F4400FC000103060C06030100FCFC008000FCBD
:105F5400FC00030F0E030E0F03000C3CF0C0F03CDA
:105F64000C000C0F0300030F0C00003C7CC0C07C31
:105F74003C000000080F0F0800001C0C84C4643CA3
:105F84001C000E0F0908080C0E000000FCFC0404A1
:105F9400000000000F0F080800003870E0C0800007
:105FA40000000000000103070E0000000404FCFCD4
:105FB4000000000008080F0F0000080C0603060C80
:105FC40008000000000000000000000000000000C5
:105FD4000000202020202020202000101E0E000081
:105FE4000000000000000000000000A0A0A0E0C02D
:105FF4000000070F0808070F080004FCFC2060C01D
:106004008000080F0708080F0700C0E02020206068
:106014004000070F0808080C040080C06024FCFC42
:106024000000070F0808070F0800C0E0A0A0A0E0C8
:10603400C000070F0808080C040040F8FC440C18C2
:106044000000080F0F0800000000C0E02020C0E09E
:106054002000276F48487F3F000004FCFC4020E0FC
:10606400C000080F0F00000F0F00000020ECEC0030
:1060740000000000080F0F0800000000000020ECE2
:10608400EC0000307040407F3F0004FCFC80C060A6
:106094002000080F0F01030E0C00000004FCFC009C
:1060A40000000000080F0F080000E0E060C060E09E
:1060B400C0000F0F000F000F0F0020E0C02020E0F1
:1060C400C000000F0F00000F0F00C0E0202020E0F0
:1060D400C000070F0808080F070020E0C02020E0D8
:1060E400C000407F7F48080F0700C0E02020C0E0C8
:1060F4002000070F08487F7F400020E0C060206038
:10610400C000080F0F080000000040E0A02020603D
:106114004000040C09090B0E04002020F8FC202088
:1061240000000000070F080C0400E0E00000E0E0BD
:106134000000070F0808070F080000E0E00000E077
:10614400E0000003070C0C070300E0E0000000E09F
:10615400E000070F0C070C0F07002060C080C06030
:106164002000080C0703070C0800E0E0000000E032
:10617400E000474F4848683F1F00606020A0E0608F
:1061840020000C0E0B09080C0C00FFBDFFFFBDFF27
:1061940000007F404040407F0000FF81818181FFFB
:1061A40000007F5E7F7F5E7F0000FF2D3F3F2DFF5D
:1061B40000007F424242427F0000FFA1E1E1A1FFD3
:1061C40000007F424343427F0000FF21212121FF41
:1061D40000007F5A7E7E5A7F00000000000000000D
:1061E40000000000000000000000000000000000AB
:1061F4000000F8888888888F0204885020000000F6
:106204000000000702010000000000000000000080
:10621400000000000000000000000000000000007A
:10622400000080800000000080C060301800000181
:106234000306060301000000000040A01008041E2D
:1062440010101010F00000000102040F0101010100
:106254000100F8888888888F020488502000000094
:10626400000000070201000000000002020202FE1A
:1062740002020202000008080808080F08080808BB
:1062840008002010FC030807FC2424240400000058
:106294000F0000000F01010101008868FF4802FAA5
:1062A400AFAAAFFA020000000F000A0A0603060AAA
:1062B4000A00084848C8484808FF08090A000808AE
:1062C40008070404040003040E0020222222E23EF4
:1062D400E222222220000804020100000708080824
:1062E4000E0098D4B388004848FF24A5260004046F
:1062F40002020808040305080E00FA4A3E0A3E4A50
:10630400FA00E2223E000F05050505050F00070807
:106314000E001017D555577D5755D517100008088E
:106324000F08080E08080F0808001C0BEAAEAAACF8
:10633400ABAAEE0A1A0000000F0A0A0A0A0A0A0E99
:10634400000022FE22007F4949FF49497F000407DB
:1063540002080909090F0909090011F200F9A9AB9A
:10636400FDADABF800000807080B08080B080A0B82
:1063740008001011F200FAABAEAAAAABFA000804A6
:1063840003040B0A0A0A0A0A0B001011F20050CF88
:1063940041414FD01000000007020808050205081B
:1063A40008008282BAAAAAABAAAABA8282000F0003
:1063B400000E0A0A0A0E00080F0098D4B38802FEE1
:1063C4008202322EE0000404020A060108050205D6
:1063D400080010210200DF151515D51F80000402E6
:1063E40001000F09050007090C0088FF48004CA4B0
:1063F400958694A44C00080F00000808080F0808AC
:106404000800008292DAD6B2B19189C180000804F2
:106414000200080F00000204090098D4B388006445
:10642400D44DC654E400040402020804030007081F
:106434000C007800FF484444FF44447C40000000C2
:106444000F0804030003040808008888FF4800AA12
:10645400AAFFAAFA220000080F000806080F0A0A79
:106464000A000404FC040408FF080808F8000202F7
:106474000109050300000808070004F65554F60056
:10648400CF1412911800000F01090F00070A090820
:106494000E000E088878CF484849CA08080004024C
:1064A4000908040502050408080080FEABAAFE00E2
:1064B400488808FF0800040201080F000009080FBB
:1064C4000000342CF7A4E8A4EA09CA04E800010196
:1064D4000F000F020F0003080F00801E101010FFA2
:1064E4001010101E800007040404040704040404AC
:1064F4000F0000000181720C70800000000008048D
:10650400020100000001020408000002E20202FE8F
:1065140042424242000008080F08080F0808080811
:10652400080000FE12729212111191710000080706
:106534000808040502050408080020FEABFE000C50
:10654400E40586442C000807080F00000709080822
:106554000E0008FFA9A9A9FBADA9A9FF0800080A14
:106564000A0A0A0F0A0A0A0A0800FE2222FE80FC0E
:1065740084FF84FC8000070202070804020102046D
:10658400080024F2090EA8AFA81EE807FC00000FBB
:1065940000080700070A04030C0011F20000FF21A1
:1065A400A9BDA921FF0000070208070003020B0888
:1065B4000F0020AAB2E3B2AA00FE12F211000402F4
:1065C400080F000A0403000F0000322AE608AAAAF2
:1065D400FFAAAABE08000906050A0A0A0F0A0A0A3F
:1065E4000A008888FF48A4ACB5E6B4ACA40000084F
:1065F4000F00080A0B04040B0800FE0080FF2010A3
:10660400EF08887808000301000F0804020102045F
:106614000800028A529AD6B3D28A528A020002022F
:106624000202020F020202020200A0908E8888FF7A
:106634008888888080000808040201000102040898
:10664400080010FC03045454555654540400000F1D
:1066540000000F050505050F0000463282B2466BA7
:10666400524A62126600000E0808080F0808080E55
:10667400000042F22EE2013D2121213FE00000070B
:106684000207010101010908070090904854239270
:106694004A6652C0400008080809050403020100C4
:1066A400000000F01010101F121212F20200080570
:1066B40001050901050901050800CF09F94F8448BE
:1066C400FF00FF48840007040302080403000708CE
:1066D4000E0010DE10FF1292F90DEB09F900090803
:1066E40004020100090403040900A86A3FAA6C0A11
:1066F40010EF08F8080002020A0F0101080502055C
:10670400080098D4B38814745CF744444400040427
:1067140002020403080F0001060010D2565A525315
:10672400525A56D21000000F050505050505050F40
:10673400000044348506942410EF08F80800080487
:1067440002010204080403040800404242FE4242DB
:1067540042FE42424000000806010000000F000013
:1067640000004048494A48F8484A49484000080857
:10677400040201000102040808001212EABFA0A0EA
:10678400A7AAEA090C0000000F020202020A0F0085
:106794000000202224E8203F20E8242220000804CE
:1067A40002010000000708080E00224480E41CC512
:1067B4003E54947404000402000F01080502050805
:1067C4000800C0405F55D515D5555F40C0000F0582
:1067D40005050F000F0505050F0000FF05252DF524
:1067E4002525F52D270008070109050301010F01DF
:1067F4000100007C555654FC5456557C00000101A0
:106804000101010F01010101010000FE0202F292E7
:1068140092F20202FE00000F0404040404040404BF
:106824000F002010FC2324E4BCA7A4A42000000033
:106834000F0000020204060900002020AF69292984
:1068440029292F2020000000010101010109090765
:1068540000002010FC03FE2222FE21212000000063
:106864000F000702050803040F0000FE0242424223
:10687400FA42424202000807080808080F08090AF9
:1068840008008888FF4800FE42C25252CE00000829
:106894000F00000F08050205080092BFAABACFBA7C
:1068A400C4AB92AEC20000020E0A0A0A0A0A0E0221
:1068B400000000FE909F10FE12F212917100080772
:1068C400000F04030805020508000404846414FF8F
:1068D40014648404040002010202020F0202020191
:1068E400020000FEAAAAABAAAAAAAAFE00000806F1
:1068F400000608090A080C020C001010282422E1E2
:1069040022242810100008090909090F0909090996
:1069140008008888FF48480222222222FE0000083C
:106924000F000004040404040F008888FF48F29751
:1069340092F29297F20000080F000F040407040477
:106944000F00FC0404E6252424E40404FC000F00E6
:1069540000030202020308080F002027A5A56738D8
:1069640067A5AD372000010F0A0A0E000E0A0A0FB0
:106974000100404040404040404040404000000052
:1069840000000000000000000000000404040404EF
:1069940004040404000004040404040404040404BB
:1069A40004000002424242424242420200000808FD
:1069B4000808080808080808080000FE02827E0289
:1069C400027E8282FE00000F050404040404040411
:1069D4000F00022222E23E222222E20200000808E4
:1069E4000E09080808080F080800101010D0111626
:1069F4001050901010000804030000000000000371
:106A04000C0020202020FF10101010101000000097
:106A140000000708080808080E00000000FE000037
:106A2400007F80000000080403000000000001064D
:106A34000800080808FF080808F800000000080417
:106A440003000000000708080E002020202020FF7B
:106A540020202020200000000000000F0000000083
:106A6400000000FE02EA2A2A2A2AEA02FE00000F97
:106A740000010101010109080F00E90AE800AEA8BC
:106A8400A8EFA8A8AE00040502000F00070007083D
:106A94000F00445455D6745C5456555444000402B3
:106AA400090909090F09090908001011F2001092D7
:106AB4005232129210000804030409090909090951
:106AC4000B000403FAAEAAA8ACABFA060200020259
:106AD4000B060202020E030202008888FF484A32B3
:106AE40026EA2129050000080F000D09090F0909EC
:106AF4000D008868FF28404242FE424240000000E8
:106B04000F000000000F000000008868FF284424E4
:106B1400D506D424440000000F0008080502050827
:106B2400080004082010FC2724FD26240400040285
:106B340001000F09090F0909080008F8494AD0089B
:106B4400D714F414340008070808070807080F09C5
:106B5400090098F7949442C27E4242FE0000000F5E
:106B64000408080F0808080F080008F4535252F2EA
:106B74005A5650F000000807010101070101090FEE
:106B8400000000FE0A8ABEAAABAABE8A0A00080751
:106B94000008090A04040A09080000FC2424262524
:106BA400242424FC0000000F090909090909090F1C
:106BB400000010D23292100008FF0808F800030207
:106BC400020203080601080807007800FF08C43F12
:106BD400C404F444240000000F0403080402010662
:106BE400080004027DD555555555557D0100000A10
:106BF400090B050505050B0908005F5551FF555F95
:106C04000010FF1214000A060A0509050807000708
:106C140008001011F2000000C03FC0000000000096
:106C2400070209060100010608000002424242422E
:106C34004242420200000808080808080808080838
:106C4400080008F4535252F25A5650F00000080754
:106C5400010101070101090F0000018BFDA9AFF833
:106C6400A9ABFD810F00020A060302020203060A11
:106C74000200445455D6745C5456555444000402DE
:106C8400090909090F090909080011F2007A4ACA19
:106C9400FFCA4A7A02000807080A09080F08090A05
:106CA400080000FF05A5A5A5E5555515070008072B
:106CB40002020202070909090C008445F6AC0A5FC6
:106CC400524A5F4A120000000F000503090F010336
:106CD4000500C15D55D5555DC100FC00FF000F05E1
:106CE400050705050F0001080F0000FC4444FF449C
:106CF40044FF4444FC00000F040407040407040494
:106D04000F0010FF108848FF0808F8408000000FAB
:106D1400000806010808070001001011F2001860BD
:106D2400810680601C0000000702090402010204BD
:106D340008008888FF48BCAAA0FFA0AABE000008DB
:106D44000F0008090A04040A0900180A4A6ADA4FFB
:106D54004A2A8A0A180000090501090F01010509D8
:106D640000008868FF2840FE0202FE0000000000C8
:106D74000F080403000007080E0000FC2424E404A8
:106D8400FF0485660400080700020B0402010204E4
:106D94000F000404FC040408FF080808F8000202B9
:106DA4000109050300000808070002FE5252FE0212
:106DB40004FC04FC0000020302020F0108040304A3
:106DC400080010220400F254505F5054F2000402F0
:106DD40001000F01010101090F008888FF48705765
:106DE40075857557700000080F000905030F03052A
:106DF40009002010FC030807FC24242404000000DC
:106E04000F0000000F010101010004D3525652F497
:106E140053525672020008090503010F01010909C2
:106E24000700020480201887748404140C000201F3
:106E3400080402010001020408008868FF2840FEDB
:106E44000202FE00000000000F080403000007080F
:106E54000E0010FC0380FE2AEA2BEA2AEE00000F43
:106E640001000F01070107090F0008F4131212D2E1
:106E74001A1610F0000008090404020102020405B5
:106E840008008897F4949400F888FF88F8000000BC
:106E94000F04020001000F00010000FE02020202C2
:106EA40002020202020008070000000000000000C5
:106EB400000042F22EE200F453F25A56F0000007AA
:106EC40002070807010701090F0008FAAAAAAAFE87
:106ED400A9A9A9F90800080A0A0A0A0F0A0A0A0A4B
:106EE40008000000FCA4A4A5A6A4A4A4BC00080651
:106EF400010F0404040404040F0020108E8888FF8A
:106F040088888808000008080808080F0808080886
:106F1400080010220400FC4444FF4444FC00040222
:106F240001000F04040704040F0000F9020001012A
:106F340001010101FF00000F00000000000008082B
:106F44000F008888FF4800CF54545252D9000008DB
:106F54000F00000F050505050F00482A987F284AF1
:106F640010EF08F80800090B05050B0008050205D9
:106F74000800FD01FD2525FD2525FD01FD00070473
:106F840005050505050505040F0002F21212FA565F
:106F940052F21212F200000F04040705050704045C
:106FA4000F0004F49494F404FF04C53604000404AC
:106FB40004020A04020102040F008888FF48004CFE
:106FC400C47546C44C0000080F00080805020205F9
:106FD40008001232521732D2124F2A0A020009094B
:106FE4000503010F010305090900007C555654FCF3
:106FF4005456557C000001010101010F01010101FA
:10700400010094F39264DC88AAFFAABE0800000F72
:10701400040A070A0A0F0A0A0A0088780F887842C5
:1070240042F24A464000080502050800080F000025
:1070340000001011F2000828C80808FF080008041E
:1070440003040808080A0A0B080000FE02FAAAAEA4
:10705400AAAAAAFA02000807080402080F000204F8
:10706400080088780FF800D8545350D83000080529
:10707400020D000F0404040F00008888FF4800FE7E
:10708400AAAAFAAAAE0000080F0806010F04040415
:107094000F00FF31CF48D20AFEABAAFA02000F025A
:1070A400010807080B080A0B080000FE02EAAAEA16
:1070B400029F629BC20009060006080A0D080C0222
:1070C4000D0090523E12127E12003E80FF00080A0C
:1070D4000A0A0A0F0A0A0A0A08000488FF001010A4
:1070E400D03FD012140001000F0008060100010671
:1070F4000800444424140CA74C14244444000403FE
:10710400000708080B080C0106001011F2002826DD
:10711400E43FE4242000080403040A090808090AD7
:107124000B008888FF4821A395E995A32000000857
:107134000F000202020F0202020010D04854D211C2
:10714400D25448D010000007020207000F000407C1
:10715400000000108894E7C4A4A4948C800001016A
:10716400000F0404040404040F0004027DD55555E3
:107174005555557D0100000A090B050505050B0948
:107184000800009E8080BF90888794A40400080FA4
:1071940008080F080F08080F08008445F62C40FE65
:1071A40002FA02FE000000000F00080403000708B2
:1071B4000C0018D654FF54D410FC0000FF00000744
:1071C400000F0407000108080F00FC0000FF000284
:1071D40022222222FE000108060100040404040401
:1071E4000F0010FC03086888090A08E80800000F6B
:1071F4000008080B080C0B08080020A424FF240036
:10720400F212121E80000807040F0908090A0A0A6C
:107214000B0098D4B3084844AB922A4640000404B7
:107224000202000202040508000020102C23E020C2
:107234002023EC10200000080403000808080700BD
:107244000000FC242424FF242424FC000000030167
:1072540001010709090909080E00929A96F2929A07
:10726400B200FC00FF000808080704040400010839
:107274000F00FE02FA02FE00C0407F48C800090465
:10728400030409000F0404040F0010101010D03F71
:10729400D0101010100008080403000000030408B4
:1072A400080000C0300000FF0000106080000100F2
:1072B4000008080F000000000100808AB28282FEEC
:1072C4008282A29A800000000000000F00000000EB
:1072D40000002C24A42425E6242424242C000804BF
:1072E4000304080F090909090800FE2222FE000808
:1072F400488808FF08000702020700000009080F79
:10730400000010101010D03FD0101010100008080A
:107314000403000000030408080000C0300000FF5C
:1073240000001060800001000008080F0000000049
:1073340001001008FC0BEA2A2A2A2EE80800080695
:1073440001000708080909080E00FE0232CE1028C1
:10735400A42324A810000F020201090E080B0C0B31
:10736400080024C404C43C00488808FF0800080638
:1073740001020C000009080F000000FF10101000AB
:10738400FF2010080400000F040201000708080889
:107394000E00040484744F44C444444404000402AE
:1073A400090808080F0808080800040484E45C4776
:1073B400444444C404000201000F04040404040F00
:1073C40000008092929292FE91919191800000002F
:1073D4000008080F00000000000004FCFC44447C8A
:1073E400380004FCFC44080F0F0800000000080FDC
:1073F4000F08447C3800FCFC387038FCFC000000AA
:1074040000000F0F0000000F0F008868FF481028CD
:10741400A42324A8100000000F00090E080B0C0B75
:10742400080094F39200F21410DF1014F200000F1D
:10743400040809040201020409001011F2002020CA
:1074440020FF20202000000007020100000F0000A0
:10745400000020203EA020BF242424A42000000AF1
:10746400090804070202010000001011F24044FF61
:107474004444FF444000080403040A0908080B08B4
:1074840008002010FC0382BAAAABAABA820000004A
:107494000F0001020A0E020201000000F8000000C1
:1074A400FF101010000008080F0808080F0808084B
:1074B400080000FE02FAAAAEAAAAAAFA0200080765
:1074C400080402080F000204080020AAB2E3B2AACA
:1074D40000FE12F211000402080F000A0403000F58
:1074E400000098D4B38800FE929292FE0000040437
:1074F4000202080F0808080F08001090A8A4A2A10F
:10750400A2A4A8901000000F040404040404040FAF
:10751400000000FE2AA90028E72121EF0800020F3D
:1075240001000808050205080800080808887F0803
:10753400080808F800000804020100000808080709
:107544000000048404CF0424C40F0484040004034E
:107554000007080808080E0007000000FE9090903D
:10756400909F9010100008060100000000000F001A
:1075740000002010FC03405E52F2525E4000000006
:107584000F000402010F010204008444F40C8794E8
:1075940094D4B494840000000F000000080F00008D
:1075A4000000224422EAAAAABFAAAAEA22000402EC
:1075B400000F020202020A0F00000C25ADAD45BF08
:1075C40045ADAD250C000101000505050B090001C1
:1075D4000100040404FC2526242424E404000804F3
:1075E400030000000808080700000000F80000007D
:1075F40000000000C3FFFF7F07030300000000E05A
:10760400F8FC1E060303030307FEFCF80000C3FF97
:10761400FF7F0703030000000000C3FFFF7F070391
:107624000300000000000000000000000000000053
:1076340000000000000000000000003030000000E6
:107644000000000000000000000000000000000036
:1076540030300000000000000000000000000000C6
:1076640000000000000000F800000000FF0000001F
:107674000058585C5F5F5F5858585C5E4741404310
:10768400474F5C585858584C4F474358585C5F5FB5
:107694005F5858585C5E4759585C5F5F5F580042BA
:1076A4007E427E427E420000000000000000000096
:1076B40000000000000000000000000303000000C0
:1076C40000000000000000000000000000000000B6
:1076D40003030000000000000000000000000000A0
:1076E40000000000000000FF00000000FF00000098
:1076F4000000784E495959494E78000000000000B6
:1077040000000000000814224100000000000000F6
:107714000000003E5149453E003E5149453E00248B
:10772400003E5149453E003E5149453E000000009F
:107734000000004122140800003E5149453E003E2D
:107744005149453E0040003E5149453E001F2040FE
:10775400201F00003E227F415D5D5D5D5D5D5D5DDE
:107764005D5D417F000000FF0000F048FF48F0002D
:1077740000FE01010101FE00180E19017D46447C42
:1077840000003E5149453E0040003E5149453E00FF
:107794003E5149453E001F2040201F0000000000CC
:1077A40000000000000000000000000000000000D5
:1077B40000000000000000000000000000000000C5
:1077C40000000000000000000000000000000000B5
:1077D40000000000000000000000000000000000A5
:1077E4000000000000F048FF48F00102FF02010021
:1077F40000FF00000000FF001824444E0A0A0A0E8D
:1078040000003E5149453E0040003E5149453E007E
:107814003E5149453E001F2040201F00000000004B
:107824000000000000000000000000000000000054
:107834000000000000000000000000000000000044
:107844000000000000000000000000000000000034
:107854000000000000000000000000000000000024
:1078640000000000000102FF02010000FF00000010
:1078740000FF00000000FF00011F012030383C3EE3
:1078840000000000000000000000000000003E5165
:1078940049453E00462610086462000000000000CE
:1078A40000000000000000000000000000000000D4
:1078B40000000000000000000000000000000000C4
:1078C40000000000000000000000000000000000B4
:1078D40000000000000000000000000000000000A4
:1078E40000000000000000FF00000000FF00000096
:1078F40000FF80000080FF000F0507486070787C5F
:1079040000000000000000000000000000003E51E4
:1079140049453E004626100864620000000000004D
:107924000000000000000000000000000000000053
:107934000000000000000000000000000000000043
:107944000000000000000000000000000000000033
:107954000000000000000000000000000000000023
:1079640000000000000000FF000000000300000011
:107974001010101010101010101010101010101003
:10798400101010101010103854547C545438101027
:1079940010101010101010101010101010101010E3
:1079A4001010101010100000000000000000101053
:1079B40010101010101010101010101010101010C3
:1079C4001010101010103854547C545438101010E7
:1079D40010101010101010101010101010101010A3
:1079E4001010101000000003000000000000000050
:1079F4000000000000000000000000000000000083
:107A0400000000000000000000FF010101F9090965
:107A1400794141790909794141790909090101FF4C
:107A240000000000000000000000000000FE020250
:107A3400FE000008C8FF4880F45F5454545FF40407
:107A4400001010FF10908484FF848484FC80001054
:107A540028E7242400A4BFA4A4BFA420002021E676
:107A640000004F4949C949494F0000000000000087
:107A74000000000000000000000000000000000002
:107A8400000000000000000000FF0000809B0000D8
:107A940018809880980018C02020C000000000FFC3
:107AA400000000000000000000000000003B2A2A43
:107AB4003B000001003F002425150D070D1525246A
:107AC400000404070222100C0300030C1020000120
:107AD400013F1109003F242424243F000000001F1B
:107AE4000822120A0603060A1222000000000000FF
:107AF4000000000000000000000000000000000082
:107B0400000000000000000000FF0000E5A5A0A0A8
:107B1400E0A7A7A7E7A0A0A7E8A8A7A0E00000FF08
:107B24004040404040404040404040404040404051
:107B34004040404040404040404040404040404041
:107B44004040404040404040404040404040404031
:107B540040404040404040C00000000000000000A1
:107B64000000000000000000000000000000000011
:107B74000000000000000000000000000000000001
:107B84000000000000000000000FF8080B0A0A0AB9
:107B94000B0A0A0AFB0A0A0A0B0A0A0A0B08F80F5C
:107BA40005050505050505050505050505FD010191
:107BB40001010101010101010101010101010101B1
:107BC400FF000000000000000000000000000000B2
:107BD40000000000000000FF0000000000000000A2
:107BE4000000000000000000000000000000000091
:107BF4000000000000000000000000000000000081
:107C040000000000000000000000FF000000000071
:107C140000000000FF000000000000000000FF0062
:107C240000000000000000000000000000FF000051
:107C34000000000000000000000000000000000040
:107C4400FF00000000000000000000000000000031
:107C540000000000000000FF000000000000000021
:107C64000000000000000000000000000000000010
:107C74000000000000000000000000000000000000
:107C840000000000000000000000FF0000000000F1
:107C940000000000FF000000000000000000FF00E2
:107CA40000000000000000000000000000FF0000D1
:107CB40000000000000000000000000000000000C0
:107CC400FF000000000000000000000000000000B1
:107CD40000000000000000FF0000000000000000A1
:107CE4000000000000000000000000000000000090
:107CF4000000000000000000000000000000000080
:107D040000000000000000000000FF000000000070
:107D140000000000FF000000000000000000FF0061
:107D240000000000000000000000000000FF000050
:107D3400000000000000000000000000000000003F
:107D4400FF00000000000000000000000000000030
:107D540000000000000000FF000000000000000020
:107D6400000000000000000000000000000000000F
:107D740000000000000000000000000000000000FF
:107D8400000000F8888800F8A8A800000000F8881F
:107D94008800F8808000F8205000000000F810F8F7
:107DA4000088F88800B8A8E800708870000000888F
:107DB400F88800F8287880003828F80000000000CF
:107DC400F810F80070887000B8A8E80088F88800F7
:107DD400000000000000F8888800B8A8E800F81047
:107DE40020F80000000000000000FFFFFFFFFFFF7D
:107DF400FFFFFFFFFFFFFFFFFFFFFFFFFFFFFFFF8F
:107E0400FFFFFFFFFFFFFFFFFFFFFFFFFFFFFFFF7E
:107E1400FFFFFFFFFFFFFFFFFFFFFFFFFFFFFFFF6E
:107E2400FFFFFFFEFEFEFEFDFDFDFDFBFBFBFBF782
:107E3400F777776F6F7F3F3FFFFFFFFFFFFFFFFF86
:107E4400FFFFFFFFFFFFFFFFFFFFFFFFFFFFFFFF3E
:107E5400FFFFFFFFFFFFFFFFFFFFFFFFFFFFFFFF2E
:107E6400FFFFFFFFFFFFFFFFFFFFFEFEFEFEFDFD26
:107E7400FDFDFDFDFBFBFBFBFBFBFBF7F7F7F7F75A
:107E8400F7EFEFEFEFEFEFEFDFDFDFDFDFDFBFBFB6
:107E9400BFFF3F3F1F1F1F1F1F0F0F0F0F0F0707AE
:107EA40007070707FF0303010101010100000000A8
:107EB4000000000000000000FFFFFFFFFFFFFFFFC6
:107EC400FFFFFFFFFFFFFFFFFFFFFFFFFFFFFFFFBE
:107ED400FFFFFFFFFFFFFFFFFFFFFFFFFFFFFFFFAE
:107EE400FFFFFFFFFFFFFFFFFFFFFFFFFFFFFFFF9E
:107EF400FFFFFFFFFFFFFFFFFFFFFFFFFFFFFFFF8E
:107F0400FFFFFFFFFFFFFFFFFFFFFFFFFFFFFFFF7D
:107F1400FFFF00000000000000000000000000005F
:107F240000000000FF00000000000000000000004E
:107F34000000000000000000FFFFFFFFFFFFFFFF45
:107F4400FFFFFFFFFFFFFFFFFFFFFFFFFFFFFFFF3D
:107F5400FFFFFFFFFFFFFFFFFFFFFFFFFFFFFFFF2D
:107F6400FFFFFFFFFFFFFFFFFFFFFFFFFFFFFFFF1D
:107F7400FFFFFFFFFFFFFFFFFFFFFFFFFFFFFFFF0D
:107F8400FFFFFFFFFFFFFFFFFFFFFFFFFFFFFFFFFD
:107F9400FFFF0202020202020202020202020202C3
:107FA40002020202FF0202020202020202020202B0
:107FB4000202020202020202FFFFFFFFFFFFFFFFB5
:107FC400FFFFFFFFFFFFFFFFFFFFFFFFFFFFFFFFBD
:107FD400FFFFFFFFFFFFFFFFFFFFFFFFFFFFFFFFAD
:107FE400FFFFFFFFFFFFFFFFFFFFFFFFFFFFFFFF9D
:107FF400FFFFFFFFFFFFFFFFFFFFFFFFFFFFFFFF8D
:10800400FFFFFFFFFFFFFFFF7F7F7F7F7F7FBFBFFC
:10801400BFFFC0C08080808080800000000000001E
:1080240000000000FF00000000000000000000004D
:108034000000000000000000FFFFFFFFFFFFFFFF44
:10804400FFFFFFFFFFFFFFFFFFFFFFFFFFFFFFFF3C
:10805400FFFFFFFFFFFFFFFFFFFFFFFFFFFFFFFF2C
:10806400FFFFFFFFFFFFFFFFFFFFDFDFDFEFEFEFAC
:10807400EFEFEFF7F7F7F7F7FBFBFBFBFBFBFDFD80
:10808400FDFDFDFEFEFEFEFEFFFFFFFFFFFFFFFF07
:10809400FFFFFFFFFFFFFFFFFFFFFFFFFFFFFFFFEC
:1080A400FEFEFEFEFFFEFCFCFCFCFCF8F8F8F8F813
:1080B400F87070B0B0D0F0E0FFFFFFFFFFFFFFFFEC
:1080C400FFFFFFFFFFFFFFFFFFFFFFFFFFFFFFFFBC
:1080D400FFFFFFFFFFFFFFFFFFFFFFFFFFFFFFFFAC
:1080E400FFFFFFFFFFFFFFFFFFFFFFFFFFFFFFFF9C
:1080F400FFFFFFFFFFFFFFFFFFFFFFFFFFFFFFFF8C
:10810400FFFFFFFFFFFFFFFFFFFFFFFFFF7F7FFF7B
:108114007FFF7F7F7F6FFFFFFF7F7F7F7FFFFFFFFB
:108124007F7F6F0FFFDF6F6F77F7FB7B7DFD7DFE3A
:108134007E7FFF7F7F7FFFFFFFDF0FFFFFFF1FEFCC
:10814400EF1FFFFFFFFFFFFFFFFFFFFFFFFFFFFF2B
:10815400FFFFFFFFFFFFFFFFFFFFFFFFFFFFFFFF2B
:10816400FFFFFFFFFFFFFFFFFFFFFFFFFFFFFFFF1B
:10817400FFFFFFFFFFFFFFFFFFFFFFFFFFFFFFFF0B
:10818400FFFFFFFFFFFFFFFFFFFFFFFFFF7F7CB34A
:10819400BCD3DCDFEFF0F7FFFFF7F0F7FFF0F7FFFA
:1081A400F8F7F7F0F7F8F7F7F7F8FFFFFCF3FCF34D
:1081B400FCFFF4F5F5F3FFFFFFF7F0F7FFFFF8F727
:1081C400F7F8FFFFFFFFFFFFFFFFFFFFFFFFFFFFCA
:1081D400FFFFFFFFFFFFFFFFFFFFFFFFFFFFFFFFAB
:1081E400FFFFFFFFFFFFFFFFFFFFFFFFFFFFFFFF9B
:1081F400FFFFFFFFFFFFFFFFFFFFFFFFFFFFFFFF8B
:10820400FFFFFFFFFFFFFFFFFFFFFFFFFFFFFFFF7A
:10821400FFFFFFFFFFFFFFFFFFFFFFFFFFFFFFFF6A
:10822400FFFFFFFFFFFFFFFFFFFF3F1F0F070703D6
:108234000383C1F1F9FFFFFFFFFFFFFFFFFFFFFF14
:10824400FFFFFFFFFFFFFFFFFFFFFFFFFFFFFFFF3A
:10825400FFFFFFFFFFFFFFFFFFFFFFFFFFFFFFFF2A
:10826400FFFFFFFFFFFFFFFFFFFFFFFFFFFFFFFF1A
:10827400FFFFFFFFFFFFFFFFFFFFFFFFFFFFFFFF0A
:10828400FFFFFFFFFFFFFFFFFFFFFFFFFFFFFFFFFA
:10829400FFFFFFFFFFFFFF7F3F3F1F1F0F0F0F0F6A
:1082A4000F1F1F3F3F3F7F63E0E0F0F0783C3E1E2E
:1082B4001F0F0F0F0F0F0F1F1F3F3F7FFFFFFFFF0A
:1082C400FFFFFFFFFFFFFFFFFFFFFFFFFFFFFFFFBA
:1082D400FFFFFFFFFFFFFFFFFFFFFFFFFFFFFFFFAA
:1082E400FFFFFFFFFFFFFFFFFFFFFFFFFFFFFFFF9A
:1082F400FFFFFFFFFFFFFFFFFFFFFFFFFFFFFFFF8A
:10830400FFFFFFFFFFFFFFFFFFFFFFFFFFFFFFFF79
:10831400FFFF3F0F03010000000000000000000009
:108324000000000000000000000103010000000044
:10833400000000000000000000C0E0F8FCFFFFFFA8
:10834400FFFFFFFFFFFFFFFFFFFFFFFFFFFFFFFF39
:10835400FFFFFFFFFFFFFFFFFFFFFFFFFFFFFFFF29
:10836400FFFFFFFFFFFFFFFFFFFFFFFFFFFFFFFF19
:10837400FFFFFFFFFFFFFFFFFFFFFFFFFFFFFFFF09
:10838400FFFFFFFFFFFFFFFFFFFFFFFFFFFFFFFFF9
:10839400FF81000000000000000000000000000059
:1083A40000000000000000000000000000000000C9
:1083B40000000000000000001F7FFFFFFFFFFFFF21
:1083C400FFFFFFFFFFFFFFFFFFFFFFFFFFFFFFFFB9
:1083D400FFFFFFFFFFFFFFFFFFFFFFFFFFFFFFFFA9
:1083E400FFFFFFFFFFFFFFFFFFFFFFFFFFFFFFFF99
:1083F400FFFFFFFFFFFFFFFFFFFFFFFFFFFFFFFF89
:10840400FFFFFFFFFFFFFFFFFFFFFFFFFFFFFFFF78
:10841400FFFFFCE0C00000000000000000000000BE
:108424000000000000000000000000000000000048
:10843400000000000000000000000003070FCFFF51
:10844400FFFFFFFFFFFFFFFFFFFFFFFFFFFFFFFF38
:10845400FFFFFFFFFFFFFFFFFFFFFFFFFFFFFFFF28
:10846400FFFFFFFFFFFFFFFFFFFFFFFFFFFFFFFF18
:10847400FFFFFFFFFFFFFFFFFFFFFFFFFFFFFFFF08
:10848400FFFFFFFFFFFFFFFFFFFFFFFFFFFFFFFFF8
:10849400FFFFFFFFFFFFFCF0E0C080800000000052
:1084A4000000000000008080808080808000000048
:1084B400000000000000008080C0E0F8FCFFFFFF27
:1084C400FFFFFFFFFFFFFFFFFFFFFFFFFFFFFFFFB8
:1084D400FFFFFFFFFFFFFFFFFFFFFFFFFFFFFFFFA8
:1084E400FFFFFFFFFFFFFFFFFFFFFFFFFFFFFFFF98
:1084F400FFFFFFFFFFFFFFFFFFFFFFFFFFFFFFFF88
:10850400FFFFFFFFFFFFFFFFFFFFFFFFFFFF7F7F77
:108514007F7F7F7F7F7F7F7F7F7F7F7F7F7F7E7E69
:108524007E7E7F7F7F7F7F7F7F7F7F7F7F7F7F7F59
:108534007E7E7E7E7F7F7F7F7F7F7F7F7F7F7F7F4B
:108544007F7FFFFFFFFFFFFFFFFFFFFFFFFFFFFF37
:10855400FFFFFFFFFFFFFFFFFFFFFFFFFFFFFFFF27
:10856400FFFFFFFFFFFFFFFFFFFFFFFFFFFFFFFF17
:10857400FFFFFFFFFFFFFFFFFFFFFFFFFFFFFFFF07
:10858400FFFFFFFFFFFFFFFFFFFFFFFFFFFFF0F015
:10859400F0F0F0F0F0F0F0F0F0F0F0F0F0F0F0F0D7
:1085A400F0F0F0F0F0F0F0F0F0F0F0F0F0F0F0F0C7
:1085B400F0F0F0F0F0F0F0F0F0F0F0F0F0F0F0F0B7
:1085C400F0F0FFFFFFFFFFFFFFFFFFFFFFFFFFFFD5
:1085D400FFFFFFFFFFFFFFFFFFFFFFFFFFFFFFFFA7
:1085E400FFFFFFFFFFFFFFFFFFFF00000000000091
:1085F400001030F0F0F05090D8F8F8F090808080BF
:10860400800000000000000020203030101090F89E
:10861400F87838100000000000000000000000009E
:10862400C0E0F0B0F8FCCCCCF870308080000000E2
:108634000000000000404040404878F8F82020E066
:10864400FC3C2C3030303020000000006060606062
:108654006060202020202020303010101010303096
:10866400000000010303131391D1F97F1F1B098933
:108674008F8F8B88800000000000001010101818E5
:10868400080808090BFFFFFE840404040606060418
:1086940004000000003E1E2E2427E7FF7EBE9293B6
:1086A4009191151707030302000000000000000663
:1086B4001E1E92D6FEFEB2FFDFCFC9CF0F07030006
:1086C400000000000000FEFEFE6247FFFE03FFFF05
:1086D400337363FFFFE300000000002030181C0E1A
:1086E40007031F3F3F111111101F1F1F030100003B
:1086F400000000000000000000101030707F7F3F79
:108704000700000000000000000000002030381CBA
:108714004E476323371F1D1F1F3170606060604028
:108724004000000040404042626331331E1E0C0E84
:1087340007030100000000000000000000001F1FEC
:1087440007081E1F1F0C1F1F0008383F3F0F0000A3
:1087540000000000E0101010101010101010101085
:10876400101010101010101010101010101010E035
:1087740000000000FF0000000000000000000000F6
:10878400000000000000000000000000000000FFE6
:108794000000000007080808080808080808080876
:1087A4000808080808080808080808080808080746
:1087B40000000F07030383C323131B1B2BABAB2B3B
:1087C400333363C3030303030323131313E30303C5
:1087D400E3131313230303E3131393E30303070FB5
:1087E400000000001F3060A0A64646DF9F868686F4
:1087F40040301F00000000081111110E00000F117D
:1088040011110E00000F1211100F000000000000E3
:108814000000888888F8888989F989898820A0F8DF
:10882400A000F80808F80000002090906000505064
:10883400F848408040F8002040000000E0C0C0C07C
:10884400D0D8CCC7C0C0C0DFC0C0C0C2C1DFD0CD8B
:10885400C7C0C0DFD0DCC0C4C8C8C7C0C2C1DFC184
:10886400D2D0D8CBC4C2C1C0C0E0FC06030101C150
:10887400611109090D15D5D5151919316181010148
:10888400010121111111E10101E111111121010174
:10889400E1111191E1010101010306FCFF00000057
:1088A400000F18305053A3C3CF8FC3434320180F76
:1088B40000000000081111110E00000F1111110E1B
:1088C40000000F1211100F000000000000FFFF0055
:1088D400000012A404F8484848FE4848F800F4048C
:1088E400080004040404FC000010F816D454545C7A
:1088F400D4101000FC74AC1048444448102000FF0D
:108904003F6040404C43404F4444444744444F40FC
:108914004F404040404048484F40404C43404F48FF
:108924004A4A4B4846404F4249484A4D4A4C4A49B4
:10893400603F183C6444C49C180000FCFC00000028
:10894400FCFC0000080C84C4643C1800000C0C04FB
:1089540084C47C3C0000060E0808080F07000007CA
:108964000F0808080F0700000E0F0908080C0C0078
:0F8974000000000F0F00000000004C4F5645217F
:10C29F004102EA004102DC0041027A0241007000D3
:10C2AF0047036A00000000000000C1C341003A2AA2
:10C2BF0041005F00C1C241006800410069004100B8
:10C2CF006A0041000000410055004102AD004100ED
:10C2DF00F5004102B80041029205410012004203ED
:10C2EF007E0000410067004100660041035D004190
:10C2FF00026F004100620041007300C1C6C1AE4130
:10C30F000271004102B7004102BA004102BC004174
:10C31F00006F0041027B0041027F0041029100410A
:10C32F0002AF004103800041030001410059234146
:10C33F00005C464102B3004102B400C1B041031397
:10C34F00004202FE025842030402584203060258FA
:10C35F0042030902584202F401904202F90190424D
:10C36F0002FC0190420302019041006B3341006DCA
:10C37F003341006E334100713341005B0041029045
:10C38F0003012C00410369004102D5004102D60090
:10C39F00410308004102E9004B0331000000000097
:10C3AF00000000000000410011034102B2464102AB
:10C3BF007E284102D13C4102C23C41006500410050
:10C3CF006100500315000000000000000000000095
:10C3DF000000000000104D01F40258032000C803B4
:10C3EF00E800000064012C48029D000102030405CF
:10C3FF000607410058004102C6004102DA00410021
:10C40F00F4004102B1024100539C4102D9CE4102D6
:10C41F00D2324100F10A42027C0000C1114102C533
:10C42F00004103140041033000460376101D2A37E4
:10C43F00445141005404410341004800A73C3C3C97
:10C44F003C3C3C3C3C41006C00410039004102E562
:05C45F00034102DB00B7
:08EBEA007F0C7EA8DEFEDFFCBB
:01EBF2002200
:04EB61007FC87E00EB
:10EB6500AD07AC06ED1DAE0470011C4E600512EB41
:04EB7500EA80F1221F
:10E62C00EFF00DE4FF12E65EA3EFF00DE4FF12E64F
:10E63C005EA3EFF00DE4FF12E65EA3EFF00DE4FF36
:10E64C0012E65EA3EFF00DE4FF12E65EA3EFF00D11
:02E65C00E4FFD9
:10E65E0075C501D3ED94FFEC9400400AEF04F5C3A9
:10E66E00ED04F5C480068FC3AF058FC475C65A7509
:06E67E00C6A500AFC22298
:10E5D200E0FB0DE4FF12E604A3E0FB0DE4FF12E60C
:10E5E20004A3E0FB0DE4FF12E604A3E0FB0DE4FF4D
:10E5F20012E604A3E0FB0DE4FF12E604A30DE0FB28
:02E60200E4FF33
:10E6040075C502AE038EC2D3ED94FFEC9400400AAC
:10E61400EF04F5C3ED04F5C480068FC3AF058FC4C2
:08E6240075C65A75C6A5002257
:0CEB4500E4FF12EB517F0212EB517F0441
:10EB510075C5038FC3E4F5C475C65A75C6A50022F1
:07EB2400F583E004F07F011E
:10EB2B00EFFD7C0064017002D20FED64024C7002A9
:0AEB3B00D254D248E490006AF022A0
:10C0D200E49003A0F0A3F075C783FEEEC3944E7400
:10C0E200809480501AEEFD7C00E4FF12E65EEFFDC4
:10C0F2009003A1E02DF09003A0E03CF00E80DC7DE7
:10C102004E7C00E4FF12E65EAB07EB7B00FA0DE427
:10C11200FF12E65EEB2FFBE43AFAE4FDFF12E65E65
:10C12200EF64AC700C9003A0E06A7003A3E06B6054
:10C1320009D225D21AD23702C29B7D027C00E4FFCB
:10C1420012E65E90030012E65990003A12E659EFA9
:10C1520024FF92430DE4FF12E65E90006B12E65953
:10C1620090006D12E65090007112E65990033C1255
:10C17200E63590037112E63590005912E6599000A7
:10C182005C12E659EF24FF92460DE4FF12E65EEFE1
:10C1920024FF92510DE4FF12E65E90029012E659DE
:10C1A2009002B312E65090029212E65990005FEFAD
:10C1B200F07D1DE4FF12E65EEF24FF92300DE4FFF6
:10C1C20012E65EEF24FF921E0DE4FF12E65E90007F
:10C1D2001212E65990005B12E6599002DA12E65901
:10C1E200EF24FF92420DE4FF12E65EEF24FF922A53
:10C1F2000DE4FF12E65E900341EFF07D26E4FF12AC
:10C20200E65E90029D12E62C12E64F90005812E66E
:10C2120059EF24FF921A0DE4FF12E65E9002EAEF54
:10C22200F09002DC12E65AEF24FF92370DE4FF127F
:10C23200E65EEF24FF92500DE4FF12E65E9000F4FA
:10C2420012E6599002D912E6599002D212E659909A
:10C252000053EFF07D38E4FF12E65E9000F112E643
:10C26200599000A712E62C12E64F90031412E659D9
:10C2720090033012E65990005412E6599003761258
:10C28200E62C9002B212E65990027E12E659900212
:0CC29200D112E6599002C2EFF0E4F5C7AB
:01C29E00227D
:10C7D000E49003A0F0A3F075C783FF12EB517BAC8C
:10C7E000E4FDFC12E6049003007D0212E6009000D6
:10C7F0003A12E5FFA243E433FB0DE4FF12E6049096
:10C80000006B12E5FF90006D12E5F690007112E5E5
:10C81000FF90033C12E5DB90037112E5DB900059B9
:10C8200012E5FF90005C12E5FFA246E433FB0DE445
:10C83000FF12E604A251E433FB0DE4FF12E604907C
:10C84000029012E5FF9002B312E5F690029212E513
:10C85000FF90005F12E5FFA230E433FB7D1DE4FF93
:10C8600012E604A21EE433FB0DE4FF12E60490007E
:10C870001212E5FF90005B12E5FF9002DA12E5FF6D
:10C88000A242E433FB0DE4FF12E604A22AE433FBE8
:10C890000DE4FF12E60490034112E5FF90029DE0D3
:10C8A000FB7D26E4FF12E604A312E5D212E5FE901A
:10C8B000005812E5FFA21AE433FB0DE4FF12E60470
:10C8C0009002EA12E5FFA237E433FB0DE4FF12E623
:10C8D00004A250E433FB0DE4FF12E6049000F412CE
:10C8E000E5FF9002D912E5FF9002D212E5FF900019
:10C8F0005312E5FF9000F1E0FB7D38E4FF12E604FF
:10C900009000A712E5D212E5F590031412E5FF900E
:10C91000033012E5FF90005412E5FF90037612E514
:10C92000D29002B212E5FF90027E12E5FF9002D192
:10C9300012E5FF9002C212E5FFE4FEEEC3944E74CE
:10C94000809480501AEEFD7C00E4FF12E65EEFFD5D
:10C950009003A1E02DF09003A0E03CF00E80DC906D
:0EC9600003A0E0FB7D4E7C0012E5F9E4F5C774
:01C96E0022A6
:10C46500E4FFEFC3940874809480500F74DD2FF5BA
:10C4750082E43402F583E4F00F80E7E4FFEFC39430
:10C485000874809480501074432FF582E43400F5CD
:10C49500837464F00F80E6E4FFEFC394087480941E
:10C4A500805010744B2FF582E43400F5837464F0EA
:10C4B5000F80E6E4FFEFC3940874809480500F74F6
:10C4C500C92FF582E43402F583E4F00F80E7C24911
:10C4D500C24AC24BC24C9002EB7401F0E49000F3E7
:10C4E500F09002F67402F09000F604F09002FBF072
:10C4F500E490026EF09003017405F0E4900270F090
:10C50500FFEFC3940674809480500F740B2FF5824F
:10C51500E43403F583EFF00F80E79003117407F01F
:10C52500A304F0E4FFEFC3940874809480500F7463
:10C53500722FF582E43402F583EFF00F80E7E4FF14
:10C54500EFC3940874809480500F74EC2FF582E447
:10C555003402F583E4F00F80E7E4FFEFC394087439
:10C56500809480500F74A52FF582E43402F583E49E
:10C57500F00F80E79002A7749CF0E4900013F0A3FD
:10C58500F0A3F0FFEFC3940574809480507AEF75A3
:10C59500F007A42416F582E43400F583E4F0EF7582
:10C5A500F007A42417F582E43400F5837410F0EF46
:10C5B50075F007A42418F582E43400F5837420F09F
:10C5C500EF75F007A42419F582E43400F58374327D
:10C5D500F0EF75F007A4241AF582E43400F58374AE
:10C5E50044F0EF75F007A4241BF582E43400F583CD
:10C5F5007454F0EF75F007A4241CF582E43400F5BB
:10C60500837464F00F02C589E4FFEFC39407748057
:10C615009480500F746A2FF582E43403F583E4F0B7
:03C625000F80E79C
:01C6280022EF
:0AE8D20075C7839002DCE0FF7E00B2
:10E8DC00D3EF9402EE9400401074FD2FFF74FF3EB2
:10E8EC00FE90027A7404F0800690027A7402F0EFC3
:10E8FC004E7003FEFF22EF64014E7004FE7F7D22FA
:05E90C007E007FFA22ED
:109E020012E8D2AB07AA06E49003A0F0A3F09003F5
:109E1200A0E0FCA3E0FDC39477EC9401502A9002E9
:109E22007AE0FF12E65E9003A0E0FCA3E024F7F5DF
:109E32008274003CF583EFF09003A1E004F070CE51
:109E42009003A0E004F080C6E49003A2F0A3F09097
:109E520003A0EAF0A3EBF0EB247BFFE43AFE9003CD
:109E6200A0E0FCA3E0FDC39FEC9E502974F72DF502
:109E72008274003CF583E0FF9003A3E02FF090038F
:109E8200A2E03400F09003A1E004F070CA9003A0B5
:109E9200E004F080C274722BF58274013AF583E01B
:109EA2007F00FE74732BF58274013AF583E02FFF75
:109EB200E43EFE74F72BF58274003AF583E064AC5D
:109EC200700C9003A2E06E7003A3E06F600612C4F0
:109ED2006502A5ED74F82BF58274003AF583E090E3
:109EE20002DDF074F92BF58274003AF583E09002FA
:109EF200DEF074FA2BF58274003AF583E09002DF0B
:109F0200F074FB2BF58274003AF583E09002E0F0E6
:109F120074FC2BF58274003AF583E09002E1F07450
:109F2200FD2BF58274003AF583E09002E2F074FEB4
:109F32002BF58274003AF583E09002E3F074FF2B74
:109F4200F58274003AF583E09002E4F074002BF598
:109F52008274013AF583E0900043F074012BF5829C
:109F620074013AF583E0900044F074022BF5827498
:109F7200013AF583E0900045F074032BF5827401F9
:109F82003AF583E0900046F074042BF58274013AAE
:109F9200F583E0900047F074052BF58274013AF5E1
:109FA20083E0900048F074062BF58274013AF58341
:109FB200E0900049F074072BF58274013AF583E0D2
:109FC20090004AF074082BF58274013AF583E09010
:109FD200004BF074092BF58274013AF583E090008E
:109FE2004CF0740A2BF58274013AF583E090004D2F
:109FF200F0740B2BF58274013AF583E090004EF079
:10A00200740C2BF58274013AF583E090004FF074E2
:10A012000D2BF58274013AF583E0900050F0740E36
:10A022002BF58274013AF583E0900051F0740F2B06
:10A03200F58274013AF583E0900052F074102BF52A
:10A042008274013AF583E09002C9F074112BF58213
:10A0520074013AF583E09002CAF074122BF582740F
:10A06200013AF583E09002CBF074132BF582740170
:10A072003AF583E09002CCF074142BF58274013A25
:10A08200F583E09002CDF074152BF58274013AF558
:10A0920083E09002CEF074162BF58274013AF583B8
:10A0A200E09002CFF074172BF58274013AF583E049
:10A0B2009002D0F074182BF58274013AF583E024F3
:10A0C200FF924974192BF58274013AF583E024FF5B
:10A0D200924A741A2BF58274013AF583E024FF92B6
:10A0E2004B741B2BF58274013AF583E024FF924CEA
:10A0F200741C2BF58274013AF583E09002EBF07444
:10A102001D2BF58274013AF583E09000F3F0741E82
:10A112002BF58274013AF583E09002F6F0741F2B5E
:10A12200F58274013AF583E09000F6F074202BF585
:10A132008274013AF583E09002FBF074212BF582E0
:10A1420074013AF583E090026EF074222BF582746A
:10A15200013AF583E0900301F074232BF582740138
:10A162003AF583E0900270F074242BF58274013A80
:10A17200F583E090030BF074252BF58274013AF518
:10A1820083E090030CF074262BF58274013AF58378
:10A19200E090030DF074272BF58274013AF583E009
:10A1A20090030EF074282BF58274013AF583E09047
:10A1B200030FF074292BF58274013AF583E09003C2
:10A1C20010F0742A2BF58274013AF583E0900311A2
:10A1D200F0742B2BF58274013AF583E0900312F0B0
:10A1E200742C2BF58274013AF583E0900272F074BC
:10A1F2002D2BF58274013AF583E0900273F0742EF0
:10A202002BF58274013AF583E0900274F0742F2BDF
:10A21200F58274013AF583E0900275F074302BF503
:10A222008274013AF583E0900276F074312BF58264
:10A2320074013AF583E0900277F074322BF5827460
:10A24200013AF583E0900278F074332BF5827401C1
:10A252003AF583E0900279F074342BF58274013A76
:10A26200F583E09002ECF074352BF58274013AF537
:10A2720083E09002EDF074362BF58274013AF58397
:10A28200E09002EEF074372BF58274013AF583E028
:10A292009002EFF074382BF58274013AF583E09066
:10A2A20002F0F074392BF58274013AF583E09002E2
:10A2B200F1F0743A2BF58274013AF583E09002F2E0
:10A2C200F0743B2BF58274013AF583E09002F3F0CF
:10A2D200743C2BF58274013AF583E09002A5F07488
:10A2E2003D2BF58274013AF583E09002A6F0743EAC
:10A2F2002BF58274013AF583E09002A7F0743F2BAC
:10A30200F58274013AF583E09002A8F074402BF5CF
:10A312008274013AF583E09002A9F074412BF58230
:10A3220074013AF583E09002AAF074422BF582742C
:10A33200013AF583E09002ABF074432BF58274018D
:10A342003AF583E09002ACF074442BF58274013A42
:10A35200F583E0900013F074452BF58274013AF511
:10A3620083E0900014F074462BF58274013AF58371
:10A37200E0900015F074472BF58274013AF583E002
:10A38200900016F074482BF58274013AF583E09040
:10A392000017F074492BF58274013AF583E09000BE
:10A3A20018F0744A2BF58274013AF583E090001993
:10A3B200F0744B2BF58274013AF583E090001AF0A9
:10A3C200744C2BF58274013AF583E090001BF07413
:10A3D2004D2BF58274013AF583E090001CF0744E27
:10A3E2002BF58274013AF583E090001DF0744F2B37
:10A3F200F58274013AF583E090001EF074502BF55B
:10A402008274013AF583E090001FF074512BF582BB
:10A4120074013AF583E0900020F074522BF58274B7
:10A42200013AF583E0900021F074532BF582740118
:10A432003AF583E0900022F074542BF58274013ACD
:10A44200F583E0900023F074552BF58274013AF500
:10A4520083E0900024F074562BF58274013AF58360
:10A46200E0900025F074572BF58274013AF583E0F1
:10A47200900026F074582BF58274013AF583E0902F
:10A482000027F074592BF58274013AF583E09000AD
:10A4920028F0745A2BF58274013AF583E090002972
:10A4A200F0745B2BF58274013AF583E090002AF098
:10A4B200745C2BF58274013AF583E090002BF07402
:10A4C2005D2BF58274013AF583E090002CF0745E06
:10A4D2002BF58274013AF583E090002DF0745F2B26
:10A4E200F58274013AF583E090002EF074602BF54A
:10A4F2008274013AF583E090002FF074612BF582AB
:10A5020074013AF583E0900030F074622BF58274A6
:10A51200013AF583E0900031F074632BF582740107
:10A522003AF583E0900032F074642BF58274013ABC
:10A53200F583E0900033F074652BF58274013AF5EF
:10A5420083E0900034F074662BF58274013AF5834F
:10A55200E0900035F074672BF58274013AF583E0E0
:10A56200900036F074682BF58274013AF583E0901E
:10A572000037F074692BF58274013AF583E090009C
:10A5820038F0746A2BF58274013AF583E090036A1D
:10A59200F0746B2BF58274013AF583E090036BF053
:10A5A200746C2BF58274013AF583E090036CF074BD
:10A5B2006D2BF58274013AF583E090036DF0746EB1
:10A5C2002BF58274013AF583E090036EF0746F2BE1
:10A5D200F58274013AF583E090036FF074702BF505
:0EA5E2008274013AF583E0900370F0E4F5C74F
:01A5F0002248
:10952A0012E8D2AD07AC0690027AE0FF12EB517452
:10953A00F72DF58274003CF58374ACF09002DDE0FF
:10954A00FF74F82DF58274003CF583EFF09002DE8B
:10955A00E0FF74F92DF58274003CF583EFF0900278
:10956A00DFE0FF74FA2DF58274003CF583EFF0908A
:10957A0002E0E0FF74FB2DF58274003CF583EFF006
:10958A009002E1E0FF74FC2DF58274003CF583EF54
:10959A00F09002E2E0FF74FD2DF58274003CF58341
:1095AA00EFF09002E3E0FF74FE2DF58274003CF5C3
:1095BA0083EFF09002E4E0FF74FF2DF58274003C23
:1095CA00F583EFF0900043E0FF74002DF5827401FB
:1095DA003CF583EFF0900044E0FF74012DF58274AE
:1095EA00013CF583EFF0900045E0FF74022DF5820F
:1095FA0074013CF583EFF0900046E0FF74032DF50B
:10960A008274013CF583EFF0900047E0FF74042D6B
:10961A00F58274013CF583EFF0900048E0FF740591
:10962A002DF58274013CF583EFF0900049E0FF7458
:10963A00062DF58274013CF583EFF090004AE0FFB5
:10964A0074072DF58274013CF583EFF090004BE02E
:10965A00FF74082DF58274013CF583EFF090004CFD
:10966A00E0FF74092DF58274013CF583EFF0900058
:10967A004DE0FF740A2DF58274013CF583EFF090FA
:10968A00004EE0FF740B2DF58274013CF583EFF078
:10969A0090004FE0FF740C2DF58274013CF583EFC6
:1096AA00F0900050E0FF740D2DF58274013CF583B3
:1096BA00EFF0900051E0FF740E2DF58274013CF535
:1096CA0083EFF0900052E0FF740F2DF58274013C95
:1096DA00F583EFF09002C9E0FF74102DF582740152
:1096EA003CF583EFF09002CAE0FF74112DF5827405
:1096FA00013CF583EFF09002CBE0FF74122DF58266
:10970A0074013CF583EFF09002CCE0FF74132DF561
:10971A008274013CF583EFF09002CDE0FF74142DC2
:10972A00F58274013CF583EFF09002CEE0FF7415E8
:10973A002DF58274013CF583EFF09002CFE0FF74BF
:10974A00162DF58274013CF583EFF09002D0E0FF0C
:10975A0074172DF58274013CF583EFF0A249E433C6
:10976A00FF74182DF58274013CF583EFF0A24AE4E8
:10977A0033FF74192DF58274013CF583EFF0A24B87
:10978A00E433FF741A2DF58274013CF583EFF0A2DD
:10979A004CE433FF741B2DF58274013CF583EFF022
:1097AA009002EBE0FF741C2DF58274013CF583EF07
:1097BA00F09000F3E0FF741D2DF58274013CF583EF
:1097CA00EFF09002F6E0FF741E2DF58274013CF56D
:1097DA0083EFF09000F6E0FF741F2DF58274013CD0
:1097EA00F583EFF09002FBE0FF74202DF5827401FF
:1097FA003CF583EFF090026EE0FF74212DF5827440
:10980A00013CF583EFF0900301E0FF74222DF5820D
:10981A0074013CF583EFF0900270E0FF74232DF59C
:10982A008274013CF583EFF090030BE0FF74242D62
:10983A00F58274013CF583EFF090030CE0FF742588
:10984A002DF58274013CF583EFF090030DE0FF746F
:10985A00262DF58274013CF583EFF090030EE0FFAC
:10986A0074272DF58274013CF583EFF090030FE025
:10987A00FF74282DF58274013CF583EFF0900310F4
:10988A00E0FF74292DF58274013CF583EFF0900313
:10989A0011E0FF742A2DF58274013CF583EFF090F4
:1098AA000312E0FF742B2DF58274013CF583EFF06F
:1098BA00900272E0FF742C2DF58274013CF583EF5F
:1098CA00F0900273E0FF742D2DF58274013CF5834C
:1098DA00EFF0900274E0FF742E2DF58274013CF5CE
:1098EA0083EFF0900275E0FF742F2DF58274013C2E
:1098FA00F583EFF0900276E0FF74302DF582740163
:10990A003CF583EFF0900277E0FF74312DF5827415
:10991A00013CF583EFF0900278E0FF74322DF58276
:10992A0074013CF583EFF0900279E0FF74332DF572
:10993A008274013CF583EFF09002ECE0FF74342D61
:10994A00F58274013CF583EFF09002EDE0FF743587
:10995A002DF58274013CF583EFF09002EEE0FF747E
:10996A00362DF58274013CF583EFF09002EFE0FFAB
:10997A0074372DF58274013CF583EFF09002F0E024
:10998A00FF74382DF58274013CF583EFF09002F1F3
:10999A00E0FF74392DF58274013CF583EFF09002F3
:1099AA00F2E0FF743A2DF58274013CF583EFF090F2
:1099BA0002F3E0FF743B2DF58274013CF583EFF06E
:1099CA009002A5E0FF743C2DF58274013CF583EF0B
:1099DA00F09002A6E0FF743D2DF58274013CF583F8
:1099EA00EFF09002A7E0FF743E2DF58274013CF57A
:1099FA0083EFF09002A8E0FF743F2DF58274013CDA
:109A0A00F583EFF09002A9E0FF74402DF58274010E
:109A1A003CF583EFF09002AAE0FF74412DF58274C1
:109A2A00013CF583EFF09002ABE0FF74422DF58222
:109A3A0074013CF583EFF09002ACE0FF74432DF51E
:109A4A008274013CF583EFF0900013E0FF74442D1B
:109A5A00F58274013CF583EFF0900014E0FF744541
:109A6A002DF58274013CF583EFF0900015E0FF7448
:109A7A00462DF58274013CF583EFF0900016E0FF65
:109A8A0074472DF58274013CF583EFF0900017E0DE
:109A9A00FF74482DF58274013CF583EFF0900018AD
:109AAA00E0FF74492DF58274013CF583EFF09000D4
:109ABA0019E0FF744A2DF58274013CF583EFF090AA
:109ACA00001AE0FF744B2DF58274013CF583EFF028
:109ADA0090001BE0FF744C2DF58274013CF583EF76
:109AEA00F090001CE0FF744D2DF58274013CF58363
:109AFA00EFF090001DE0FF744E2DF58274013CF5E5
:109B0A0083EFF090001EE0FF744F2DF58274013C44
:109B1A00F583EFF090001FE0FF74502DF582740179
:109B2A003CF583EFF0900020E0FF74512DF582742C
:109B3A00013CF583EFF0900021E0FF74522DF5828D
:109B4A0074013CF583EFF0900022E0FF74532DF589
:109B5A008274013CF583EFF0900023E0FF74542DEA
:109B6A00F58274013CF583EFF0900024E0FF745510
:109B7A002DF58274013CF583EFF0900025E0FF7427
:109B8A00562DF58274013CF583EFF0900026E0FF34
:109B9A0074572DF58274013CF583EFF0900027E0AD
:109BAA00FF74582DF58274013CF583EFF09000287C
:109BBA00E0FF74592DF58274013CF583EFF09000B3
:109BCA0029E0FF745A2DF58274013CF583EFF09079
:109BDA00002AE0FF745B2DF58274013CF583EFF0F7
:109BEA0090002BE0FF745C2DF58274013CF583EF45
:109BFA00F090002CE0FF745D2DF58274013CF58332
:109C0A00EFF090002DE0FF745E2DF58274013CF5B3
:109C1A0083EFF090002EE0FF745F2DF58274013C13
:109C2A00F583EFF090002FE0FF74602DF582740148
:109C3A003CF583EFF0900030E0FF74612DF58274FB
:109C4A00013CF583EFF0900031E0FF74622DF5825C
:109C5A0074013CF583EFF0900032E0FF74632DF558
:109C6A008274013CF583EFF0900033E0FF74642DB9
:109C7A00F58274013CF583EFF0900034E0FF7465DF
:109C8A002DF58274013CF583EFF0900035E0FF7406
:109C9A00662DF58274013CF583EFF0900036E0FF03
:109CAA0074672DF58274013CF583EFF0900037E07C
:109CBA00FF74682DF58274013CF583EFF09000384B
:109CCA00E0FF74692DF58274013CF583EFF090038F
:109CDA006AE0FF746A2DF58274013CF583EFF09017
:109CEA00036BE0FF746B2DF58274013CF583EFF092
:109CFA0090036CE0FF746C2DF58274013CF583EFE0
:109D0A00F090036DE0FF746D2DF58274013CF583CC
:109D1A00EFF090036EE0FF746E2DF58274013CF54E
:109D2A0083EFF090036FE0FF746F2DF58274013CAE
:109D3A00F583EFF0900370E0FF74702DF5827401E3
:109D4A003CF583EFF0E49003A2F0A3F09003A0ECBB
:109D5A00F0A3EDF0ED247BFFE43CFE9003A0E0FAD3
:109D6A00A3E0FBC39FEA9E502974F72BF582740087
:109D7A003AF583E0FF9003A3E02FF09003A2E034CA
:109D8A0000F09003A1E004F070069003A0E004F054
:109D9A0080C29003A2E0FF74722DF58274013CF533
:109DAA0083EFF09003A2A3E0FF74732DF582740190
:109DBA003CF583EFF0E49003A0F0A3F090027AE080
:109DCA00FF9003A0E0FCA3E0FD24F7F58274003CB9
:109DDA00F583E0FB12E6049003A1E004F07006901C
:109DEA0003A0E004F0C39003A1E094779003A0E0FD
:079DFA00940140C8E4F5C725
:019E0100223E
:10E6D70012E70612AA61FF12E70690000112AA7A52
:10E6E700FF12E70690000212AA7AFF12E7069000CF
:0FE6F7000312AA7AFF12E70690000412AA7AFF14
:10E70600E4FEEEC39408748094805015EF3392842F
:10E71600D281EF25E0FFA282E4334FFFC2810E8053
:01E72600E111
:01E7270022CF
:06EB7900C2807D407F0711
:10EB7F00C285EF2420FF12E706AF0512E706D28504
:01EB8F002263
:0CEBA300C28512E706E4FF12E706D285E7
:01EBAF002243
:0BEA69009003A1EBF0A3EAF0A3E9F09A
:10EA7400C2857FA012E706E4FCECC39D5016900308
:10EA8400A1E0FBA3E0FAA3E0F98C8275830012E70E
:06EA9400020C80E5D285B2
:01EA9A002259
:0BEA9B00900399EBF0A3EAF0A3E9F070
:10EAA600C2857FA012E706E4FCECC39D50169003D6
:10EAB60099E0FBA3E0FAA3E0F98C8275830012E7E4
:06EAC600020C80E5D28580
:01EACC002227
:0BE98E009003A1EBF0A3EAF0A3E9F076
:10E99900C2857F6112E706E4FCECC39D501CE4FFCD
:10E9A90012E7069003A1E0FBA3E0FAA3E0F98C8249
:0CE9B900758300EF12AAA70C80DFD28546
:01E9C500222F
:0BE9C600900399EBF0A3EAF0A3E9F046
:10E9D100C2857F6112E706E4FCECC39D501CE4FF95
:10E9E10012E706900399E0FBA3E0FAA3E0F98C8219
:0CE9F100758300EF12AAA70C80DFD2850E
:01E9FD0022F7
:10001E00900290E0FF12EACD7F0B12EBC87B017AC3
:03002E0003793C17
:0A003100C2857F3012E6D7D2852287
:0AEBE000C2857F2A12E6D7D28522F3
:0CEBB000C2807D3BE4FF12EB7FD280228C
:0CEBBC00C2807D0AE4FF12EB7FD28022B1
:10EACD00C280EFFB7A00640370047D27801CEB6429
:10EADD00024A70047D258012EFFB7A0064017004F8
:10EAED007D238006EB4A70077D217F0612EB7FD2D6
:02EAFD00802275
:0CEBC800C280AD077F1112EB7FD28022CB
:0CEBD400C280AD077F0512EB7FD28022CB
:10EAFF00C280C281E4FD7F0112EB7F0D7F0212EB1A
:10EB0F007F1D7F0412EB7F12EBBC7F4212EBD412FE
:05EB1F00001E02EBE006
:10DC2500E49003A0F0208207900369E04402F0200D
:10DC35008407900369E04410F0208307900369E0AE
:10DC45004408F0208507900369E04401F0C280C2D2
:10DC550081C2857F2012E706EF640E60069003A05F
:10DC65007401F07F0A12E706D285C285E4FF12E748
:10DC750006E4FF12E706EF640A6007900369E044D3
:10DC850002F0D285E4FD7F0112EB7F7F0412EB7F6A
:10DC95000D7F1112EB7F7B017A03795E12EA69D25F
:10DCA500807F027E0012EB65C285E4FF12E706EF76
:10DCB500642E6007900369E04404F0D28530830741
:10DCC500900369E04418F0D2809003A0E0601290C0
:10DCD5000369E0FFD39401748094804004EF44010C
:08DCE500F07D207F0702EB7FB8
:10DB5200C21A90034274A0F0900371E0900343F064
:10DB6200900372E0900344F0900373E0900345F059
:10DB7200900374E0900346F0900375E0900347F041
:10DB820090033CE0900348F090033DE0900349F09D
:10DB920090033EE090034AF090033FE090034BF085
:10DBA200900340E090034CF07F2112EBD4E4FF128B
:10DBB200EACD7F0B12EBC87BFF7A89797E120031A6
:10DBC20012EBE0C252D228A228B052504E12EBBC45
:10DBD2007B017A0379427D0B12EA6912EBEA12EBBE
:10DBE200B012EBEA2083207B017A0379317D0B129C
:10DBF200E98E12EB79D280900331E0B44F09A3E0B1
:10DC0200B44B04C252C2289003A0E004F0E0D394C3
:10DC1200327480948040CAE4F080ACD21A12001EA2
:03DC220002EBE032
:10E5770012E58D78189003A8E0FCA3E0FDA3E0FE68
:06E58700A3E0FF12AC232B
:10E58D008F20C2C4A20792C5D2C4C2C4A20692C52E
:10E59D00D2C4C2C4A20592C5D2C4C2C4A20492C53B
:10E5AD00D2C4C2C4A20392C5D2C4C2C4A20292C52F
:10E5BD00D2C4C2C4A20192C5D2C4C2C4A20092C523
:05E5CD00D2C4C2C4220B
:0AE95000E0FF12E58DEC244BFF0DF3
:10E95A00AE07C2C6302A0E3051050E0E0E800A745A
:10E96A00042EFE80043051010EED24B0FF12E58D15
:10E97A00EEC4540F2410FF12E58DEE540FFF12E57A
:04E98A008DD2C62242
:03000300C2862290
:03000600D286227D
:0BE9FE009003A57408F07B80E4FDFF8F
:04EA0900A907AC05A8
:10EA0D00E4FA9003A5E0FFEAC39F501AAF01EA2C88
:10EA1D00FD12E95AE4FEEEC39B5008E4FF12E58DAA
:06EA2D000E80F30A80DCFC
:01EA330022C0
:10E24700120003C2877F027E0012EB65D2877F0A26
:10E257007E0012EB65C2C67FE212E58D12EBEA7F04
:10E267002C12E58D7F2E12E58D0F12E58D7F23127F
:10E27700E58D7F8112E58D90003AE0FF12E58D7FF5
:10E28700A012E58D7FA212E58D7FA412E58D7FA6F2
:10E2970012E58D7FC812E58D3051047F6080027FC3
:10E2A7004012E58D7FAF12E58DD2C612E9FE02005E
:01E2B7000660
:10E8500012E8617D01E4FF12E95A7F4312E8617F0B
:01E86000486F
:02E86100AE0700
:10E86300E4FDEDC3940674809480502275F006EEA7
:10E87300A424B4F582E5F03458F583E5822DF582BE
:0EE88300E43583F583E493FF12E58D0D80D418
:01E891002264
:10DEF6009003A0E0FDA3E0FB7F5012DF1E9003A07D
:10DF0600E02408FDA3E0FB7F5012DF1E9003A0E093
:08DF16002410FDA3E0FB7F4D88
:04DF1E00AC07AA059D
:10DF220074E02CFCAF02AD0312E95AE4FEEEC39496
:10DF32000874809480502275F010ECA424DEF582DF
:10DF4200E5F0345BF583E5822EF582E43583F583D3
:10DF5200E493FF12E58D0E80D4AF02EB04FD12E9CB
:10DF62005A7E08EEC3941074809480502275F0108B
:10DF7200ECA424DEF582E5F0345BF583E5822EF530
:0FDF820082E43583F583E493FF12E58D0E80D49E
:01DF9100226D
:10E02C00900070E0FE246AF582E43403F583E0246A
:0CE03C0020FFEE75F008A4243CFD7B02E0
:04E04800AC07AA0572
:10E04C0074E02CFCAF02AD0312E95AE4FEEEC3946B
:10E05C000874809480502375F010ECA424DEF582B3
:10E06C00E5F0345BF583E5822EF582E43583F583A8
:10E07C00E493F4FF12E58D0E80D3AF02EB04FD1296
:10E08C00E95A7E08EEC3941074809480502375F086
:10E09C0010ECA424DEF582E5F0345BF583E5822EEA
:10E0AC00F582E43583F583E493F4FF12E58D0E805D
:01E0BC00D390
:01E0BD002240
:10D94A0090033EE0C4540FFF7D3C12D96090033E21
:06D95A00E0540FFF7D44C4
:04D96000AA07A90564
:10D96400EAD3940974809480407274172AFAAF0140
:10D97400AD0312E95AE4FCECC3940874809480501B
:10D984002275F010EAA424DEF582E5F0345BF58319
:10D99400E5822CF582E43583F583E493FF12E58D6B
:10D9A4000C80D4AF01EB04FD12E95A7C08ECC3945B
:10D9B4001074809480400302DA4F75F010EAA424B6
:10D9C400DEF582E5F0345BF583E5822CF582E435FF
:10D9D40083F583E493FF12E58D0C80D174102AFA49
:10D9E400AF01AD0312E95AE4FCECC39408748094CB
:10D9F40080502275F010EAA424DEF582E5F0345B51
:10DA0400F583E5822CF582E43583F583E493FF12F4
:10DA1400E58D0C80D4AF01EB04FD12E95A7C08ECCF
:10DA2400C3941074809480502275F010EAA424DE0C
:10DA3400F582E5F0345BF583E5822CF582E43583E9
:0BDA4400F583E493FF12E58D0C80D405
:01DA4F0022B4
:10E3F2009003A07BFF7A67794EE0FDA3E09003AB28
:01E40200F029
:02E40300AC0566
:10E40500AF049003ABE0FD12E95AE4FEEEC3940CB1
:10E4150074809480501112AA61FF12E58D74012950
:10E42500F9E43AFA0E80E5AF049003ABE004FD127F
:10E43500E95AE4FEEEC3940C74809480501112AA3C
:0FE4450061FF12E58D740129F9E43AFA0E80E5C2
:01E4540022A5
:10E38E00900293746AF0A304F0A37420F0A374882F
:08E39E00F0E4A3F07D027F28EA
:08E3A6009003A0EFF0A3EDF0DD
:10E3AE00A37401F0A37402F0A37493F09003A2E09F
:10E3BE00FBA3E0FAA3E0F912AA61602775F018A496
:10E3CE0024DEF9746135F0FA7BFF9003A012E3FBB3
:10E3DE009003A3E475F00112AB669003A0E0240C49
:03E3EE00F080C9F3
:01E3F1002209
:0DE6840035F0FA7B0174029003A6F07D0CC6
:10E691009003A2EBF0A3EAF0A3E9F0A3EDF090035D
:10E6A100A2E0FBA3E0FAA3E0F912AA61602775F0EA
:10E6B10018A424DEF9746135F0FA7BFF9003A512EA
:10E6C100E3FB9003A3E475F00112AB669003A5E0B0
:06E6D100240CF080C922B8
:10E779007BFFE49003A4F0A37480F0A37408F0E491
:01E78900FD92
:05E78A009003A3EDF077
:10E78F00E4FC9003A6E0FFECC39F502C9003A3E0A2
:10E79F00FFA3E02CFD12E95AE4FE9003A5E0FFEE83
:10E7AF00C39F501112AA61FF12E58D740129F9E47C
:08E7BF003AFA0E80E50C80CA55
:01E7C700222F
:04AD8100AB05A9076E
:10AD85009003A412AC82000000009003AC12AC82C8
:10AD9500000000009003A012AC8203E00000E975FA
:10ADA500F00584F9E4FAEAC399400302AE39900349
:10ADB500A0A3A3A3E05401FFEF9003A06043E0FC30
:10ADC500A3E0FDA3E0FEA3E0FF780112AC2390030E
:10ADD500A012AC769003A4E0FCA3E0FDA3E0FEA3E3
:10ADE500E0FF780112AC239003A412AC769003A483
:10ADF500E0FCA3E0FDA3E0FEA3E0FFEC4480FC80C3
:10AE050029E0FCA3E0FDA3E0FEA3E0FF780112AC7E
:10AE1500239003A012AC769003A4E0FCA3E0FDA36D
:10AE2500E0FEA3E0FF780112AC239003A412AC76F8
:10AE35000A02ADAB9003A4E0FCA3E0FDA3E0FEA3F2
:10AE4500E0FFEC4440FC9003A412AC76E970179047
:10AE550003A812AC82001000009003AC12AC820073
:10AE650000000002AF2BE9643270179003A812AC02
:10AE750082000000009003AC12AC820000010002C9
:10AE8500AF2B9003A812AC82020800009003AC120D
:10AE9500AC82000000007A01EAC399400302AF2B9F
:10AEA5009003A8A3A3A3E05401FFEF9003A8604378
:10AEB500E0FCA3E0FDA3E0FEA3E0FF780112AC23D4
:10AEC5009003A812AC769003ACE0FCA3E0FDA3E0F0
:10AED500FEA3E0FF780112AC239003AC12AC769090
:10AEE50003ACE0FCA3E0FDA3E0FEA3E0FFEC44809F
:10AEF500FC8029E0FCA3E0FDA3E0FEA3E0FF7801D0
:10AF050012AC239003A812AC769003ACE0FCA3E04E
:10AF1500FDA3E0FEA3E0FF780112AC239003AC1281
:10AF2500AC760A02AE9D9003ACE0FCA3E0FDA3E085
:10AF3500FEA3E0FFEC4440FC9003AC12AC76AF03FB
:10AF45007D0712E95A9003A0E0FCA3E0FDA3E0FE13
:10AF5500A3E0FF781812AC2312E5777F0312E5779B
:10AF65009003A0E0FCA3E0FDA3E0FEA3E0FF7818BA
:10AF750012AC2312E58DAF037D0612E95A9003A0AA
:10AF8500E0FCA3E0FDA3E0FEA3E0FF781012AC23F4
:10AF950012E58D781012E57C7FFF12E58D9003A8F0
:10AFA500E0FCA3E0FDA3E0FEA3E0FF781012AC23D4
:10AFB50012E58D9003A0E0FCA3E0FDA3E0FEA3E075
:10AFC500FF781012AC2312E58DAF037D0512E95A07
:10AFD5009003A0E0FCA3E0FDA3E0FEA3E0FF78085A
:10AFE50012AC2312E58D9003A8E0FCA3E0FDA3E0DD
:10AFF500FEA3E0FF780812AC2312E58D7FFF12E572
:10B005008D9003A8E0FCA3E0FDA3E0FEA3E0FF789C
:10B015000812AC2312E58D9003A0E0FCA3E0FDA38C
:10B02500E0FEA3E0FF780812AC2312E58DAF037DA7
:10B035000412E95A9003A0A3A3A3E0FF12E58D90A3
:10B0450003A8A3A3A3E0FF12E58D7FFF12E58D9072
:10B0550003A8A3A3A3E0FF12E58D9003A0A3A3A3D8
:10B06500E0FF12E58DAF031D12E95AA3E0FCA3E052
:10B07500FDA3E0FEA3E0FF781812AC2312E58D9046
:10B0850003ACE0FCA3E0FDA3E0FEA3E0FF7818120B
:10B09500AC2312E58D7FFF12E58D9003ACE0FCA398
:10B0A500E0FDA3E0FEA3E0FF781812AC2312E58DC6
:10B0B5009003A4E0FCA3E0FDA3E0FEA3E0FF781865
:10B0C50012AC2312E58DAF037D0212E95A9003A459
:10B0D500E0FCA3E0FDA3E0FEA3E0FF781012AC23A3
:10B0E50012E58D9003ACE0FCA3E0FDA3E0FEA3E038
:10B0F500FF781012AC2312E58D7FFF12E58D9003CA
:10B10500ACE0FCA3E0FDA3E0FEA3E0FF781012ACE9
:10B115002312E58D9003A4E0FCA3E0FDA3E0FEA3CC
:10B12500E0FF781012AC2312E58DAF037D0112E923
:10B135005A9003A4E0FCA3E0FDA3E0FEA3E0FF78A2
:10B145000812AC2312E58D9003ACE0FCA3E0FDA34F
:10B15500E0FEA3E0FF780812AC2312E58D7FFF1215
:10B16500E58D9003ACE0FCA3E0FDA3E0FEA3E0FFCA
:10B17500780812AC2312E58D9003A4E0FCA3E0FD52
:10B18500A3E0FEA3E0FF780812AC2312E58DAF0320
:10B19500E4FD12E95A9003A4A3A3A3E0FF12E58DF1
:10B1A5009003ACA3A3A3E0FF12E58D7FF812E58D14
:10B1B5009003ACA3A3A3E0FF12E58D9003A4A3A382
:06B1C500A3E0FF02E58D8E
:02DE5800AE0713
:10DE5A00EE75F005842402FEE4FDEDFB7A00C3941E
:10DE6A003774809480400302DEF5EB641B70047FF4
:10DE7A007C8071C3EE9DFFFB3395E0FAEB64034AA5
:10DE8A0070047F38805EEFFB3395E0FAEB64024A58
:10DE9A0070047F54804EEFFB3395E0FAEB64014A3D
:10DEAA0070047F54803EEFFB3395E04B70047F543F
:10DEBA008032EFFB3395E0FABAFF07BBFF047F54C9
:10DECA008022EFFB3395E0FABAFF07BBFE047F54CA
:10DEDA008012EFFB3395E0FABAFF07BBFD047F38E7
:0BDEEA0080027F1012E58D0D02DE6447
:01DEF500220A
:02D4BE00AB07BA
:10D4C0009003A012AC8200000000EB131313541F52
:10D4D000FBE4FAEAC39B50349003A0E0FCA3E0FD18
:10D4E000A3E0FEA3E0FF780112AC369003A012ACDB
:10D4F000769003A0E0FCA3E0FDA3E0FEA3E0FFEC38
:10D500004480FC9003A012AC760A80C79003A0E090
:10D51000FCA3E0FDA3E0FEA3E0FFE4FAF9F8EF24AA
:10D5200001FFEA3EFEE93DFDE83CFC9003A012ACA1
:10D53000767D067F0912E95A9003A0E0FCA3E0FD86
:10D54000A3E0FEA3E0FF781812AC3612E58D90033D
:10D55000A0E0FCA3E0FDA3E0FEA3E0FF781812AC7E
:10D560003612E58D7D057F0912E95A9003A0E0FC93
:10D57000A3E0FDA3E0FEA3E0FF781012AC3612E5B5
:10D580008D9003A0E0FCA3E0FDA3E0FEA3E0FF7804
:10D590001012AC3612E58D7D047F0912E95A900312
:10D5A000A0E0FCA3E0FDA3E0FEA3E0FF780812AC3E
:10D5B0003612E58D9003A0E0FCA3E0FDA3E0FEA3FE
:10D5C000E0FF780812AC3612E58D7D037F0912E981
:10D5D0005A9003A0A3A3A3E0FF12E58D9003A0A39C
:07D5E000A3A3E0FF02E58DAB
:06E1D100E4FB7D037F3436
:10E1D70012E95AEB60407F4012E58D7F6012E58DB2
:10E1E7007F5012E58D7F4812E58D7F4412E58D7FC4
:10E1F7004212E58D7F6D12E58D7F4212E58D7F44DA
:10E2070012E58D7F4812E58D7F5012E58D7F6012F4
:10E21700E58D7F408026E4FF12E58D12E58D12E53E
:10E227008D12E58D12E58D12E58D12E58D12E58DC6
:10E2370012E58D12E58D12E58D12E58D12E58D2221
:10CF5D003EF583E0FF7E0074259003A4F0E4FB7D95
:01CF6D00467D
:10CF6E009003A0EEF0A3EFF0A3EDF0A3EBF0A3E09F
:10CF7E00FF642D600AEF642F6005EF64237057D3B2
:10CF8E009003A1E094009003A0E064809480400E92
:10CF9E009003A2E024F8FDA3E0FB7F2B80359003E5
:10CFAE00A0E0FEA3E0FFC3EE648094805019C3E4BA
:10CFBE009FFFE49E9003A0F0A3EFF0A3E024F8FD02
:10CFCE00A3E0FB7F2D800C9003A2E024F8FDA3E0EC
:10CFDE00FB7F2012DF1E9003A0E0FEA3E0FFD394A0
:10CFEE0063EE6480948040137C007D6412AB30EF5E
:10CFFE002430FFA3E0FDA3E0FB800A9003A2E0FD36
:10D00E00A3E0FB7F2012DF1E9003A0E0FEA3E0FF53
:10D01E007C007D6412AB307E007F0ACFCDCFCECCAC
:10D02E00CE12AB30EF2430FFA3E02408FDA3E0FBCB
:10D03E0012DF1E9003A4E0FF642E6005EF642370E0
:10D04E003D9003A2E02410FDA3E0FB7F2E12DF1E15
:10D05E009003A0E0FEA3E0FF7C007D0A12AB30ED52
:10D06E002430FFA3E02418FDA3E0FB12DF1E900383
:10D07E00A4E0642370429003A2E024208031900348
:10D08E00A0E0FEA3E0FF7C007D0A12AB30ED243061
:10D09E00FFA3E02410FDA3E0FB12DF1E9003A4E02B
:10D0AE00FF64256004EFB42F0F9003A2E02418FD57
:09D0BE00A3E0FB7F2512DF1E2216
:07D71000E0FEA3E0FFE4FDD1
:10D717009003A0EDF0AB07AA06D3EB94E7EA648089
:10D7270094834073E070077F3112E861800F7C00BB
:10D737007D0AAF03AE0212AB30AA06AB077C037DAE
:10D74700E8AF03AE0212AB307E007F64CFCDCFCE01
:10D75700CCCE12AB30EF2430FF12E8617C007D6441
:10D76700AF03AE0212AB307E007F0ACFCDCFCECC57
:10D77700CE12AB30EF2430FF12E8619003A0E0B483
:10D787002E0AE4FF12E58D7F4012E58D7C007D0AAD
:10D79700AF03AE0202D82A9003A0E0FC70028027F4
:10D7A700EC642D7027D3EB9400EA648094804004E6
:10D7B7007F2B8015C3EA64809480500BC3E49BFBE6
:10D7C700E49AFA7F2D80027F2012E8617C037DE8CE
:10D7D700AF03AE0212AB307E007F64CFCDCFCECC8D
:10D7E700CE12AB30EF2430FF12E8619003A0E0B413
:10D7F7002E0AE4FF12E58D7F4012E58D7C007D64E3
:10D80700AF03AE0212AB307E007F0ACFCDCFCECCB6
:10D81700CE12AB30EF2430FF12E861AE02AF037CCB
:0ED82700007D0A12AB30ED2430FF12E86122C2
:07E4550090027FE0FF7D0350
:10E45C009003A1EDF09003A0EFF09002AFE06F609D
:10E46C000312E9FE9003A0E09002AFF0304F1BC204
:10E47C004FD394007480948040089003A0E014F073
:10E48C0080089003A1E09003A0F0302C19C22C90CE
:10E49C0003A1E0FF9003A0E0C39F5005E004F080CF
:0CE4AC0005E49003A0F09003A0E0FF2224
:10CB0600E4F9C25EE9C39407748094805041746A64
:10CB160029F582E43403F583E02420FFE975F00863
:10CB2600A42446FD7B0312DF1E746A29F582E434D1
:10CB360003F583E0FF7E00D3940074809480400C5C
:10CB4600D3EF945A748094805002D25E0980B53037
:05CB56005E0302CC8229
:10CB5B009003A0E4F0A37446F09002DCE0FFC394D2
:10CB6B000A748094805015EF75F018A42476F9742C
:10CB7B006935F0FA7BFF9003A002CC1C9002DCE03D
:10CB8B00C39413748094809003A0503EE4F0A3747C
:10CB9B0040F07BFF7A6A794E9003A0A3E0FD9003EF
:10CBAB00AB7403F012E4039003A1E0240CF09003A8
:10CBBB00A0E03400F09002DCE075F018A42486F9B4
:10CBCB00746835F0FA9003A08047E4F0A37440F04A
:10CBDB009002DCE02401FFE433FE7C007D0A12AA04
:10CBEB00DBEF75F018A4245EF9746935F0FA7BFF5E
:10CBFB009003A0A3E0FD9003AB7403F012E4039049
:10CC0B0003A1E0240CF09003A0E03400F07A6A79E1
:10CC1B004EA3E0FD9003AB7403F012E4039003A169
:10CC2B00E0240CF09003A0E03400F07A68793EA386
:10CC3B00E0FD9003AB7403F012E4039003A1E02436
:10CC4B000CF09003A0E03400F07A62799EA3E0FD33
:10CC5B009003AB7403F012E4039003A1E0240CF0F7
:10CC6B009003A0E03400F07A7079C6A3E0FD900346
:07CC7B00AB7403F012E403A7
:01CC8200228F
:10B80E0090027FEFF09000AF745EF0A304F0A3748B
:10B81E0051F0E4A3F09000B5745EF0A304F0A374AD
:10B82E0052F0E4A3F09000BB745EF0A304F0A37496
:10B83E0053F0E4A3F09000C1745EF0A304F0A3747F
:10B84E0054F0E4A3F09000C7745EF0A304F0A37468
:10B85E0055F0E4A3F09000CD745EF0A304F0A37451
:10B86E0056F0E4A3F09000D3745EF0A304F0A3743A
:10B87E0057F0E4A3F0745E9000D9F0A304F0A37423
:07B88E0058F0E4A3F07D0770
:10B895009003A0EFF0A3EDF0C3940474809480505E
:10B8A5000B7BFF7A6179F69003A080139003A0E0EB
:10B8B500C3940374809480500E7BFF7A6179F6E01F
:10B8C500FF2F9003AB801B9003A1E0FF9003A0E046
:10B8D5007BFF7A6179F69003ABB5070474068002A5
:10B8E5007404F0E4FD12E4039003A0E0C394037430
:10B8F500809480504CA3E064027B017A0079AF709C
:10B905001A12E68B7B017A0079B512E6897B017AFA
:10B915000079BB9003A6740402BA11E412E68B7B8E
:10B92500017A0079B512E6897B017A0079BB740446
:10B9350012E68B7B017A0079C19003A6740602BAE0
:10B94500119003A1E0FF9003A0E0FE6F7059EE7522
:10B95500F006A4249DF9740035F0FA7B01E412E6A3
:10B965008B9003A0E075F006A424A3F9740012E6F9
:10B97500849003A0E075F006A424A9F9740035F0BD
:10B98500FA7B019003A67404F07D0C12E6919003F6
:10B99500A0E075F006A424AFF9740035F0FA7B0138
:10B9A5009003A6740680659003A1E0FF9003A0E0D4
:10B9B500FEC39F505DEE75F006A424A3F97400350F
:10B9C500F0FA7B01E412E68B9003A0E075F006A483
:10B9D50024A9F9740012E6849003A0E075F006A48A
:10B9E50024AFF9740035F0FA7B019003A67404F0D6
:10B9F5007D0C12E6919003A0E075F006A424B5F93C
:10BA0500740035F0FA7B019003A67406F07D0C12E4
:10BA1500E6919003A1E0C394097480948040427D2F
:10BA2500077F6112E95A9003A0E0C39409748094DA
:10BA350080400D7F3112E8619003A0E02427800B40
:10BA45007F2012E8619003A0E02431FF12E8617FB6
:10BA55002F12E8617F3112E8619003A1E02427806D
:10BA65001C7D077F6D12E95A9003A0E02431FF1277
:10BA7500E8617F2F12E8619003A1E02431FF12E80D
:02BA850061223C
:06BA87007B02E0FF7D4898
:10BA8D009003A0EDF0A3EBF0EFB41500400302BC62
:10BA9D00D490BAA5F828287302BAE402BAF702BB0B
:10BAAD000902BB1C02BB3802BB4B02BB6702BB8346
:10BABD0002BBA202BBC102BBE002BBFF02BC1E0265
:10BACD00BC4602BC5802BC6A02BC7C02BC8E02BCE5
:10BADD00A002BCB102BCC27BFF7A6A79DE9003A0E2
:10BAED0012E3FB7A6A79F602BC2E7BFF7A6A79DE65
:10BAFD009003A012E3FB7A6A79F680527BFF7A6A93
:10BB0D0079DE9003A012E3FB7A6A79F602BB777BAC
:10BB1D00FF7A6A79DE9003A012E3FB7A6A79F690D8
:10BB2D0003A0E0240C12E3FC02BC7F7BFF7A6B794F
:10BB3D003E9003A012E3FB7A6B795602BC2E7BFF7D
:10BB4D007A6B793E9003A012E3FB7A6B79569003E2
:10BB5D00A0E0240C12E3FC02BC5B7BFF7A6B793E08
:10BB6D009003A012E3FB7A6B79569003A0E0240CAE
:10BB7D0012E3FC02BC6D12E3F27A6779669003A0C2
:10BB8D00E0240C12E3FC9003A0E02418FDA3E0FBDD
:10BB9D007F4102BCD112E3F27A6779669003A0E08F
:10BBAD00240C12E3FC9003A0E02418FDA3E0FB7F1E
:10BBBD004202BCD112E3F27A6779669003A0E024C9
:10BBCD000C12E3FC9003A0E02418FDA3E0FB7F43DF
:10BBDD0002BCD112E3F27A6779669003A0E0240CDF
:10BBED0012E3FC9003A0E02418FDA3E0FB7F4402C8
:10BBFD00BCD112E3F27A6779669003A0E0240C12AF
:10BC0D00E3FC9003A0E02418FDA3E0FB7F4502BCFC
:10BC1D00D17BFF7A6B799E9003A012E3FB7A6B794F
:10BC2D00B69003A0E0240C12E3FC9003A0E02418CE
:10BC3D00FDA3E0FB7F3102BCD112DEF69003A0E044
:10BC4D002418FDA3E0FB7F3102BCD112DEF6900378
:10BC5D00A0E02418FDA3E0FB7F3202BCD112DEF67A
:10BC6D009003A0E02418FDA3E0FB7F3302BCD112AA
:10BC7D00DEF69003A0E02418FDA3E0FB7F3402BCA8
:10BC8D00D112DEF69003A0E02418FDA3E0FB7F3572
:10BC9D0002BCD112DEF69003A0E02418FDA3E0FB58
:10BCAD007F36802012DEF69003A0E02418FDA3E07D
:10BCBD00FB7F37800F12DEF69003A0E02418FDA362
:08BCCD00E0FB7F3812DF1E22AC
:06DCED007B02E0FF7D4810
:10DCF3009003A0EDF0A3EBF0EF1460251460421441
:10DD0300605A14700302DD892404600302DDB47BCE
:10DD1300FF7A65793E9003A012E3FB7A657956801A
:10DD2300107BFF7A7279469003A012E3FB7A727933
:10DD3300BE9003A0E0240CFDA3E09003ABF002E44B
:10DD4300039003A0E0FDA3E0FB7F5012DF1E9003CE
:10DD5300A0E02408FDA3E0FB7F5780199003A0E017
:10DD6300FDA3E0FB7F5012DF1E9003A0E02408FD1B
:10DD7300A3E0FB7F5012DF1E9003A0E02410FDA35D
:10DD8300E0FB7F4D80289003A0E0FDA3E0FB7F53E1
:10DD930012DF1E9003A0E02408FDA3E0FB7F2E12F8
:10DDA300DF1E9003A0E02410FDA3E0FB7F4212DFFF
:02DDB3001E222E
:07D39400900330E0FF7D3C37
:10D39B009003A0EDF0A3EBF0EF146056146075143E
:10D3AB00700302D44714700302D46E14700302D4BA
:10D3BB00952405600302D4BD9003A0E0FDA3E0FB20
:10D3CB007F2012DF1E9003A0E02404FDA3E0FB7F6F
:10D3DB002D12DF1E7BFF7A6279CE9003A0E0240C26
:10D3EB0012E3FC9003A0E02418FDA3E0FB7F2D02C9
:10D3FB00D4BA9003A012E3F57A6779669003A0E0A4
:10D40B00240C12E3FC9003A0E02418FDA3E0FB7FA7
:10D41B004102D4BA7BFF7A67794E9003A012E3FBEB
:10D42B007A6779669003A0E0240C12E3FC9003A0CA
:10D43B00E02418FDA3E0FB7F4202D4BA7BFF7A679E
:10D44B00794E9003A012E3FB7A6779669003A0E014
:10D45B00240C12E3FC9003A0E02418FDA3E0FB7F57
:10D46B0043804C7BFF7A67794E9003A012E3FB7AE3
:10D47B006779669003A0E0240C12E3FC9003A0E014
:10D48B002418FDA3E0FB7F4480257BFF7A67794E50
:10D49B009003A012E3FB7A6779669003A0E0240C5B
:10D4AB0012E3FC9003A0E02418FDA3E0FB7F4512E0
:03D4BB00DF1E224F
:0BDA50009003A0EBF0A3EAF0A3E9F0C4
:10DA5B00E4A3F09003A3E0FDC3940874809480408A
:10DA6B000302DB517F1412E95A7F3E12E58D7F4191
:10DA7B0012E58DE4A3F09003A4E0FF7E00C394674E
:10DA8B0074809480400302DB34EF640870028013CF
:10DA9B009003A4E0FD7C00643370028006ED645EAD
:10DAAB004C70047F7F80769003A4E0D39433748012
:10DABB009480402F9003A0E0FBA3E0FAA3E0F912BF
:10DACB00AB7CFFAEF07C007D0A12AB309003A4E080
:10DADB00D39FEE6480F874809840047F41803E7F32
:10DAEB005D803A9003A4E0C39433748094805030EB
:10DAFB009003A0E0FBA3E0FAA3E0F912AB7CFFAE2E
:10DB0B00F07C007D0A12AB309003A4E0D39FEE644F
:10DB1B0080F874809840047F5D80027F4112E58D10
:10DB2B009003A4E004F002DA817F4112E58D7F3E81
:10DB3B0012E58D9003A1E475F00212AB669003A37E
:06DB4B00E004F002DA5EC6
:01DB510022B1
:07BEFB009003A2EBF0AC077D
:10BF0200E4FBA3F0A3F0F9A3F0A3F0A3F0FAEDC3CE
:10BF120094087480948050107B80A805EB088002FE
:10BF2200C313D8FCFB02C01CEDC394107480948030
:10BF3200501C9003A37480F0E0FFED24F8FEF8EFAC
:10BF4200088002C313D8FC9003A3F002C01CEDC307
:10BF5200941874809480501C9003A47480F0E0FFC5
:10BF6200ED24F0FEF8EF088002C313D8FC9003A47E
:10BF7200F002C01CEDC39420748094805013798029
:10BF8200ED24E8FFF8E9088002C313D8FCF902C0E7
:10BF92001CEDC3942874809480501B9003A5748078
:10BFA200F0E0FFED24E0FEF8EF088002C313D8FCB6
:10BFB2009003A5F08064EDC3943074809480501B8C
:10BFC2009003A67480F0E0FFED24D8FEF8EF08801D
:10BFD20002C313D8FC9003A6F0803FEDC3943874DB
:10BFE200809480501B9003A77480F0E0FFED24D072
:10BFF200FEF8EF088002C313D8FC9003A7F0801A62
:10C00200EDC394407480948050107A80ED24C8FF70
:10C01200F8EA088002C313D8FCFA9003A2E0B50440
:10C02200117B3FA374FFF0A3F0F9A3F0A3F0A3F0F8
:10C032007AF8ECC39403748094805002800AECD3A3
:10C04200942F748094804008EB4480FBEA4402FA07
:10C05200E94401F9EC7043FD7F4912E95A7F1E124F
:10C06200E58D7F0212E58D7D077F4912E95A7FF047
:10C0720012E58D7F8012E58DE4FD7F7E12E95A7F05
:10C082000212E58D7F1E12E58D7D077F7E12E95A31
:10C092007F8012E58D7FF012E58DEC244BFFE4FDED
:10C0A20012E95AAF0212E9529003A712E950900323
:10C0B200A612E9509003A512E950AF0112E952907D
:10C0C20003A412E9509003A312E950AF0302E58DD5
:10E51B007B197D1F7F1912BEFBE49003A0F09003C3
:10E52B00A0E0C39419748094805040E0FE241AFF3D
:10E53B0074742EF582E43400F583E0241FFD7B19FF
:10E54B0012BEFB9003A0E0FEC374189EFF74742EE2
:10E55B00F582E43400F583E0FEC3741F9EFD7B1946
:0BE56B0012BEFB9003A0E004F080B3A0
:01E576002282
:10E14A009002E5E0FF7E0070049003A1F0EF640105
:10E15A004E70069003A17408F0EF64024E700690A8
:10E16A0003A17410F0EF64034E70069003A17419B2
:10E17A00F0EF64044E70069003A17422F0EF640578
:10E18A004E70069003A1742AF0EF64064E70069052
:10E19A0003A17432F0E49003A0F09003A0E0C394CA
:10E1AA003374809480501FE0FF2474F582E43400B5
:10E1BA00F583E02406FD9003A1E0FB12BEFB900369
:06E1CA00A0E004F080D487
:01E1D000222C
:10E91100E4FFEFC3940874809480503212AB7CD32F
:10E9210094FFE5F0648094834008740375F0FF124E
:10E93100ABA712AB7CC3E5F0648094805006E4F58C
:0EE94100F012ABA7740229F9E43AFA0F80C471
:01E94F0022A5
:06E7280090038712AC769D
:10E72E00900387E0FCA3E0FDA3E0FEA3E0FF12A9A7
:10E73E005790038BEFF0FCE412A923A804A905AAB5
:10E74E0006AB07900387E0FCA3E0FDA3E0FEA3E089
:10E75E00FF12A5F4E4FBFAF9783F12A88F50069049
:0AE76E00038BE004F090038BE0FF42
:01E77800227E
:06C96F0090038212AC7679
:10C97500E4FFFEFDFC900382E0F8A3E0F9A3E0FAF2
:10C98500A3E0FB12A88F500302CA29E4FBFA79C879
:10C995007842900382E0FCA3E0FDA3E0FEA3E0FF64
:10C9A50012A7F2E4FBFA7980783F12A5F89003828A
:10C9B50012AC769003867401F0900386E0FCC39474
:10C9C5001A74809480400302CB05E412A9237B0AE4
:10C9D5007AD77923783D12A6E9C004C005C006C000
:10C9E50007900382E0FCA3E0FDA3E0FEA3E0FF9037
:10C9F500038D12AC76D007D006D005D00412D22E06
:10CA0500E4FBFA79C8784112A6E912E72890038673
:10CA1500E02473F582E43400F583EFF0900386E0BB
:10CA250004F08095E4FFFEFDFC900382E0F8A3E0AE
:10CA3500F9A3E0FAA3E0FB12A88F400302CB05900F
:10CA45000382E0FCA3E0FDA3E0FEA3E0FF12A9083A
:10CA5500E4FBFA79C8784212A7F2E4FBFA79807808
:10CA65003F12A5F890038212AC769003867401F00C
:10CA7500900386E0FCC3941A74809480400302CB33
:10CA850005E412A9237B0A7AD77923783D12A6E912
:10CA9500A804A905AA06AB07E4FFFE7D807C3F122A
:10CAA500A5F4C004C005C006C007900382E0FCA33E
:10CAB500E0FDA3E0FEA3E0FF90038D12AC76D00766
:10CAC500D006D005D00412D22EE4FBFA79C87841FD
:10CAD50012A6E9A804A905AA06AB07E4FFFE7DC8CE
:10CAE5007C4112A5F412E728900386E02473F582B1
:10CAF500E43400F583EFF0900386E004F002CA7594
:01CB0500220D
:10CDF100E4FBFA9002DBE075F007A42416F582E467
:10CE01003400F583E5822BF582E5833AF583E0C3AF
:10CE110013FF74A02BF58274033AF583EFF00BBB7B
:10CE210000010AEB64074A70CAE4FAFBC3EB9408F9
:10CE3100EA6480948050229003A0E0FFA3E0C39FA6
:10CE4100FFE49400FEAD03AC0212AAC97C007D0888
:10CE510012AB309003A002CF3FC3EB9410EA648081
:10CE6100948050269003A1E0FFA3E0C39FFFE494C8
:10CE710000FEEB24F8FDEA34FFFC12AAC97C007D18
:10CE81000812AB309003A102CF3FC3EB9419EA64BF
:10CE910080948050269003A2E0FFA3E0C39FFFE4AB
:10CEA1009400FEEB24F0FDEA34FFFC12AAC97C00D9
:10CEB1007D0912AB309003A202CF3FC3EB9422EA6B
:10CEC1006480948050259003A3E0FFA3E0C39FFFFB
:10CED100E49400FEEB24E7FDEA34FFFC12AAC97CCE
:10CEE100007D0912AB309003A38053C3EB942AEA6F
:10CEF1006480948050259003A4E0FFA3E0C39FFFCA
:10CF0100E49400FEEB24DEFDEA34FFFC12AAC97CA6
:10CF1100007D0812AB309003A480239003A5E0FFAD
:10CF2100A3E0C39FFFE49400FEEB24D6FDEA34FFA7
:10CF3100FC12AAC97C007D0812AB309003A5E02F3A
:10CF4100FF74742BF58274003AF583EFF00BBB008C
:0BCF5100010AEB64334A600302CE2D9E
:01CF5C0022B2
:05DDB500900382EFF075
:10DDBA00ED601AE0FF24A7F582E43400F583E090D1
:10DDCA000383F074AB2FF582E43400801B90038246
:10DDDA00E0FF2443F582E43400F583E0900383F006
:10DDEA00744B2FF582E43400F583E0900384F090BD
:10DDFA000382E025E0245DF8E6FE08E6FFD39400FE
:10DE0A00EE64809480400FAB07AA06EA3395E0F9E6
:10DE1A00F89003848017900382E025E0245DF8E6F9
:10DE2A00FE08E6FBAA06EA3395E0F9F8A3E0FFE468
:10DE3A00FCFDFE12ABC6E47B64FAF9F812E80C901A
:0DDE4A000382E025E0245DF8A60608A60787
:01DE570022A8
:0CE2B80012E2C40F12E2C40F12E2C40F05
:10E2C40074C92FF582E43402F583E064017034EFFD
:10E2D40025E0245DF8E6FC08E6FDC3E49DFDE49C2E
:10E2E400FC74DD2FF582E43402F583E0FB3395E022
:10E2F400FAED2BFDEC3AFCEF25E0245DF8A60408CA
:10E30400A6052274DD2FF582E43402F583E0FD33A3
:10E3140095E0FCEF25E0245DF808ED26F618EC36D0
:02E32400F622DF
:03E4B800FFE0FD85
:04E4BB00AB05AA07FC
:10E4BF00EB25E0245DF8E6FE08E6FFEA25E0245DA3
:10E4CF00F8E6FC08E6FD2FFFEC3E900382F0A3EF89
:10E4DF00F0EB25E0245DF8E6FE08E6FFC3ED9FFFB5
:10E4EF00EC9EA3F0A3EFF0900382E0FEA3E0FFEA1F
:10E4FF0025E0245DF8A60608A607A3E0FEA3E0FF2B
:0BE50F00EB25E0245DF8A60608A60737
:01E51A0022DE
:05BCD500900382EFF076
:10BCDA0064027003E004F0900382E02413F582E426
:10BCEA003400F583E0FCFF3395E0FED3EF9400EED9
:10BCFA0064809480500302BDD3EC12A923E4FBFABA
:10BD0A0079C8784212A7F2E4FBFA7980783F12A543
:10BD1A00F890038312AC76900382E025E0245DF864
:10BD2A00E6FE08E6FF900387EEF0A3EFF0C3EE64A9
:10BD3A008094805015900387E0FEA3E0FFC3E49F40
:10BD4A00FFE49E900387F0A3EFF0900387E0FCA343
:10BD5A00E0FDEC12A91E7BD67AD67919783B12A699
:10BD6A00E9C004C005C006C007900383E0FCA3E055
:10BD7A00FDA3E0FEA3E0FF90038D12AC76D007D0BE
:10BD8A0006D005D00412D22EE4FBFA79D5784312F4
:10BD9A00A6E912A957900387EEF0A3EFF090038269
:10BDAA00E0FF25E0245DF8E6FCC3EC648094805053
:10BDBA0015900387E0FCA3E0FDC3E49DFDE49C909D
:10BDCA000387F0A3EDF002BEE7900382E02413F5A7
:10BDDA0082E43400F583E0FF3395E0FEC364809487
:10BDEA0080400302BEFAC3E49FFDE49EFC12A91E32
:10BDFA00E4FBFA79C8784212A7F2E4FBFA79807870
:10BE0A003F12A5F890038312AC76900382E025E0F6
:10BE1A00245DF8E6FE08E6FF900387EEF0A3EFF054
:10BE2A00C3EE648094805015900387E0FEA3E0FF80
:10BE3A00C3E49FFFE49E900387F0A3EFF09003878B
:10BE4A00E0FCA3E0FDEC12A91E7BD67AD67919781C
:10BE5A003B12A6E9A804A905AA06AB07E4FFFE7DE2
:10BE6A00807C3F12A5F4C004C005C006C007900339
:10BE7A0083E0FCA3E0FDA3E0FEA3E0FF90038D12A4
:10BE8A00AC76D007D006D005D00412D22EE4FBFA45
:10BE9A0079D5784312A6E9A804A905AA06AB07E44E
:10BEAA00FFFE7DD57C4312A5F412A957900387EEB5
:10BEBA00F0A3EFF0900382E0FF25E0245DF8E6FCB2
:10BECA00C3EC648094805015900387E0FCA3E0FDE6
:10BEDA00C3E49DFDE49C900387F0A3EDF0900387F3
:10BEEA00E0FCA3E0FDEF25E0245DF8A60408A60522
:01BEFA002225
:05B58200900382EFF0D0
:10B58700E4FBEBC3940774809480503E900382E001
:10B5970075F007A42416F582E43400F583E5822BC1
:10B5A700F582E43583F583E075F011A4FFAEF07CF6
:10B5B700007D0212AB30EB25E02485F582E43403ED
:10B5C700F583EEF0A3EFF00B80B8900382E0FF70F5
:10B5D70012E56224AA900384F0E5613401900383A5
:10B5E700F08017EF25E02463F8E6FE08E624AAFFBB
:10B5F700EE3401900383F0A3EFF0C3900384E0944B
:10B6070088900383E09400503F900385E0FEA3E019
:10B61700FFC3900388E09FFF900387E09EAB07FA84
:10B627003395E0F9F8900383E0FEA3E0FFE4FCFD27
:10B6370012ABC6E47B88FAF9F812E80C900386E0AF
:10B647002FFF90038502B7CC900383E0FEA3E0FFB2
:10B65700C39410EE9401503FEF2478FFEE34FFAB14
:10B6670007FAE4F9F8900387E0FEA3E0FFC390032D
:10B677008AE09FFF900389E09EFE3395E0FDFC1270
:10B68700ABC6E47B88FAF9F812E80C900388E02F40
:10B69700FF90038702B7CC900383E0FEA3E0FFC3CC
:10B6A70094AAEE9401503FEF24F0FFEE34FEAB076F
:10B6B700FAE4F9F8900389E0FEA3E0FFC390038C56
:10B6C700E09FFF90038BE09EFE3395E0FDFC12ABFD
:10B6D700C6E47B9AFAF9F812E80C90038AE02FFF88
:10B6E70090038902B7CC900383E0FEA3E0FFC394E5
:10B6F70044EE9402503FEF2456FFEE34FEAB07FAB8
:10B70700E4F9F890038BE0FEA3E0FFC390038EE01B
:10B717009FFF90038DE09EFE3395E0FDFC12ABC6C4
:10B72700E47B9AFAF9F812E80C90038CE02FFF906B
:10B73700038B02B7CC900383E0FEA3E0FFC394CC56
:10B74700EE9402503EEF24BCFFEE34FDAB07FAE463
:10B75700F9F890038DE0FEA3E0FFC3900390E09F0C
:10B76700FF90038FE09EFE3395E0FDFC12ABC6E42D
:10B777007B88FAF9F812E80C90038EE02FFF90030C
:10B787008D8042900384E02434FF900383E034FDEE
:10B79700AB07FAE4F9F890038FE0FEA3E0FFC3904C
:10B7A7000392E09FFF900391E09EFE3395E0FDFC3E
:10B7B70012ABC6E47B88FAF9F812E80C900390E024
:10B7C7002FFF90038FE03E900383F0A3EFF09003E9
:10B7D70082E0FF7018A3E0FCA3E0FD90037CECF08F
:10B7E700A3EDF02456F562EC34FEF5612290038454
:10B7F700E02456FD900383E034FEFCEF25E024634C
:06B80700F8A60408A605E6
:01B80D002218
:10C62900AB07740B2BF582E43403F583E0B41500F2
:10C63900400302C7CF90C645F828287302C6840272
:10C64900C68902C68E02C69302C69D02C6A302C649
:10C65900A902C6C002C6D502C6EC02C70302C71AA0
:10C6690002C74E02C75B02C76802C77502C78202CA
:10C67900C78F02C79C02C7A902C7B690003B800DAD
:10C6890090003D800890003F8003900041E0FEA3A8
:10C69900E0FF8010AE2FAF30800AAE31AF32800498
:10C6A900AE33AF347C007D0512AAC90D12AADBEFA7
:10C6B9002456FFEE02C7C1900056E0FF7E006401D8
:10C6C90070028058EF64024E706F8062900057E0EC
:10C6D900FF7E00640170028043EF64024E700280A5
:10C6E9004D805690005AE0FF7E0064017002802C54
:10C6F900EF64024E70028036803F90005DE0FF7E5D
:10C7090000640170028015EF64024E7002801F8080
:10C719002890005EE0FF7E006401700CEB25E024A8
:10C729005DF876FE08765622EF64024E700BEB2513
:10C73900E0245DF8E4F608F622EB25E0245DF876BE
:10C74900010876AA2290027DE02456FF90027CE03F
:10C759008066900316E02456FF900315E0805990F7
:10C769000318E02456FF900317E0804C90031AE069
:10C779002456FF900319E0803F90031CE02456FFE4
:10C7890090031BE0803290031EE02456FF90031DA6
:10C79900E08025900320E02456FF90031FE08018D5
:10C7A900900322E02456FF900321E0800B9003249C
:10C7B900E02456FF900323E034FEFEEB25E0245DE0
:07C7C900F8A60608A60722EE
:10D0C700ED607674C92FF582E43402F583E070379A
:10D0D70074DD2FF582E43402F583E0FEFD3395E03D
:10D0E700FCC3ED947DEC64809480400302D207304A
:10D0F7002F0302D1CAEE75F00512AA3FAEF0EE601B
:10D107000302D1E502D1F974DD2FF582E43402F58B
:10D1170083E0FEFD3395E0FCD3ED9483EC648094CB
:10D127007F500302D207302F02803DEE75F00512C3
:10D13700AA3FAEF0EE605D804B74C92FF582E434F0
:10D1470002F583E0705E74DD2FF582E43402F58327
:10D15700E0FEFD3395E0FCD3ED9483EC6480947F8F
:10D16700500302D207302F1074DD2FF582E434020A
:10D17700F583E014F002D207EE75F00512AA3FAE70
:10D18700F0EE601074DD2FF582E43402F583E0C31E
:10D197009EF0806C74DD2FF582E43402F583E02481
:10D1A700FBF0805C74DD2FF582E43402F583E0FE4A
:10D1B700FD3395E0FCC3ED947DEC64809480504092
:10D1C700302F0F74DD2FF582E43402F583E004F08D
:10D1D700802EEE75F00512AA3FAEF0EE6014C37410
:10D1E700059EFE74DD2FF582E43402F583E02EF010
:10D1F700800E74DD2FF582E43402F583E02405F018
:10D2070074DD2FF582E43402F583E0FD3395E0FC0D
:10D21700ED4C700690035D7402F090006CEFF0D255
:07D2270045E4900068F022CD
:09E8920090006EE0FDAF46AE45BA
:10E89B00AB05E42FFFEE34FEFE7C007D3312AAC9DC
:10E8AB00AD0312AB30E42FFFEE3402FED3EF94FF37
:10E8BB00EE6480948340047E037FFFC3EE648094F8
:07E8CB00805003E4FEFF2270
:10E7C800900382EFF07022AE2DAF2EFCFD7B09FA8C
:10E7D800F9F812ABC6E47B0AFAF9F812E80CE53E40
:10E7E8002FF52EE53D3EF52D22900382E0FF25E032
:10E7F800243DF8E6FC08E6FDEF25E0242DF8A60404
:04E8080008A6052237
:05EA3400900341E0FF2A
:10EA3900EF24FE601314601614601914601C24047A
:10EA4900701D900056E0FF22900057E0FF229000D1
:10EA59005AE0FF2290005DE0FF2290005EE0FF2275
:10EB9000438780759850438E04759CF3438E0143E0
:03EBA0008E1022B2
:10E3260075BC80759DFFC2A575BB707596207589F5
:10E336001175880475DA499002C4E024B8F0900299
:10E34600C3E0340BF0E0FEA3E0F5EAEEF5FAE024D4
:10E35600B8F09002C3E0340BF09002C8E02420F03D
:10E366009002C7E0344EF0E0FEA3E0F5EBEEF5FBDD
:10E37600E024B8F09002C7E0340BF075B88075B7AA
:08E386000C75D84075A8822235
:10003E0012EB6112E32612C0D2129E0212E247A206
:10004E004392A512EB9012000320C7327FB87E0BAD
:10005E0012EB6520C72875C78212EB45E4F5C7126F
:10006E00E38E900293748AF0A304F0A304F0A374B9
:10007E0039F0E4A3F07D047F2812E3A680FE20254C
:10008E00030202FA9002937482F0A37451F0A374E7
:10009E0083F0A3743AF0A37484F0E4A3F0FD7F1E02
:1000AE0012E3A6900293748DF0A304F0A37412F0E1
:1000BE00A3740DF0E4A3F07D02FF12E3A690029369
:1000CE007495F0A304F0A37489F0A3746DF0E4A307
:1000DE00F07D027F4012E3A6D3E54694FEE54594FB
:1000EE0001406C7BFF7A6179F69003AB7404F0E407
:1000FE00FD12E4037B047D0C7F3112DF1E7D147F25
:10010E003212DF1E7D1C7F4C12DF1E7D247F4512B6
:10011E00DF1E7BFF7A62790E9003AB7406F0E4FD6E
:10012E0012E4037B067D0C7F3112DF1E7D147F32BD
:10013E0012DF1E7D1C7F4312DF1E7D247F2012DF07
:10014E001E20C7769003007401F020C77780FB7BDA
:10015E00FF7A62790E9003AB7404F0E4FD12E403AF
:10016E007B047D0C7F3112DF1E7D147F3212DF1E69
:10017E007D1C7F4C12DF1E7D247F4512DF1E7BFF10
:10018E007A6179F69003AB7406F0E4FD12E4037B1A
:10019E00067D0C7F3112DF1E7D147F3212DF1E7D35
:1001AE001C7F4312DF1E7D247F2012DF1E20C70A14
:1001BE00E4900300F020C70C80FB7F647E0012EBFE
:1001CE0065020092900371E0FF7E00D3947D7480EF
:1001DE009480400CEF24FBFFEE34FFC313EF13F0BB
:1001EE00900372E0FF7E00D3947D74809480400C67
:1001FE00EF24FBFFEE34FFC313EF13F0900373E015
:10020E00FF7E00D3947D74809480400CEF24FBFF1E
:10021E00EE34FFC313EF13F0900374E0FF7E00D3B0
:10022E00947D74809480400CEF24FBFFEE34FFC36A
:10023E0013EF13F0900375E0FF7E00D3947D74806E
:10024E009480400CEF24FBFFEE34FFC313EF13F04A
:10025E0012C7D0900293749DF0A37484F0A3740C13
:10026E00F0A304F0A37434F0A304F0E4A3F07D042F
:10027E00FF12E3A67FF47E0112EB657BFF7A6179B4
:10028E00F69003AB7406F0E4FD12E40312EB617A10
:10029E006179F69003AB7406F07D0C12E40312EB59
:1002AE00617A6179F69003AB7406F07D1812E4035F
:1002BE0012EB617A6179F69003AB7406F07D24122D
:1002CE00E40312EB617A6179F69003AB7406F07D6C
:1002DE003012E40312EB617A6179F69003AB740687
:1002EE00F07D3C12E40312EB610203962030030210
:1002FE0003967F647E0012EB6512E89290003FEE4B
:10030E00F0A3EFF0D39450EE9400407C90005FE0A9
:10031E00701B7BFF7A88796E9003A47402F0A3742D
:10032E0032F0A37404F07D2812E78A801A900293AB
:10033E00748DF0A304F0A374B9F0A304F0E4A3F059
:10034E007D047F2612E3A69002937493F0A304F02B
:10035E00A304F0A304F0A304F0A37434F0A37499DF
:10036E00F0E4A3F07D067F1412E3A67F647E0012F4
:10037E00EB6530C71312E89290003FEEF0A3EFF05A
:10038E00C39450EE9400508412DC2512EAFF9003C1
:10039E0069E060797A7979EE12E779900369E03055
:1003AE00E0187D057F2712E95A7F8512E8617D05E9
:1003BE007F6A12E95A7F8512E861900369E030E1A5
:1003CE000C7D057F5312E95A7F8512E8619003690F
:1003DE00E030E20C7D057F1D12E95A7F8512E8613F
:1003EE00900369E030E30C7D057F4012E95A7F856A
:1003FE0012E861900369E030E40C7D057F3112E96B
:10040E005A7F8512E8617FD07E0702056220420383
:10041E0002056590005FE060030205237BFF7A7D95
:10042E0079EE12E77C90039EE0C39464748094800E
:10043E0050597FF47E0112EB657A8779B69003A44A
:10044E007404F0A3742EF0A37404F07D5012E78AA6
:10045E007D067F6B12E95AE4FF12E58D7F2012E5CF
:10046E008D7FF012E58DFF12E58D0D7F6B12E95A2F
:10047E007FC012E58D7FC812E58D7FCF12E58D7F8F
:10048E00C812E58D7FF47E0102056290039EE0C3E3
:10049E0094C87480948050577FE87E0312EB657B7E
:1004AE00FF7A8779B69003A47404F0A3742EF0A398
:1004BE007404F07D5012E78A7D067F6B12E95A7F35
:1004CE002012E58D7F1012E58D12E58D7FE012E58D
:1004DE008D0D7F6B12E95A7FCC12E58D7FCA12E526
:1004EE008D1F12E58D1F12E58D7FE87E0380657FDF
:1004FE00D07E0712EB657BFF7A8779B69003A474E2
:10050E0004F0A3742EF0A37404F07D5012E78A7FDA
:10051E00DC7E05803F90005FE06401703A7BFF7ADD
:10052E008179EE12E77C7D077F2512E95AE490036C
:10053E009EF090039EE0C394327480948050117F9D
:10054E00F712E58D7F287E0012EB65E004F080E265
:10055E007FF47E0112EB6530370A758911C2AAD27B
:10056E00AB75B208305007758991D2AAC2AB900212
:10057E00D2E0FC12A923E4FBFA7988784012A6E9AE
:10058E007B007A8079FF784312A5F812A957900262
:10059E00F7EEF0A3EFF09002D9E0FC12A923E4FBF2
:1005AE00FA7988784012A6E97B007A8079FF784341
:1005BE0012A5F812A9579002E7EEF0A3EFF0D28E33
:1005CE00D28C7F327E0012EB6575DB49AE3DAF3EBD
:1005DE007C007D0A12AAC98E2D8F2E2032030207AF
:1005EE0051C232900313E004F030B010E49002B523
:1005FE00F0C238301B1EC21BD2598018D21B90027B
:10060E00B5E004F0E0D39432748094804006E4F0B8
:10061E00C21BD23830B110E49002B6F0C239301C91
:10062E001EC21CD25A8018D21C9002B6E004F0E012
:10063E00D39432748094804006E4F0C21CD23930D8
:10064E00B710E49002B9F0C23A301D1EC21DD25C42
:10065E008018D21D9002B9E004F0E0D39432748079
:10066E0094804006E4F0C21DD23A30B610E49002F7
:10067E00BBF0C23B301F1EC21FD2088018D21F9083
:10068E0002BBE004F0E0D39432748094804006E420
:10069E00F0C21FD23B30B210E49002BDF0C23D302A
:1006AE00201EC220D2098018D2209002BDE004F094
:1006BE00E0D39432748094804006E4F0C220D23DA0
:1006CE0030B510E49002BEF0C23E30221EC222D2DD
:1006DE000A8018D2229002BEE004F0E0D394327465
:1006EE008094804006E4F0C222D23E30C210E490E4
:1006FE0002BFF0C23F30241EC224D20B8018D22477
:10070E009002BFE004F0E0D39432748094804006EF
:10071E00E4F0C226D23F30C310E49002C1F0C241D1
:10072E00302623C226D20C801DD2269002C1E004B0
:10073E00F0E0D3943274809480400BE4F0C226D261
:10074E004180033032FD900313E064016003020820
:10075E0083303807B24D304D02D259303907B24D81
:10076E00304D02D25A900271E0FF7014303A07B247
:10077E004D304D02D25C303B07B24D304D02D208A7
:10078E00303D07B24D304D02D209303E07B24D30EA
:10079E004D02D20A303F07B24D304D02D20B3041DE
:1007AE0007B24D304D02D20C305916C25990035D2E
:1007BE007401F0EF6004D2338007E4FD7F0312D0A2
:1007CE00C7305A19C25A90035D7401F0900271E05D
:1007DE006004D24080077D017F0312D0C7305C18C1
:1007EE00C25C90035D7401F0900271E06004D22748
:1007FE008006E4FDFF12D0C7300819C20890035DD1
:10080E007401F0900271E06004D21980077D01E45A
:10081E00FF12D0C7300919C20990035D7401F09020
:10082E000271E06004D22C8007E4FD7F0112D0C774
:10083E00300A19C20A90035D7401F0900271E060F3
:10084E0004D24F80077D017F0112D0C7300B0FC23B
:10085E000B90035D7401F0E4FD7F0212D0C7200CF3
:10086E00030205E9C20C90035D7401F0FD7F0212D4
:10087E00D0C70205E9900313E06402600302592910
:10088E00120003900271E070030252EF302E11C27B
:10089E002EC24FC22CC227C219C240C23312E9FE69
:1008AE009002B7E070030250F09002BAE0700302BB
:1008BE0042129002BCE07003020C626401600302FB
:1008CE000ABB90029112E458900291EFF09000AFA3
:1008DE00745EF0A304F0A37451F0E4A3F09000B59D
:1008EE00745EF0A304F0A37452F0E4A3F09000BB86
:1008FE00745EF0A304F0A37453F0E4A3F09000C16F
:10090E00745EF0A304F0A37454F0E4A3F07D03121C
:10091E00B89530405BC240A223E4FE337802C33365
:10092E00CE33CED8F924A7F58274003EF583C0836A
:10093E00C082900291E0FDD082D0832582F582E4C0
:10094E003583F583E0C39478748094805022A2237B
:10095E00E4FE337802C333CE33CED8F924A7F58222
:10096E0074003EF583E5822DF582E4358312EB2487
:10097E00303362C233A223E4FE337802C333CE3364
:10098E00CED8F924A7F58274003EF583C083C082C9
:10099E00900291E0FDD082D0832582F582E43583EA
:1009AE00F583E0D39400748094804029A223E4FE62
:1009BE00337802C333CE33CED8F924A7F582740030
:1009CE003EF583E5822DF582E43583F583E014F060
:1009DE007F0112EB2BA223E4FE337802C333CE3316
:1009EE00CED8F924A7F582740012CF5DA223E4FEBF
:1009FE00337802C333CE33CED8F924A8F5827400EF
:100A0E003EF583E0FF7E009003A47425F07B027D0B
:100A1E004612CF6EA223E4FE337802C333CE33CE1A
:100A2E00D8F924A9F58274003EF583E0FF7E00908C
:100A3E0003A47425F07B047D4612CF6EA223E4FE40
:100A4E00337802C333CE33CED8F924AAF58274009C
:100A5E003EF583E0FF7E009003A47425F07B067DB7
:100A6E004612CF6EE4FB7D3E30231F7F2B12DF1E1E
:100A7E007B027D3E7F2B12DF1E7B047D3E7F2B1281
:100A8E00DF1E7B067D3E7F2B801D7F2D12DF1E7BA2
:100A9E00027D3E7F2D12DF1E7B047D3E7F2D12DFF9
:100AAE001E7B067D3E7F2D12DF1E020C529002BC75
:100ABE00E064026003020C52900291E0FF7D051289
:100ACE00E45C900291EFF09000AF7408F0A304F094
:100ADE00A37451F0E4A3F09000B57408F0A304F0F1
:100AEE00A37452F0E4A3F09000BB7408F0A304F0DA
:100AFE00A37453F0E4A3F09000C17408F0A304F0C3
:100B0E00A37454F0E4A3F09000C77408F0A304F0AB
:100B1E00A37455F0E4A3F09000CD7408F0A304F094
:100B2E00A37456F0E4A3F07D0512B895304025C2AB
:100B3E0040900291E0FF2476F582E43403F583E0E1
:100B4E00C3946474809480500B74762FF582E434D1
:100B5E000312EB2430332CC233900291E0FF247643
:100B6E00F582E43403F583E0D394007480948040DE
:100B7E001274762FF582E43403F583E014F07F01CE
:100B8E0012EB2B900291E0F9C39403748094805081
:100B9E003490037612CF60900377E0FF7E009003CF
:100BAE00A47425F07B027D4612CF6E900378E0FF91
:100BBE007E009003A47425F07B047D4612CF6E90C8
:100BCE000379020C41E9C3940474809480503390ED
:100BDE00037712CF60900378E0FF7E009003A47439
:100BEE0025F07B027D4612CF6E900379E0FF7E00EA
:100BFE009003A47425F07B047D4612CF6E90037A89
:100C0E00803190037812CF60900379E0FF7E0090E0
:100C1E0003A47425F07B027D4612CF6E90037AE01A
:100C2E00FF7E009003A47425F07B047D4612CF6EE8
:100C3E0090037BE0FF7E009003A47425F07B067D7D
:100C4E004612CF6E2027030250E7C227E49002BC63
:100C5E00F00250E79002BAE064016003020E419088
:100C6E00027FE0FF7D0712E45C12B80E90027FE077
:100C7E00C3940374809480506C9002C9E07BFF6033
:100C8E00067A65792680047A65790EE49003ABF0D6
:100C9E007D3C12E4039002CAE07BFF60067A657920
:100CAE002680047A65790E9003AB7402F07D3C12B7
:100CBE00E4039002CBE07BFF60067A657926800420
:100CCE007A65790E9003AB7404F07D3C12E40390C8
:100CDE0002CCE07BFF60077A657926020DF67A6515
:100CEE00790E020DF690027FE06407706B9002CDD4
:100CFE00E07BFF60067A65792680047A65790EE4DA
:100D0E009003ABF07D3C12E4039002CEE07BFF60DB
:100D1E00067A65792680047A65790E9003AB7402A3
:100D2E00F07D3C12E4039002CFE07BFF60067A6513
:100D3E00792680047A65790E9003AB7404F07D3CBD
:100D4E0012E4039002D0E07BFF60067A657926807C
:100D5E00047A65790E020DF690027FE024C7F582C3
:100D6E00E43402F583E07BFF60067A657926800421
:100D7E007A65790EE49003ABF07D3C12E4039002A9
:100D8E007FE024C8F582E43402F583E07BFF600641
:100D9E007A65792680047A65790E9003AB7402F039
:100DAE007D3C12E40390027FE024C9F582E4340214
:100DBE00F583E07BFF60067A65792680047A657993
:100DCE000E9003AB7404F07D3C12E40390027FE0BE
:100DDE0024CAF582E43402F583E07BFF60067A656F
:100DEE00792680047A65790E9003AB7406F07D3C0B
:100DFE0012E403A23372404003024203C240C233E4
:100E0E0090027FE0FF24C9F582E43402F583E060AE
:100E1E000D74C92FF582E43402F583E4800F90023D
:100E2E007FE024C9F582E43402F5837401F07F0279
:100E3E00023BCB9002BAE06402600302116390029F
:100E4E007FE0FF7D0712E45C12B80E304062C240B4
:100E5E00A223E4FE337803C333CE33CED8F9244332
:100E6E00F58274003EF583C083C08290027FE0FD60
:100E7E00D082D0832582F582E43583F583E0C39456
:100E8E0078748094805029A223E4FE337803C33310
:100E9E00CE33CED8F92443F58274003EF583E58235
:100EAE002DF582E43583F583E004F07F0212EB2BFF
:100EBE00303362C233A223E4FE337803C333CE331E
:100ECE00CED8F92443F58274003EF583C083C082E8
:100EDE0090027FE0FDD082D0832582F582E43583B7
:100EEE00F583E0D39400748094804029A223E4FE1D
:100EFE00337803C333CE33CED8F92443F58274004E
:100F0E003EF583E5822DF582E43583F583E014F01A
:100F1E007F0212EB2B90027FE0F9C394037480944E
:100F2E00804003020FB2A223E4FE337803C333CE14
:100F3E0033CED8F92443F582740012CF5DA223E498
:100F4E00FE337803C333CE33CED8F92444F58274FE
:100F5E00003EF583E0FF7E009003A47425F07B0233
:100F6E007D4612CF6EA223E4FE337803C333CE3315
:100F7E00CED8F92445F58274003EF583E0FF7E005D
:100F8E009003A47425F07B047D4612CF6EA223E459
:100F9E00FE337803C333CE33CED8F92446F58274AC
:100FAE0000021034E964076003021038A223FE33F6
:100FBE007803C333CE33CED8F92447F582740012AA
:100FCE00CF5DA223E4FE337803C333CE33CED8F9FC
:100FDE002448F58274003EF583E0FF7E009003A462
:100FEE007425F07B027D4612CF6EA223E4FE337889
:100FFE0003C333CE33CED8F92449F58274003EF5BF
:10100E0083E0FF7E009003A47425F07B047D4612DE
:10101E00CF6EA223E4FE337803C333CE33CED8F99A
:10102E00244AF58274003E021109A223E4FE3378AD
:10103E0003C333CE33CED8F92441F58274003EF586
:10104E0083C083C08290027FE0D082D0832582F558
:10105E0082E4358312CF5EA223E4FE337803C333DA
:10106E00CE33CED8F92442F58274003EF583C08388
:10107E00C08290027FE0D082D0832582F582E43553
:10108E0083F583E0FF7E009003A47425F07B027D40
:10109E004612CF6EA223E4FE337803C333CE33CE93
:1010AE00D8F92443F58274003EF583C083C0829044
:1010BE00027FE0D082D0832582F582E43583F583EA
:1010CE00E0FF7E009003A47425F07B047D4612CFD2
:1010DE006EA223E4FE337803C333CE33CED8F92485
:1010EE0044F58274003EF583C083C08290027FE097
:1010FE00D082D0832582F582E43583F583E0FF7EAE
:10110E00009003A47425F07B067D4612CF6EE4FB9F
:10111E007D3E3023207F2B12DF1E7B027D3E7F2BF8
:10112E0012DF1E7B047D3E7F2B12DF1E7B067D3E73
:10113E007F2B022F097F2D12DF1E7B027D3E7F2D1E
:10114E0012DF1E7B047D3E7F2D12DF1E7B067D3E51
:10115E007F2D022F099002BAE0640360030212C3CE
:10116E0090027FE0FF7D0712E45C12B80E7BFF7ADF
:10117E0062793EE49003ABF07D3C12E4037A62792F
:10118E003E9003AB7402F07D3C12E4037A62793E2A
:10119E009003AB7404F07D3C12E4037A62793E90C6
:1011AE0003AB7406F07D3C12E40330402CC2409039
:1011BE00027FE0FF240BF582E43403F583E0C39451
:1011CE0014748094805012740B2FF582E43403F55E
:1011DE0083E004F07F0212EB2B30332CC2339002EB
:1011EE007FE0FF240BF582E43403F583E0D3940013
:1011FE00748094804012740B2FF582E43403F583CF
:10120E00E014F07F0212EB2B90027FE0C394037484
:10121E00809480502090030BE0FFE4FB7D4812BACF
:10122E008D90030C12BA8790030D7B0412BA89902D
:10123E00030E0212B790027FE06407702390030F33
:10124E00E0FFE4FB7D4812BA8D90031012BA87902E
:10125E000311E0FF7B047D4812BA8D900312804982
:10126E0090027FE02409F582E43403F583E0FFE485
:10127E00FB7D4812BA8D90027FE0240AF582E43499
:10128E0003F58312BA8790027FE0240BF582E434D3
:10129E0003F583E0FF7B047D4812BA8D90027FE058
:1012AE00240CF582E43403F583E0FF7B067D4812BF
:1012BE00BA8D0242039002BAE06404600302144F36
:1012CE0090027FE0FF7D0712E45C12B80E304033CF
:1012DE00C24090027FE0FF24DDF582E43402F58304
:1012EE00E0FD3395E0FCC3ED9464EC648094805093
:1012FE001274DD2FF582E43402F583E004F07F02F0
:10130E0012EB2B303333C23390027FE0FF24DDF536
:10131E0082E43402F583E0FD3395E0FCD3ED949C3A
:10132E00EC6480947F401274DD2FF582E43402F574
:10133E0083E014F07F0212EB2B90027FE0F9C3944E
:10134E00037480948050409002DDE0FF3395E0FE00
:10135E00742D12CF669002DEE0FF3395E0FE90030F
:10136E00A4742DF07B027D4612CF6E9002DFE0FF5B
:10137E003395E0FE9003A4742DF07B047D4612CFCE
:10138E006E9002E0021441E9640770429002E1E0BF
:10139E00FF3395E0FE9003A4742D12CF699002E204
:1013AE00E0FF3395E0FE9003A4742DF07B027D46A2
:1013BE0012CF6E9002E3E0FF3395E0FE9003A4742B
:1013CE002DF07B047D4612CF6E9002E4806574DBB7
:1013DE0029F582E43402F583E0FF3395E0FE9003B5
:1013EE00A4742D12CF6990027FE024DCF582E434E0
:1013FE0002F583E0FF3395E0FE9003A4742DF07B9D
:10140E00027D4612CF6E90027FE024DDF582E43439
:10141E0002F583E0FF3395E0FE9003A4742DF07B7C
:10142E00047D4612CF6E90027FE024DEF582E43416
:10143E0002F583E0FF3395E0FE9003A4742D021CA9
:10144E00399002BAE0640560030217CC90027FE087
:10145E00FF7D0212E45C90027FEFF09000AF745BB0
:10146E00F0A3744FF0A3745CF0E4A3F09000B57495
:10147E005DF0A3744FF0A3745CF0E4A3F09000BB96
:10148E00746AF0A304F0A304F0A304F0E4A3F07DC7
:10149E000212B895900072E06401700A9002937483
:1014AE006EF0A304800D900072E06402700A900248
:1014BE00937471F0A3048038900072E06403701C82
:1014CE007B047D407F5612DF1E7BFF7A6C79A690DF
:1014DE0003AB7404F07D4812E403801F900072E0A9
:1014EE00640470179002937474F0A304F0A37470E4
:1014FE00F0E4A3F07D047F4012E3A690027FE0C3E8
:10150E0094017480948040030215F7304064C24009
:10151E00900072E0F9FB7A006401700F9002EBE02C
:10152E00C39407748094805049803FEB64024A70E4
:10153E000F9002F6E0C39407748094805034802A92
:10154E00E9FB7A006403700F9002FBE0C39407740A
:10155E00809480501D8013EB64044A701590030133
:10156E00E0C39407748094805008E004F07F021268
:10157E00EB2B203303021741C233900072E0F9FBCC
:10158E007A00640170139002EBE0D394007480949F
:10159E008050030217410216D9EB64024A70139071
:1015AE0002F6E0D394007480948050030217410237
:1015BE0016D9E9FB7A00640370139002FBE0D39412
:1015CE00007480948050030217410216D9EB640414
:1015DE004A6003021741900301E0D3940074809493
:1015EE008050030217410216D990027FE0C3940285
:1015FE007480948040030216DD304064C240900037
:10160E0072E0F9FB7A006401700F9000F3E0C3946E
:10161E0007748094805049803FEB64024A700F90AB
:10162E0000F6E0C39407748094805034802AE9FB5E
:10163E007A006403700F90026EE0C3940774809476
:10164E0080501D8013EB64044A7015900270E0C345
:10165E009407748094805008E004F07F0212EB2B04
:10166E00203303021741C233900072E0F9FB7A0077
:10167E00640170129000F3E0D39400748094805053
:10168E00030217418045EB64024A70129000F6E0A7
:10169E00D39400748094805003021741802DE9FB8F
:1016AE007A006403701290026EE0D39400748094FA
:1016BE008050030217418013EB64044A7075900248
:1016CE0070E0D39400748094804068E014805E9043
:1016DE00027FE0C39403748094805057301954C233
:1016EE0019900072E0F9FB7A006401700B9002EB26
:1016FE0004F0E49000F38035EB64024A700C900223
:10170E00F67402F09000F6048023E9FB7A0064037D
:10171E00700B9002FBF090026E74038010EB640469
:10172E004A70109003017405F0E4900270F07F028D
:10173E0012EB2B900072E0F96401701C9002EBE04A
:10174E002431FFE4FB7D3C12DF1E9000F3E02431D8
:10175E00FF7B027D3C022F09E96402701C9002F6A9
:10176E00E02431FFE4FB7D3C12DF1E9000F6E02406
:10177E0031FF7B027D3C022F09E96403701C90024D
:10178E00FBE02431FFE4FB7D3C12DF1E90026EE095
:10179E002431FF7B027D3C022F09E96404600302C1
:1017AE004203900301E02431FFE4FB7D3C12DF1E77
:1017BE00900270E02431FF7B027D3C022F099002E3
:1017CE00BAE064066003021C4190027FE0FF7D07D1
:1017DE0012E45C90027FEFF09000AF741DF0A30452
:1017EE00F0A37451F0E4A3F09000B5741DF0A304BF
:1017FE00F0A37452F0E4A3F09000BB741DF0A304A8
:10180E00F0A37453F0E4A3F09000C1741DF0A30490
:10181E00F0A37454F0E4A3F09000C7741DF0A30479
:10182E00F0A37455F0E4A3F09000CD741DF0A30462
:10183E00F0A37456F0E4A3F09000D3741DF0A3044B
:10184E00F0A37457F0E4A3F0741D12B88530403540
:10185E00C24090027FE0FF24A5F582E43402F583B6
:10186E00E0FD3395E0FCC3ED9478EC6480948050F9
:10187E001474A52FF582E43402F583E004F07F02A0
:10188E0012EB2BD235303335C23390027FE0FF247A
:10189E00A5F582E43402F583E0FD3395E0FCD3ED4B
:1018AE009488EC6480947F401474A52FF582E43400
:1018BE0002F583E014F07F0212EB2BD235203503B4
:1018CE00021B26C2359002A5E0FC12A923E4FBFA06
:1018DE007988784012A6E97B007A8079FF784312E6
:1018EE00A5F812A957900280EEF0A3EFF09002A691
:1018FE00E0FC12A923E4FBFA7988784012A6E97B72
:10190E00007A8079FF784312A5F812A957900282C7
:10191E00EEF0A3EFF09002A7E0FC12A923E4FBFA8D
:10192E007988784012A6E97B007A8079FF78431295
:10193E00A5F812A957900284EEF0A3EFF09002A83A
:10194E00E0FC12A923E4FBFA7988784012A6E97B21
:10195E00007A8079FF784312A5F812A95790028673
:10196E00EEF0A3EFF09002A9E0FC12A923E4FBFA3B
:10197E007988784012A6E97B007A8079FF78431245
:10198E00A5F812A957900288EEF0A3EFF09002AAE4
:10199E00E0FC12A923E4FBFA7988784012A6E97BD1
:1019AE00007A8079FF784312A5F812A95790028A1F
:1019BE00EEF0A3EFF09002ABE0FC12A923E4FBFAE9
:1019CE007988784012A6E97B007A8079FF784312F5
:1019DE00A5F812A95790028CEEF0A3EFF09002AC8E
:1019EE00E0FC12A923E4FBFA7988784012A6E97B81
:1019FE00007A8079FF784312A5F812A95790028ECB
:101A0E00EEF0FCA3EFF0FD900280E0FAA3E0FBAE57
:101A1E00027802CEC313CE13D8F9900343F0AE0270
:101A2E00EB7806C333CE33CED8F9900344F0900250
:101A3E0082E0FAA3E0FBEAC4F854F0C8EBC4540FFA
:101A4E0048FF900344E02FF0EBC4F8540FC868FF32
:101A5E00A3EFF0900284E0FAA3E0FBAE027806CE8C
:101A6E00C313CE13D8F9FF900345E02FF0AE02EB6F
:101A7E007802C333CE33CED8F9900346F090028667
:101A8E00E0FAA3E0FBEAFF900346E02FF0A3EBF0B1
:101A9E00900288E0FAA3E0FBAE027802CEC313CE2A
:101AAE0013D8F9900348F0AE02EB7806C333CE3369
:101ABE00CED8F9900349F090028AE0C4F854F0C8E9
:101ACE00A3E0C4540F48FF900349E02FF090028B1F
:101ADE00E0C4F8540FC868FF90034AEFF090028CF0
:101AEE00E0FEA3E07806CEC313CE13D8F9FF900321
:101AFE004AE02FF090028CE0FEA3E07802C333CED2
:101B0E0033CED8F990034BF090028EE0FF90034B4A
:101B1E00E02FF0A3EDF0D21590027FE0F9C394030D
:101B2E0074809480504E9002A5E0FF3395E0FE90B5
:101B3E0003A4742F12CF699002A6E0FF3395E0FE46
:101B4E009003A4742FF07B027D4612CF6E9002A7F5
:101B5E00E0FF3395E0FE9003A4742FF07B047D46E6
:101B6E0012CF6E9002A8E0FF3395E0FE9003A474AE
:101B7E002F021C39E9640770429002A9E0FF3395E9
:101B8E00E0FE9003A4742F12CF699002AAE0FF33F7
:101B9E0095E0FE9003A4742FF07B027D4612CF6E6B
:101BAE009002ABE0FF3395E0FE9003A4742FF07B20
:101BBE00047D4612CF6E9002AC806574A329F58227
:101BCE00E43402F583E0FF3395E0FE9003A4742F16
:101BDE0012CF6990027FE024A4F582E43402F583EB
:101BEE00E0FF3395E0FE9003A4742FF07B027D4658
:101BFE0012CF6E90027FE024A5F582E43402F583C5
:101C0E00E0FF3395E0FE9003A4742FF07B047D4635
:101C1E0012CF6E90027FE024A6F582E43402F583A3
:101C2E00E0FF3395E0FE9003A4742FF07B067D4613
:101C3E000232BA9002BAE064076003021D7B900282
:101C4E007FE0FF7D0412E45C90027FEFF09000AF26
:101C5E007430F0A304F0A37451F0E4A3F09000B537
:101C6E007430F0A304F0A37452F0E4A3F09000BB20
:101C7E007430F0A304F0A37453F0E4A3F09000C109
:101C8E007430F0A304F0A37454F0E4A3F09000C7F2
:101C9E007430F0A304F0A37455F0E4A3F07D0412A5
:101CAE00B89590027FE0C394037480948050439063
:101CBE00033CE0C4540FFFE4FB7D3C12D96090035B
:101CCE003C12D95A90033DE0C4540FFF7B027D3C79
:101CDE0012D96090033D12D95A7B0412D94A90034F
:101CEE003FE0C4540FFF7B067D3C12D96090033F4A
:101CFE00804190033DE0C4540FFFE4FB7D3C12D9BC
:101D0E006090033D12D95A7B0212D94A90033FE0EC
:101D1E00C4540FFF7B047D3C12D96090033F12D94F
:101D2E005A900340E0C4540FFF7B067D3C12D960ED
:101D3E0090034012D95A304012C24090027FE024E4
:101D4E003CF582E4340312EB24D229203303024201
:101D5E0003C23390027FE0243CF582E43403F58322
:101D6E00E014F07F0112EB2BD2290242039002BA4B
:101D7E00E064086003021EE590027FE0FF7D04121E
:101D8E00E45C90027FEFF09000AF7435F0A37433F3
:101D9E00F0A37451F0E4A3F09000B57435F0A37481
:101DAE0033F0A37452F0E4A3F09000BB7435F0A3AB
:101DBE007433F0A37453F0E4A3F09000C17435F0C3
:101DCE00A37433F0A37454F0E4A3F09000C77435F9
:101DDE00F0A37433F0A37455F0E4A3F07D0412B8AD
:101DEE009590027FE0C3940374809480503D9003DD
:101DFE0071E0FF7E00E49003A4F0FB7D3C12CF6EF9
:101E0E00900372E0FF7E00E49003A4F07B027D3C21
:101E1E0012CF6E900373E0FF7E00E49003A4F07B7C
:101E2E00047D3C12CF6E900374803B900372E0FFF2
:101E3E007E00E49003A4F0FB7D3C12CF6E90037302
:101E4E00E0FF7E00E49003A4F07B027D3C12CF6E97
:101E5E00900374E0FF7E00E49003A4F07B047D3CCD
:101E6E0012CF6E900375E0FF7E00E49003A4F07B2A
:101E7E00067D3C12CF6E30402CC24090027FE0FFB8
:101E8E002471F582E43403F583E0C3947D74809469
:101E9E0080500D74712FF582E43403F583E004F065
:101EAE007F0112EB2B203303024203C23390027FD9
:101EBE00E0FF2471F582E43403F583E0D3940074DB
:101ECE00809480400D74712FF582E43403F583E025
:101EDE0014F07F01023BCB9002BAE064096003026A
:101EEE0020D790027FE0FF7D0712E45C90027FEF27
:101EFE00F09000AF7410F0A304F0A37451F0E4A3BB
:101F0E00F09000B57410F0A304F0A37452F0E4A3A3
:101F1E00F09000BB7410F0A304F0A37453F0E4A38C
:101F2E00F09000C17410F0A304F0A37454F0E4A375
:101F3E00F09000C77410F0A304F0A37455F0E4A35E
:101F4E00F09000CD7410F0A304F0A37456F0E4A347
:101F5E00F09000D37410F0A304F0A37457F0E4A330
:101F6E00F09000D9741012B8889002937404F0A304
:101F7E00745EF0A304F0E4A3F0FD7F3C12E3A67DB3
:101F8E00027F3C12E3A67D047F3C12E3A67D067F12
:101F9E003C12E3A630402CC24090027FE0FF247238
:101FAE00F582E43402F583E0C39407748094805084
:101FBE000D74722FF582E43402F583E004F07F0293
:101FCE0012EB2B30332CC23390027FE0FF2472F5DC
:101FDE0082E43402F583E0D3940074809480400D43
:101FEE0074722FF582E43402F583E014F07F02124E
:101FFE00EB2B90027FE0F9C39403748094805038E9
:10200E00900272E02431FFE4FB7D6012DF1E90022D
:10201E0073E02431FF7B027D6012DF1E900274E0BC
:10202E002431FF7B047D6012DF1E900275E02431A7
:10203E00FF7B067D60022F09E96407702F90027600
:10204E00E02431FFE4FB7D6012DF1E900277E02476
:10205E0031FF7B027D6012DF1E900278E02431FF9B
:10206E007B047D6012DF1E9002798052747029F518
:10207E0082E43402F583E02431FFE4FB7D6012DF5D
:10208E001E90027FE02471F582E43402F583E02491
:10209E0031FF7B027D6012DF1E90027FE02472F51D
:1020AE0082E43402F583E02431FF7B047D6012DF8D
:1020BE001E90027FE02473F582E43402F583E0245F
:1020CE0031FF7B067D60022F099002BAE0640A7030
:1020DE00617BFF7A8579EE9003A4F0A37478F0A368
:1020EE007403F07D0412E78A7A6879B69003AB74B4
:1020FE0006F07D3812E4037A6879CE9003AB74064D
:10210E00F07D4412E4037B067D507F5612DF1E7D68
:10211E00587F3312DF1E7D607F2E12DF1E7D687F9B
:10212E004112DF1E7D707F3112DF1E7D787F3202FD
:10213E002F099002BAE0640B60030221D49002933F
:10214E007479F0A304F0A3742BF0A304F0A3747BB2
:10215E00F0E4A3F0FD7F1812E3A6E4FB7D547F2E7E
:10216E0012DF1E7D5C7F2E12DF1E7D647F2E12DF3E
:10217E001E12DB52900293741030521FF0A3742F74
:10218E00F0A3747EF0A304F0E4A3F07D047F281284
:10219E00E3A6E49002BAF0C252801FF0A3742FF0AF
:1021AE00A3747CF0A304F0E4A3F07D047F2812E373
:1021BE00A6E49002BAF0900271F07FF47E0112EB69
:1021CE0065D22E0242039002BAE0640C706312E3F1
:1021DE008E9002937489F0A3746DF0E4A3F07D04E5
:1021EE007F3412E3A67B047D507F3F12DF1E201941
:1021FE000302420375C78312EB45E4F5C77BFF7AF2
:10220E006279269003AB7404F07D5012E4039002C1
:10221E0093748AF0A304F0A304F0A37439F0E4A33A
:10222E00F07D067F2812E3A6C28CC28EE4F5D8801C
:10223E00FE9002BAE0640D600302245190027FE02A
:10224E00FF7D0512E45C90027FEFF09000AF74A06A
:10225E00F0A304F0E4A3F09000B5743AF0A304F0F8
:10226E00E4A3F09000BB7469F0A374CEF0E4A3F085
:10227E009000C174CFF0A304F0E4A3F09000C774F3
:10228E001DF0A304F0E4A3F09000CD7442F0A3047B
:10229E00F0E4A3F07D0512B89590027FE0C394039D
:1022AE0074809480501E12EA34EF64037BFF700634
:1022BE007A67794E80057A677966E49003ABF07D94
:1022CE004012E40390027FE06401703E304012C27F
:1022DE0040900341E0C3940574809480500312EB48
:1022EE0026303317C233900341E0D39400748094A8
:1022FE00804008E014F07F0112EB2B900341E0FFC9
:10230E007B027D3C12D39B02420390027FE0F96474
:10231E0002704C304012C2409002B2E0C394C874B6
:10232E00809480500312EB26303317C2339002B2E2
:10233E00E0D39400748094804008E014F07F011282
:10234E00EB2B9002B2E0FF7E009003A4742EF07B84
:10235E00047D3C12CF6E7B047D5C7F56022F09E913
:10236E006403704C304012C24090027EE0C394323F
:10237E0074809480500312EB26303317C2339002D0
:10238E007EE0D39400748094804008E014F07F01C6
:10239E0012EB2B90027EE0FF7E009003A4742EF0D1
:1023AE007B047D3C12CF6E7B047D5C7F56022F0931
:1023BE00E964047043304012C2409002D1E0C394ED
:1023CE006474809480500312EB26303317C233901E
:1023DE0002D1E0D39400748094804008E014F07F22
:1023EE000112EB2B9002D1E0FF7E009003A4742526
:1023FE00F07B047D440232BAE964056003024203B5
:10240E00304012C2409002C2E0C394647480948043
:10241E00500312EB26303317C2339002C2E0D3942E
:10242E0000748094804008E014F07F0112EB2B9032
:10243E0002C2E0FF7E009003A47425F07B067D446B
:10244E000232BA9002BAE0640E60030225E612E48C
:10245E005590027FEFF09000AF74BBF0A304F0A391
:10246E007467F0E4A3F09000B574B2F0A304F0A387
:10247E007440F0E4A3F09000BB743CF0A304F0E4CD
:10248E00A3F09000C174D5F0A3744FF0E4A3F07DD7
:10249E000312B89590003AE0FF7E00E49003A4F09A
:1024AE00FB7D3C12CF6E7BFF3051067A72798E80A7
:1024BE00047A7279A69003AB7402F07D4412E403A1
:1024CE007BFF3043067A67794E80047A677966908F
:1024DE0003AB7404F07D4412E4037BFF302A067ACA
:1024EE0065792680047A65790E9003AB7406F07DCB
:1024FE004412E40390027FE0F9FB7A00705A3040F8
:10250E0023C24090003AE0C3943C748094805014EF
:10251E0012EB26C2C67F8112E58D90003AE0FF12C3
:10252E00E58DD2C6203303024203C23390003AE057
:10253E00D3940A748094805003024203E014F07F17
:10254E000112EB2BC2C67F8112E58D90003AE0FF9F
:10255E0012E58DD2C6024203EB64014A7027A23304
:10256E0072404003024203C240C233B2517F011295
:10257E00EB2BC2C63051047F6080027F4012E58D86
:10258E00D2C6024203E96402701BA23372404003BA
:10259E00024203C240C2337F0112EB2BB243A2436D
:1025AE0092A5024203A23372404003024203C2408C
:1025BE00C233B22A7F0112EB2BC2C6302A097FC06A
:1025CE0012E58D7FA180077FC812E58D7FA012E5F1
:1025DE008DD2C6D22E0242039002BAE0640F60037F
:1025EE000227D890027FE0FF7D0712E45C90027F05
:1025FE00EFF09000AF74C0F0A304F0A37451F0E4B8
:10260E00A3F09000B574C0F0A304F0A37452F0E4EC
:10261E00A3F09000BB74C0F0A304F0A37453F0E4D5
:10262E00A3F09000C174C0F0A304F0A37454F0E4BE
:10263E00A3F09000C774C0F0A304F0A37455F0E4A7
:10264E00A3F09000CD74C0F0A304F0A37456F0E490
:10265E00A3F09000D374C0F0A304F0A37457F0E479
:10266E00A3F09000D974C012B8889002937404F04D
:10267E00A3745EF0A304F0E4A3F0FD7F3C12E3A686
:10268E007D027F3C12E3A67D047F3C12E3A67D060D
:10269E007F3C12E3A630402CC24090027FE0FF2424
:1026AE009DF582E43402F583E0C394077480948030
:1026BE00500D749D2FF582E43402F583E004F07F13
:1026CE000112EB2B30332CC23390027FE0FF249D9E
:1026DE00F582E43402F583E0D39400748094804054
:1026EE000D749D2FF582E43402F583E014F07F0122
:1026FE0012EB2B90027FE0F9C39403748094805008
:10270E003890029DE02431FFE4FB7D6012DF1E90C5
:10271E00029EE02431FF7B027D6012DF1E90029F3D
:10272E00E02431FF7B047D6012DF1E9002A0E024C6
:10273E0031FF7B067D60022F09E96407702F90023E
:10274E00A1E02431FFE4FB7D6012DF1E9002A2E0C7
:10275E002431FF7B027D6012DF1E9002A3E0243144
:10276E00FF7B047D6012DF1E9002A48052749B29B1
:10277E00F582E43402F583E02431FFE4FB7D601240
:10278E00DF1E90027FE0249CF582E43402F583E0A4
:10279E002431FF7B027D6012DF1E90027FE0249DBC
:1027AE00F582E43402F583E02431FF7B047D601270
:1027BE00DF1E90027FE0249EF582E43402F583E072
:1027CE002431FF7B067D60022F099002BAE064106F
:1027DE0060030228DE12E45590027FEFF09000AF06
:1027EE0074A0F0A304F0E4A3F09000B5743AF0A343
:1027FE0004F0E4A3F09000BB74CAF0A37422F0A31B
:10280E007424F0A304F09000C174CAF0A37486F08F
:10281E00A37424F0A304F07D0312B8957BFF305B04
:10282E00067A7479CE80047A7479B6E49003ABF0AC
:10283E007D3C12E4037A65793EE49003ABF07D486B
:10284E0012E4037A657956E49003ABF07D5412E4FA
:10285E000390005BE0FF7B027D3C12D39B90027FD6
:10286E00E06401702F304012C24090005BE0C394D0
:10287E000574809480500312EB26303317C23390C8
:10288E00005BE0D39400748094804008E014F07FE5
:10289E000112EB2B90027FE0FF7E0064027011307C
:1028AE00190EC2199002BC04F0E4900291F0D223EA
:1028BE00EF64034E6003024203201903024203C277
:1028CE00199002BC04F0E4900291F0C2230242037C
:1028DE009002BAE0F96411705390039EF090039E3B
:1028EE00E0FDC39408748094804003024203E4FF29
:1028FE0012E95A7F4112E8617F4412E86190039E0B
:10290E00E02431FF12E8617F3A12E86190039EE005
:10291E00FFC374079F25E0242DF8E6FE08E6FFE4CA
:10292E00FD12D71790039EE004F080B1E9641260A7
:10293E00030229FA90027FE0FF7D0212E45C90020E
:10294E007FEFF09000AF7441F0A3744FF0A3743298
:10295E00F0A37435F0A37433F0E4A3F0A37442F043
:10296E00A304F0A37441F0A37435F0A37433F0E420
:10297E00A3F0A37442F0A304F0A37432F0A3743551
:10298E00F0A37433F0E4A3F07D0212B89530191061
:10299E00C21990027FE004900011F07F0112EB2B20
:1029AE00900011E06401700F7BFF7A62792690032C
:1029BE00ABF07D5012E403900011E0640270117BC5
:1029CE00FF7A6279269003AB7402F07D5012E40315
:1029DE00900011E0640360030242037BFF7A627988
:1029EE00269003AB7404F07D50022EFD9002BAE0E7
:1029FE0064136003022C17900293744CF0A3743589
:102A0E00F0A3744DF0A304F0E4A3F0FDFF12E3A6CF
:102A1E00E4FD7F3612E95A7F3212E8617F3412E804
:102A2E00617F3012E8617F3012E8617F2D12E8611C
:102A3E007F3212E8617F3512E8617F3212E8617FE2
:102A4E003512E8617F4D12E8617F6812E8617F7A86
:102A5E0012E8617D02E4FF12E95A7FFF12E58D7DD7
:102A6E0004E4FF12E95A7FFF12E58D7D06E4FF12A2
:102A7E00E95A7FFF12E58D7D027F7F12E95A7FFFB3
:102A8E0012E58D7D047F7F12E95A7FFF12E58D7D61
:102A9E00067F7F12E95A7FFF12E58D7D037F3F127D
:102AAE00E95A7F3F12E58D12E58D7D0512E95A7FB9
:102ABE003F12E58D12E58D7D0712E95A7F3F12E533
:102ACE008D12E58D7D037F1F12E95A7F0F12E58D62
:102ADE007D057F1F12E95A7F0F12E58D7D077F1F3F
:102AEE0012E95A7F0F12E58D7D037F5F12E95A7F3F
:102AFE000F12E58D7D057F5F12E95A7F0F12E58D6E
:102B0E007D077F5F12E95A7F0F12E58D7D03E4FF8B
:102B1E0012E95A7F3012E8617D037F7412E95A7F01
:102B2E003412E8617F3112E8617D05E4FF12E95A43
:102B3E007F3412E8617F3212E8617D057F7412E9FD
:102B4E005A7F3812E8617F3312E8617D07E4FF1285
:102B5E00E95A7F3812E8617F3412E8617D077F6E93
:102B6E0012E95A7F3112E8617F3212E8617F351225
:102B7E00E861E490039EF090039EE0FF7E00C39414
:102B8E007E74809480506EEF70047D0280179003E7
:102B9E009EE0FB7A00642A70047D048008EB645486
:102BAE004A70077D067F0112E95A90039EE0FF13DB
:102BBE001313541F2401F582E43400F583E0FD7CE9
:102BCE0000EF5407FF7E007401A807088005C33389
:102BDE00CE33CED8F9FFEE5CFEEF5D4E60047FBDC6
:102BEE0080027F8112E58D12E58D12E58D90039E98
:102BFE00E004F08082202703024203C227E4900201
:102C0E00BAF0D22EC2560242039002BAE0641460A9
:102C1E0003022F0FC39002FFE0953A9002FEE0955B
:102C2E00395007E539F0A3E53AF0C3900305E09576
:102C3E003C900304E0953B5007E53BF0A3E53CF0E8
:102C4E00C3900307E09536900306E095355007E5EF
:102C5E0035F0A3E536F0C390030AE09538900309EA
:102C6E00E095375007E537F0A3E538F0D39002F53D
:102C7E00E0953A9002F4E095394007E539F0A3E586
:102C8E003AF0D39002FAE0953C9002F9E0953B4081
:102C9E0007E53BF0A3E53CF0D39002FDE0953690BE
:102CAE0002FCE095354007E535F0A3E536F0D3900C
:102CBE000303E09538900302E095374007E537F0BF
:102CCE00A3E538F0E4FD12E8567F3112E8617F206B
:102CDE0012E8617F3C12E8619002F412D7107F2057
:102CEE0012E8617F2D12E8617F2012E8619002FEEA
:102CFE0012D7107F3E12E8507F3212E8617F201209
:102D0E00E8617F3C12E8619002F912D7107F201221
:102D1E00E8617F2D12E8617F2012E86190030412B2
:102D2E00D7107F3E12E8617D0212E8557F3312E81C
:102D3E00617F2012E8617F3C12E8619002FC12D79D
:102D4E00107F2012E8617F2D12E8617F2012E8616A
:102D5E0090030612D7107F3E12E8617D0312E855EC
:102D6E007F3412E8617F2012E8617F3C12E86190A7
:102D7E00030212D7107F2012E8617F2D12E8617FC7
:102D8E002012E86190030912D7107F3E12E86120ED
:102D9E001903022EB0C219D2559002FFE02400FD95
:102DAE009002FEE034FEFC9002F4E0FEA3E0FFC3CE
:102DBE00E49FFF74029EFEC3EF9DEE9C5002800EB8
:102DCE009002FFE02400FF9002FEE034FEFE7C0045
:102DDE007D0A12AADB90006BEFF0900305E0240051
:102DEE00FD900304E034FEFC9002F9E0FEA3E0FF48
:102DFE00C3E49FFF74029EFEC3EF9DEE9C500280C3
:102E0E000E900305E02400FF900304E034FEFE7CE8
:102E1E00007D0A12AADB90006DEFF0900307E0240C
:102E2E0000FD900306E034FEFC9002FCE0FEA3E001
:102E3E00FFC3E49FFF74029EFEC3EF9DEE9C500203
:102E4E00800E900307E02400FF900306E034FEFEA0
:102E5E007C007D0A12AADB90006EEFF090030AE070
:102E6E002400FD900309E034FEFC900302E0FEA373
:102E7E00E0FFC3E49FFF74029EFEC3EF9DEE9C50E5
:102E8E0002800E90030AE02400FF900309E034FE56
:102E9E00FE7C007D0A12AADB900071EFF07F01121A
:102EAE00EB2B7BFF7A7579769003AB7406F07D1869
:102EBE0012E4037A75798E9003AB7406F07D2412BA
:102ECE00E4037A6B790E9003AB7406F07D3012E456
:102EDE00037A6B79269003AB7406F07D3C12E40303
:102EEE003055127A6279269003AB7406F07D541237
:102EFE00E4030242037B067D547F3F12DF1E024233
:102F0E00039002BAE06415600302305EFDFF12E921
:102F1E005A7F4912E8617F4E12E8617F3112E861F3
:102F2E007D01E4FF12E95A7F4912E8617F4E12E8F3
:102F3E00617F3212E8617D02E4FF12E95A7F491285
:102F4E00E8617F4E12E8617F3312E8617D03E4FF92
:102F5E0012E95A7F4912E8617F4E12E8617F3412FE
:102F6E00E8617D04E4FF12E95A7F4912E8617F4E61
:102F7E0012E8617F3512E8617D05E4FF12E95A7FA0
:102F8E004912E8617F4E12E8617F3612E8617D06D4
:102F9E00E4FF12E95A7F4912E8617F4E12E8617F21
:102FAE003712E8617D07E4FF12E95A7F4912E861A2
:102FBE007F4E12E8617F3812E86130401FC24090A8
:102FCE0000677405F09002DAE0FF3395E0FEC3EF80
:102FDE009464EE64809480500312EB26303324C246
:102FEE00339000677405F09002DAE0FF3395E0FE4F
:102FFE00D3EF949CEE6480947F4008E014F07F0140
:10300E0012EB2B7B017A03791512DA50900067E0F0
:10301E00D39400748094805003024203E014F07B3A
:10302E00FF7A8779569003A47405F0A37420F0A359
:10303E007403F07D3912E78A7D067F3C12E95A90BF
:10304E0002DAE0FF3395E0FE7D2D12D71702420320
:10305E009002BAE064167056FD12E8567F3112E8FF
:10306E00507F3212E8617D0212E8557F3312E8611B
:10307E007D0312E8557F3412E8617D0412E8557F16
:10308E003512E8617D0512E8557F3612E8617D063E
:10309E0012E8557F3712E8617D0712E8557F381226
:1030AE00E8617B007A00795D12DA500242039002E9
:1030BE00BAE0641760030232C090027FE0FF7D0227
:1030CE0012E45C90027FEFF09000AF74ACF0A3744A
:1030DE0033F0E4A3F09000B574ADF0A37433F0E4D4
:1030EE00A3F09000BB7472F0A37467F0E4A3F07DBC
:1030FE000212B89590027FE0C394017480948040D0
:10310E00030231A0304041C2409002D9E0FF339516
:10311E00E0FEC3EF9478EE64809480500312EB26A9
:10312E009002D9E0FC12A923E4FBFA7988784012C8
:10313E00A6E97B007A8079FF784312A5F812A95789
:10314E009002E7EEF0A3EFF020330302327EC2339B
:10315E009002D9E0FF3395E0FED3EF9488EE6480C1
:10316E00947F4008E014F07F0112EB2B9002D9E01F
:10317E00FC12A923E4FBFA7988784012A6E97B00B9
:10318E007A8079FF784312A5F812A9579002E702C8
:10319E00323B90027FE0C39402748094804003021D
:1031AE003242304041C2409002D2E0FF3395E0FE01
:1031BE00C3EF9478EE64809480500312EB26900255
:1031CE00D2E0FC12A923E4FBFA7988784012A6E932
:1031DE007B007A8079FF784312A5F812A9579002E6
:1031EE00F7EEF0A3EFF020330302327EC2339002EB
:1031FE00D2E0FF3395E0FED3EF9488EE6480947FA7
:10320E004008E014F07F0112EB2B9002D2E0FC128A
:10321E00A923E4FBFA7988784012A6E97B007A802C
:10322E0079FF784312A5F812A9579002F7EEF0A392
:10323E00EFF0803C90027FE0C39403748094805042
:10324E002F304012C2409000F1E0C3946474809419
:10325E0080500312EB26303317C2339000F1E0D3C7
:10326E009400748094804008E014F07F0112EB2BE0
:10327E009002D9E0FF3395E0FE9003A4742FF0E4A2
:10328E00FB7D4212CF6E9002D2E0FF3395E0FE90AE
:10329E0003A4742FF07B027D4212CF6E9000F1E0FA
:1032AE00FF7E00E49003A4F07B047D4212CF6E02F9
:1032BE0042039002BAE06418600302356190027F07
:1032CE00E0FF7D0212E45C90027FEFF09000AF749D
:1032DE00AFF0A37446F0E4A3F09000B57447F0A3EA
:1032EE0004F0E4A3F09000BB7427F0A304F0E4A371
:1032FE00F07D0212B8959002D7E0FEA3E0FF900396
:10330E009CEEF0A3EFF0D394E7EE64809483402715
:10331E0090039CE0FEA3E0FF7C277D1012AB307E75
:10332E00037FE8CFCDCFCECCCE12AB30EF2430FF23
:10333E00E4FB7D3412DF1E90039CE0FEA3E0FF7CD5
:10334E00037DE812AB307E007F64CFCDCFCECCCEE6
:10335E0012AB30EF2430FFE4FB7D3C12DF1E7D44C8
:10336E007F2E12DF1E90039CE0FEA3E0FF7C007D0B
:10337E006412AB307E007F0ACFCDCFCECCCE12AB57
:10338E0030EF2430FF7D4C12DF1E90039CE0FEA335
:10339E00E0FF7C007D0A12AB30ED2430FF7D54122D
:1033AE00DF1E7D5C7F5612DF1E900300E0F9640184
:1033BE007022900059E0FF7E009003A4742EF07BE3
:1033CE00027D3C12CF6E7B027D5C7F5612DF1E901B
:1033DE0002B38023E9703390005CE0FF7E0090031F
:1033EE00A4742EF07B027D3C12CF6E7B027D5C7F3F
:1033FE005612DF1E9002B4E0FF3395E0FE9003A458
:10340E007423F07B047D3C12CF6E90027FE0FF7E32
:10341E0000C39401748094805003024203EF94021F
:10342E007480948040030234B6304038C24090031A
:10343E0000E0FB7A0064017012900059E0C39450D2
:10344E00748094805019E004F08014EB4A7015904B
:10345E00005CE0C39478748094805003E004F07FA5
:10346E000112EB2B203303024203C233900300E020
:10347E00FB7A0064017015900059E0D3942174809A
:10348E0094804003E014F07F01023BCBEB4A6003D3
:10349E0002420390005CE0D3944274809480400317
:1034AE00E014F07F01023BCB90027FE0C3940374E3
:1034BE008094804003024203304046C24090030095
:1034CE00E0FB7A00640170199002B3E0FF3395E0DF
:1034DE00FEC3EF9464EE648094805020E004F0808C
:1034EE001BEB4A701C9002B4E0FF3395E0FEC3EF75
:1034FE009464EE648094805003E004F07F0112EB3C
:10350E002B203303024203C233900300E0FB7A0008
:10351E006401701C9002B3E0FF3395E0FED3EF948C
:10352E009CEE6480947F4003E014F07F01023BCB5D
:10353E00EB4A60030242039002B4E0FF3395E0FED3
:10354E00D3EF949CEE6480947F4003E014F07F01EF
:10355E00023BCB9002BAE0641960030238A69002D7
:10356E007FE0FF7D0712E45C90027FEFF09000AFEA
:10357E007410F0A304F0A37451F0E4A3F09000B51E
:10358E007410F0A304F0A37452F0E4A3F09000BB07
:10359E007410F0A304F0A37453F0E4A3F09000C1F0
:1035AE007410F0A304F0A37454F0E4A3F09000C7D9
:1035BE007410F0A304F0A37455F0E4A3F09000CDC2
:1035CE007410F0A304F0A37456F0E4A3F09000D3AB
:1035DE007410F0A304F0A37457F0E4A3F09000D994
:1035EE00741012B8887BFF7A6179F6E49003ABF021
:1035FE007D3C12E4037A6179F69003AB7402F07DA0
:10360E003C12E4037A6179F69003AB7404F07D3CCE
:10361E0012E4037A6179F69003AB7406F07D3C12E6
:10362E00E4032040030236CBC24090027FE0F9FB58
:10363E007A00700F9002ECE0C39403748094805073
:10364E007C804DEB64014A700F9002EDE0C3940252
:10365E007480948050678038E9FB7A006404701D92
:10366E009002F0E0C39404748094805003E004F060
:10367E009002F0E06402703E7404F08039EB640650
:10368E004A70129002F2E0C3940274809480502D1E
:10369E00E004F0802174EC29F582E43402F583E035
:1036AE00C3940174809480501474EC29F582E43430
:1036BE0002F583E004F0D2357F0212EB2B30335249
:1036CE00C23390027FE0FE6404701C9002F0E0D3DF
:1036DE009400748094804003E014F09002F0E06453
:1036EE0003702804F0802474EC2EF582E43402F585
:1036FE0083E0D3940074809480401790027FE0247E
:10370E00ECF582E43402F583E014F0D2357F021238
:10371E00EB2B2035030237F9C235E4900343F090CA
:10372E0002ECE0FD7C0064037007900343E04480EC
:10373E00F09002F0E064047007900343E04440F020
:10374E00ED64024C7007900343E04408F09002EDE4
:10375E00E0FD7C0064027007900343E04404F090A7
:10376E0002F2E064027007900343E04402F0E4903A
:10377E000344F09002ECE064017007900344E044CF
:10378E0080F0ED64014C7007900344E04440F090EB
:10379E0002EEE064017007900344E04420F09002D2
:1037AE00EFE064017007900344E04410F09002F0E3
:1037BE00E064017007900344E04408F09002F1E0E9
:1037CE0064017007900344E04404F09002F2E06458
:1037DE00017007900344E04402F09002F3E06401AC
:1037EE007007900344E04401F0D20E90027FE0C3D4
:1037FE0094037480948050209002ECE0FFE4FB7DF3
:10380E004812DCF39002ED12DCED9002EE7B041216
:10381E00DCEF9002EF02389A90027FE0640770238B
:10382E009002F0E0FFE4FB7D4812DCF39002F1120F
:10383E00DCED9002F2E0FF7B047D4812DCF3900297
:10384E00F3804990027FE024EAF582E43402F583A6
:10385E00E0FFE4FB7D4812DCF390027FE024EBF501
:10386E0082E43402F58312DCED90027FE024ECF565
:10387E0082E43402F583E0FF7B047D4812DCF39092
:10388E00027FE024EDF582E43402F583E0FF7B064F
:10389E007D4812DCF30242039002BAE0641A600320
:1038AE00023A1490027FE0FF7D0212E45C90027FE8
:1038BE00EFF09000AF74A0F0A304F0E4A3F090003A
:1038CE00B5743AF0A304F0E4A3F09000BB7447F093
:1038DE00A304F0E4A3F07D0212B895900012E0600C
:1038EE004F3036167BFF7A74793EE49003ABF07D51
:1038FE003C12E4037A7279EE804A900012E0FF12D5
:10390E00EA39EF64027BFF70137A7479869003AB09
:10391E00F07D3C12E4037A74799E80127A7579A652
:10392E00E49003ABF07D3C12E4037A7579BE80140B
:10393E007BFF7A6179DEE49003ABF07D3C12E40309
:10394E007A6179DEE49003ABF07D4812E4039000D7
:10395E0012E0FF7B027D3C12D39B900292E0FF7E31
:10396E0000E49003A4F07B047D3C12CF6E7BFF7AC3
:10397E0072792E9003AB7404F07D5412E4037A6EC8
:10398E0079869003AB7404F07D6012E40390027F9D
:10399E00E06401702F304012C240900012E0C394D8
:1039AE000574809480500312EB26303317C2339087
:1039BE000012E0D39400748094804008E014F07FED
:1039CE000112EB2B90027FE064026003024203308F
:1039DE004017C240900292E0C3943C748094805091
:1039EE0003E004F07F0112EB2B203303024203C2EB
:1039FE0033900292E0D39400748094804003E014DC
:103A0E00F07F01023BCB9002BAE0641B7053900230
:103A1E007FE0FF7D0112E45C90027FEFF0C3940122
:103A2E007480948050087BFF7A7D79EE801390022B
:103A3E007FE0C394027480948050097BFF7A817971
:103A4E00EE12E77B201903024203C21990027FE0B7
:103A5E0090005FF07F0112EB2BE49002BAF002426D
:103A6E00039002BAE0641C6003023BD112E455904D
:103A7E00027FEFF09000AF7438F0A304F0E4A3F0EF
:103A8E009000B5748DF0A304F0A37468F0A374C213
:103A9E00F0E4A3F09000BB748DF0A304F0A374C304
:103AAE00F0A304F0E4A3F09000C17427F0A304F097
:103ABE00A374C5F0A304F0E4A3F07D0312B8957BC4
:103ACE00FF3046067A67794E80047A677966E4900D
:103ADE0003ABF07D4812E4037BFF30301D7A67792B
:103AEE004E9003AB7402F07D4812E4037A6E793E79
:103AFE009003AB7402F07D54800C7A6279CE900301
:103B0E00AB7402F07D4812E4037BFF301E067A6B25
:103B1E00799E80047A7379C69003AB7404F07D4865
:103B2E0012E4037A6B79B69003AB7404F07D5412F1
:103B3E00E4037B067D48302F047F3180027F3512EF
:103B4E00DF1E90027FE0C39401748094805011A216
:103B5E00337240500BC240C233B2467F0112EB2B80
:103B6E0090027FE0C39402748094805011A233724D
:103B7E0040500BC240C233B2307F0112EB2B900289
:103B8E007FE0C39403748094805011A2337240502E
:103B9E000BC240C233B21E7F0112EB2B90027FE0AC
:103BAE00C39404748094804003024203A233724093
:103BBE004003024203C240C233B22F7F0112EB2BED
:103BCE000242039002BAE0641D6003023D4490027B
:103BDE007FE0FF7D0112E45C90027FEFF07E0070CB
:103BEE002A304012C240900039E0C394027480948F
:103BFE00805003E004F0303312C233900039E0D32A
:103C0E009400748094804003E014F0EF64014E70D1
:103C1E006C304033C240900039E0FF2413F582E44B
:103C2E003400F583E0FD3395E0FCC3ED9464EC6461
:103C3E00809480501274132FF582E43400F583E0E3
:103C4E0004F07F0212EB2B303333C233900039E095
:103C5E00FF2413F582E43400F583E0FD3395E0FC98
:103C6E00D3ED949CEC6480947F401274132FF582F4
:103C7E00E43400F583E014F07F0212EB2B7BFF7A25
:103C8E006179F690027FE0FF2F9003ABF0E4FD1216
:103C9E00E4037A62790E90027FE0FFC374029FC341
:103CAE009F9003ABF0E4FD12E4037A6A79AEE490E0
:103CBE0003ABF07D0C12E4037A6A79C6E49003AB91
:103CCE00F07D1812E403900039E0640270067A6900
:103CDE0079BE8019900039E0FF7E007C007D1812BD
:103CEE00AAC974762FF974693EFA7BFFE49003AB90
:103CFE00F07D2412E403900039E02413F582E434BD
:103D0E0000F583E0FF3395E0FE9003A4742FF07B63
:103D1E00027D1812CF6E900039E02413F582E43440
:103D2E0000F583E0FF9000F2E06F6004EFF0D24EFA
:103D3E0012E51B0242039002BAE0641E6003023FCA
:103D4E008F90027FE0FF7D0212E45C90027FEFF025
:103D5E00703F304012C2409002DBE0C39404748086
:103D6E0094805003E004F0303312C2339002DBE053
:103D7E00D39400748094804003E014F07BFF7A614A
:103D8E0079F6E49003ABF0FD12E4037A62790E80CB
:103D9E004590027FE06401704F304012C2409002A5
:103DAE00E5E0C39406748094805003E004F0303351
:103DBE0012C2339002E5E0D39400748094804003E5
:103DCE00E014F07BFF7A62790EE49003ABF0FD1203
:103DDE00E4037A6179F69003AB7402F0E4FD12E429
:103DEE00037A62790E023EC390027FE064026003A2
:103DFE00023ECE30404DC2409002E5E0FF9002DB25
:103E0E00E0FE75F007A42416F582E43400F583E590
:103E1E00822FF582E43583F583E0C3946474809435
:103E2E00805020EE75F007A42416F582E43400F5D8
:103E3E0083E5822FF582E43583F583E004F07F027B
:103E4E0012EB2B30334DC2339002E5E0FF9002DBD4
:103E5E00E0FE75F007A42416F582E43400F583E540
:103E6E00822FF582E43583F583E0D3940074809439
:103E7E00804020EE75F007A42416F582E43400F598
:103E8E0083E5822FF582E43583F583E014F07F021B
:103E9E0012EB2B7BFF7A62790EE49003ABF0FD12EE
:103EAE00E4037A62790E9003AB7402F0E4FD12E43F
:103EBE00037A6179F69003AB7404F0E4FD12E40327
:103ECE007BFF7A6A79AEE49003ABF07D0C12E403CB
:103EDE007A6A79C6E49003ABF07D1812E40390027F
:103EEE00DBE070067A6979A680229002DBE0FF7E25
:103EFE0000D3940074809480401B7C007D1812AA1D
:103F0E00C974BE2FF974693EFA7BFFE49003ABF0DF
:103F1E007D2812E4037BFF7A6679A69003AB7402C8
:103F2E00F07D0C12E4039002E5E0FF7E007C007D44
:103F3E001812AAC974762FF974693EFA9003AB74FD
:103F4E0002F07D1C12E4039002E5E0FF9002DBE03C
:103F5E0075F007A42416F582E43400F583E5822F6C
:103F6E00F582E43583F583E0FF7E009003A474258B
:103F7E00F07B047D0C12CF6E12CDF112E14A02429B
:103F8E00039002BAE0641F60030241E290027FE0F8
:103F9E00FF7D0412E45C90027FEFF09000AF74A0FE
:103FAE00F0A304F0E4A3F09000B57453F0A374CD25
:103FBE00F0E4A3F09000BB7452F0A374CDF0E4A330
:103FCE00F09000C17426F0A3741EF0E4A3F09000EC
:103FDE00C77424F0A304F0E4A3F07D0412B8959006
:103FEE00027FE0C394037480948040030240AB9040
:103FFE000314E07BFF60347A62799EE49003ABF0A9
:10400E007D3C12E4037A6279B6E49003ABF07D480E
:10401E0012E4039002C5E0FF7E007C007D1812AA18
:10402E00C974762FF974693EFA80207A62790EE4AB
:10403E009003ABF07D3C12E4037A677966E490035B
:10404E00ABF07D4812E4037A62790EE49003ABF094
:10405E007D5412E403900314E0FF7B027D3C12D3E7
:10406E009B7B0412D3947BFF7A6A79AE9003AB7478
:10407E0006F07D3C12E4037A6A79C69003AB7406AF
:10408E00F07D4812E403900054E075F018A42476F5
:10409E00F9746935F0FA9003AB74068046900314F8
:1040AE00E0FFE4FB7D3C12D39B7B0212D3947BFF9B
:1040BE007A6A79AE9003AB7404F07D3C12E4037A15
:1040CE006A79C69003AB7404F07D4812E403900045
:1040DE0054E075F018A42476F9746935F0FA90035B
:1040EE00AB7404F07D5412E40390027FE06401701F
:1040FE0046304020C240900314E0FB7A00700474F6
:10410E0002800BEB64024A700B9003147403F07F71
:10411E000112EB2B303320C233900314E0FB7A00F4
:10412E0064027002800BEB64034A700B90031474EC
:10413E0002F07F0112EB2B90027FE064027044309C
:10414E00401DC240900330E0C394057480948050AB
:10415E000312EB26900330E0640270037404F03017
:10416E003321C233900330E0D394007480948040A6
:10417E0008E014F07F0112EB2B900330E064037023
:10418E000204F090027FE06403702F304012C240B0
:10419E00900054E0C3940774809480500312EB2671
:1041AE00303317C233900054E0D39400748094805F
:1041BE004008E014F07F0112EB2B90027FE06404C4
:1041CE007033301930C2199002BC7402F0E49002C0
:1041DE0091F080219002BAE0642070028008900273
:1041EE00BAE06421700F90027FE0FF7D0112E45C63
:1041FE0090027FEFF0302709C227E49002BAF0D286
:10420E002E0250E79002B7E064016003024329904A
:10421E00027BE0FF7D0212E45C90027BEFF09000E7
:10422E00AF740AF0A304F0A3741DF0A304F0E4A38A
:10423E00F09000B574C0F0A304F0A3741FF0A304B3
:10424E00F0E4A3F09000BB74C0F0A304F0A3741FBD
:10425E00F0A37421F0E4A3F07D0212B89590027BD6
:10426E00E0FB7A007012301965C219301A04C21AB6
:10427E008040C221D21A803AEB64014A702830196C
:10428E004DC219303709C2377F0112EB2B803AD25B
:10429E0037C250D2357F0112EB2BC2AAD2AB758931
:1042AE001175B2088028301925C21930500BC25032
:1042BE00C2AA7F0112EB2B8015D250C237D2357FA6
:1042CE000112EB2B758991D2AAC2ABE4F5B27BFF3A
:1042DE00301A067A62792680047A62790EE49003A7
:1042EE00ABF07D3E12E4037BFF3050067A627926F6
:1042FE0080047A62790E9003AB7404F07D3E12E472
:10430E00037BFF3037067A62792680047A62790E53
:10431E009003AB7402F07D3E024FA29002B7E064B0
:10432E000260030243E890027B12E45890027BEF96
:10433E00F09000AF74B5F0A304F0A37450F0E4A3B2
:10434E00F09000B574B7F0A304F0A37424F0E4A3C6
:10435E00F09000BB74CBF0A304F0A3743AF0A30466
:10436E00F0E4A3F09000C17442F0A304F0A37447EC
:10437E00F0A304F0E4A3F07D0312B89590027BE065
:10438E00FF7E0070102019030250DBC2199002BA92
:10439E00741A024BB4EF64014E70102019030250D0
:1043AE00DBC2199002BA7410024D58EF64024E70BF
:1043BE00102019030250DBC2199002BA741F024D6D
:1043CE0058EF64034E60030250DB2019030250DBEA
:1043DE00C2199002BA740D024D589002B7E06403F0
:1043EE00600302452A90027BE0FF7D0612E45C909A
:1043FE00027BEFF09000AF7422F0A304F0E4A3F080
:10440E009000B57427F0A304F0E4A3F09000BB7401
:10441E0022F0A37424F0A304F0E4A3F09000C1747E
:10442E0086F0A37424F0A304F0E4A3F09000C77404
:10443E001FF0A37421F0A37426F0A3741EF0E4A35E
:10444E00F09000CD748FF0A304F0A37476F0A374F3
:10445E000BF0E4A3F09000D37432F0A304F0A37435
:10446E0076F0A3740BF0E4A3F07D0612B8959002DB
:10447E007BE0FF7E00700F2019030250DBC2199003
:10448E0002BA04024D58EF64014E70102019030257
:10449E0050DBC2199002BA7404024D58EF64024EFA
:1044AE0070182019030250DBC2199002BA7402F080
:1044BE00E490027FF0D2230250DBEF64034E7018BB
:1044CE002019030250DBC2199002BA7402F0E49074
:1044DE00027FF0C2230250DBEF64044E70102019ED
:1044EE00030250DBC2199002BA7403024D58EF64F6
:1044FE00054E70182019030250DBC2199002BA74CF
:10450E001DF0E490027FF0D24E0250DB2019030220
:10451E0050DBC2199002BA741E024D589002B7E0D9
:10452E006404600302466D90027B12E45890027B95
:10453E00EFF09000AF7415F0A304F0A37450F0A345
:10454E0004F0E4A3F09000B57415F0A304F0A37486
:10455E0050F0A37452F0E4A3F09000BB7415F0A3D6
:10456E0004F0A37450F0A37453F0E4A3F09000C1D0
:10457E007415F0A304F0A37450F0A37454F0E4A3E4
:10458E00F07D0312B895A2337240504BC240C23335
:10459E0090027BE0F9FB7A00C39401748094805002
:1045AE0004B249802DC3EB9402EA648094805004D7
:1045BE00B24A801EE9FB7A00C39403748094805043
:1045CE0004B24B800DC3EB9404EA648094805007D0
:1045DE00B24C7F0212EB2B7BFF3049067A67794E85
:1045EE0080047A677966E49003ABF07D4B12E403A6
:1045FE007BFF304A067A67794E80047A6779669037
:10460E0003AB7402F07D4B12E4037BFF304B067A52
:10461E0067794E80047A6779669003AB7404F07DF7
:10462E004B12E4037BFF304C067A67794E80047A96
:10463E006779669003AB7406F07D4B12E403201984
:10464E00030250DBC2199002BA7405F0E490027FA7
:10465E00F0D22E90027BE004900072F00250DB90BC
:10466E0002B7E06405600302484990027BE0FF7DDB
:10467E000412E45C90027BEFF09000AF7410F0A394
:10468E00742FF0A304F0A304F0E4A3F09000B5742B
:10469E0032F0A304F0A304F0A304F0E4A3F090001E
:1046AE00BB744CF0A37435F0A3744DF0A304F0E486
:1046BE00A3F09000C17410F0A3742FF0A37477F0E0
:1046CE00A304F0E4A3F09000C7741DF0A304F0A3BC
:1046DE00741BF0A3742DF0E4A3F07D0412B8959032
:1046EE00027BE0FF7E00C394017480948050102002
:1046FE0019030250DBC2199002BA7407024BB4C3FD
:10470E00EF9402EE6480948050102019030250DB67
:10471E00C2199002BA7408024D58C3EF9403EE64A6
:10472E00809480501C2019030250DBC2199002BAEB
:10473E007413F0D22EE490027FF0D256D2160250AD
:10474E00DBC3EF9404EE64809480501020190302B2
:10475E0050DBC2199002BA7412024D58C3EF940581
:10476E00EE6480948040030250DB304014C24090CF
:10477E000290E0C3940374809480500512EB26D20D
:10478E0029303319C233900290E0D3940074809490
:10479E0080400AE014F07F0112EB2BD22990029098
:1047AE00E0F9640370167B067D3C7F3112DF1E7DBF
:1047BE00447F3012DF1E7D4C7F30804DE9640270E5
:1047CE00167B067D3C7F2012DF1E7D447F3212DF7A
:1047DE001E7D4C7F358032E9640170167B067D3C70
:1047EE007F2012DF1E7D447F2012DF1E7D4C7F3620
:1047FE008017E97B067D3C70217F2012DF1E7D44F1
:10480E007F2012DF1E7D4C7F3212DF1E7D547F6DA6
:10481E0012DF1E7D5C7F570250037F4512DF1E7D27
:10482E00447F5212DF1E7D4C7F5212DF1E7D547F5D
:10483E004F12DF1E7D5C7F520250039002B7E0FFE5
:10484E00640670030250DBEF640760030249BA90FE
:10485E00027B12E45890027BEFF09000AF741FF0D1
:10486E00A304F0A37426F0A3741EF0E4A3F090004A
:10487E00B5741FF0A37421F0A37462F0A304F0E4E6
:10488E00A3F09000BB7436F0A304F0A374A0F0A3C1
:10489E0004F0E4A3F09000C17436F0A304F0A37406
:1048AE003AF0A304F0E4A3F07D0312B89590027BD6
:1048BE00E0FF7E00C3940174809480501130196C17
:1048CE00C2199002BA740FF0E490027F8020C3EFF9
:1048DE009402EE64809480501A301950C2199002DE
:1048EE00BA7415F0E490027FF09000677414F0D261
:1048FE002E8039C3EF9403EE64809480402E3040B6
:10490E0011C240900058E0940574809480500312B8
:10491E00EB26303317C233900058E0D394007480E6
:10492E0094804008E014F07F0112EB2B9002C6E059
:10493E00D394007480948040357BFF7A62790E9018
:10494E0003AB7404302B0CF07D4812E4037A6779C4
:10495E004E800AF07D4812E4037A6779669003ABC5
:10496E007404F07D5412E4037A62790E80247BFF86
:10497E007A6279CE9003AB7404F07D4812E4037A28
:10498E006679469003AB7404F07D5412E4037A68A2
:10499E00793E9003AB7404F07D6012E403900058EE
:1049AE00E0FF7B067D4812D39B0250DB9002B7E0FE
:1049BE0064086003024BBC90027BE0FF7D0812E4AA
:1049CE005C90027BEFF09000AF743EF0A304F0A376
:1049DE007412F0A3740DF0E4A3F09000B57485F09A
:1049EE00A37498F0A37412F0A3740DF0E4A3F090E6
:1049FE0000BB74AFF0A37446F0A37412F0A3740D51
:104A0E00F0E4A3F09000C1743AF0A37484F0A374A0
:104A1E0091F0A304F0E4A3F09000C7749AF0A304FD
:104A2E00F0A37490F0A3749CF0E4A3F09000CD7406
:104A3E0024F0A304F0A374A7F0A304F0E4A3F09071
:104A4E0000D37460F0A304F0A304F0A304F0E4A375
:104A5E00F09000D97449F0A304F0A3742FF0A3745E
:104A6E004BF0E4A3F09000DF746AF0A304F0A3749B
:104A7E0020F0A37488F0E4A3F07D0812B89590029C
:104A8E007BE0FF7E00C39401748094805010201947
:104A9E00030250DBC2199002BA740E024BB4C3EF7C
:104AAE009402EE6480948050102019030250DBC2F1
:104ABE00199002BA741C024D58C3EF9403EE648031
:104ACE00948050102019030250DBC2199002BA7460
:104ADE0018024D58C3EF9404EE64809480503B301E
:104AEE00190DC2199002BA741BF0E490027FF0A265
:104AFE00337240500BC240C233B2427F0112EB2BD5
:104B0E007BFF3042067A67794E80047A6779669029
:104B1E0003AB7404F07D48024FA290027BE0FF7E4F
:104B2E0000C3940574809480500F2019030250DB4B
:104B3E00C2199002BA7411806DC3EF9406EE6480B0
:104B4E00948050132019030250DBC2199002BA74DC
:104B5E0016F0D22E0250D6C3EF9407EE64809480E6
:104B6E00500F2019030250DBC2199002BA74148040
:104B7E0035C3EF9408EE64809480500F2019030221
:104B8E0050DBC2199002BA740A801BC3EF9409EE6F
:104B9E006480948040030250DB2019030250DBC274
:104BAE00199002BA740CF0E490027F02508B9002BE
:104BBE00B7E0FF640970030250DBEF640A60030282
:104BCE004D5C90027B12E45890027BEFF09000AFA8
:104BDE0074A0F0A304F0E4A3F09000B5743AF0A32F
:104BEE0004F0E4A3F09000BB74AAF0A304F0E4A3D5
:104BFE00F09000C1744DF0A304F0E4A3F07D031215
:104C0E00B8959000F4E060579002B1E06401701521
:104C1E007BFF7A7179CE9003ABF07D3C12E4037A80
:104C2E007179E6804E9002B1E0640270157BFF7AD6
:104C3E007479869003ABF07D3C12E4037A74799E0E
:104C4E0080319002B1E0640370337BFF7A6979168C
:104C5E009003ABF07D3C12E4037A69792E80147BCD
:104C6E00FF7A677966E49003ABF07D3C12E4037A39
:104C7E0062790EE49003ABF07D4812E4039000F4E9
:104C8E00E0FF7B027D3C12D39B900053E0FF3395F7
:104C9E00E0FE9003A4742FF07B047D4212CF6E9041
:104CAE00027BE064017046304020C2409000F4E088
:104CBE00FB7A0070047402800BEB64024A700B9056
:104CCE0000F47403F07F0112EB2B303320C23390CB
:104CDE0000F4E0FB7A0064027002800BEB64034A7E
:104CEE00700B9000F47402F07F0112EB2B90027B9C
:104CFE00E06402703D304019C240900053E0FF3333
:104D0E0095E0FEC3EF9478EE64809480500312EB2E
:104D1E002630331EC233900053E0FF3395E0FED3AE
:104D2E00EF9488EE6480947F4008E014F07F0112C7
:104D3E00EB2B90027BE0640360030250DB2019032F
:104D4E000250DBC2199002BA7417F00250D69002CC
:104D5E00B7E0640B600302500990027B12E4589096
:104D6E00027BEFF09000AF74A2F0A304F0E4A3F086
:104D7E009000B574A4F0A304F0E4A3F09000BB740B
:104D8E00A6F0A374A9F0E4A3F09000C174A6F0A35A
:104D9E0074ABF0E4A3F07D0312B8959002EAE075CF
:104DAE00F018A42476F9746935F0FA7BFFE49003C9
:104DBE00ABF07D3C12E4037A68793EE49003ABF0ED
:104DCE007D4812E40390027BE0FF7E00C3940174E1
:104DDE008094805059304025C2409002EAE0FDC3D5
:104DEE0094057480948050159002DCEDF09002EAE8
:104DFE0004F0D22DD20FD231E4900070F0203303A4
:104E0E000250DBC2339002EAE0FDD394007480942A
:104E1E008050030250DB9002DCEDF09002EA14F0B9
:104E2E00D22DD20FD231E4900070F00250DBC3EFDE
:0C4E3E009402EE648094804003024F3A1E
:104E4A00E490039FF0F090039FE0FFC394077480FF
:104E5A0094805035900070E0FEEFB5060512E03000
:104E6A00801F90039FE0FE246AF582E43403F583F1
:104E7A00E02420FFEE75F008A4243CFD7B0212DF3B
:104E8A001E90039FE004F080BD30403FC240900076
:104E9A0070E0FF246AF582E43403F583E004F074D9
:104EAA006A2FF582E43403F583E0D3945A7480942C
:104EBA0080400F900070E0246AF582E43403F583A1
:104ECA00E4F012E02CD22DD254D231303342C23324
:104EDA00900070E0FF246AF582E43403F583E0D39E
:104EEA00940074809480400F746A2FF582E434032E
:104EFA00F583E014F08010900070E0246AF582E4F3
:104F0A003403F583745AF012E02CD22DD254D231E4
:104F1A002019030250DBC219900070E004F0E0D3BC
:0D4F2A0094067480948050030250DBE4F084
:104F37000250DB90027BE0FF7E00C39403748094F1
:104F47008050030250DBEF94047480948040030286
:104F570050DB30190BC219301304D2588002D21318
:104F67002013030250DB302738C227C213C2587BF5
:104F7700FF7A62790E9003AB7406F07D3C12E4036E
:104F87007A62790E9003AB7406F07D4812E4037AD7
:104F970062790E9003AB7406F07D5412E40302505D
:104FA700DB7BFF7A6E79B69003AB7406F07D3C121B
:104FB700E4037A6C79169003AB7406F07D4812E42B
:104FC700033058327A6279269003AB7406F07D5429
:104FD70012E403900067E004F0E0D3940474809433
:104FE7008050030250DBE4F012C465C213C258D2EA
:104FF70054D22D0250DB7B067D547F3F12DF1E0209
:1050070050DB9002B7E0640C60030250DB90027B38
:1050170012E45890027BEFF09000AF7429F0A304DC
:10502700F0A304F0A304F0E4A3F09000B5742EF00D
:10503700A37416F0A37424F0A304F0E4A3F0900083
:10504700BB741FF0A304F0A37408F0A304F0E4A357
:10505700F09000C17410F0A304F0A37426F0A374B9
:105067001EF0E4A3F07D0312B89590027BE0FF7E6B
:1050770000C3940174809480500F301957C219905F
:1050870002BA740BF0D22E804BC3EF9402EE648009
:105097009480500D30193DC2199002BA7406F08001
:1050A7002EC3EF9403EE64809480500D301925C20F
:1050B700199002BA7419F08016C3EF9404EE648055
:1050C7009480501030190DC2199002BA7409F0E497
:1050D70090027FF0302709C227E49002B7F0D22E62
:1050E700C240C233C2190205E990006FE0FF7D0A92
:1050F70012E45C90006FEFF09000AF74D1F0A3045E
:10510700F0A37427F0A304F0E4A3F09000B57406AD
:10511700F0A304F0A304F0A304F0E4A3F09000BB11
:105127007419F0A304F0A304F0A304F0E4A3F0902F
:1051370000C17410F0A304F0A304F0A3740DF0E40D
:10514700A3F09000C77413F0A304F0A304F0A30422
:10515700F0E4A3F09000CD740AF0A304F0A304F0E8
:10516700A304F0E4A3F09000D374C0F0A304F0A369
:10517700740CF0A304F0E4A3F09000D97468F0A3D2
:1051870004F0A37416F0A374A9F0E4A3F09000DF71
:105197007408F0A3749FF0A3740EF0A304F0E4A3C3
:1051A700F09000E5742BF0A304F0A3740EF0A304B1
:1051B700F0E4A3F09000EB7417F0A304F0A37412CB
:1051C700F0A3740DF0E4A3F07D0A12B89590006F78
:1051D700E07025301904C219D2172017030252C8EC
:1051E7007F0212EB2B7BFF7A627926E49003ABF008
:1051F7007D5012E4030252C890006FE0FF7E006406
:105207000170172019030252C8C2199002B704F09F
:10521700E490027BF0D22E0252C8EF64024E701067
:105227002019030252C8C2199002B774020252C26F
:10523700EF64034E700F2019030252C8C21990027F
:10524700B774038076EF64044E700C301973C2197B
:105257009002B774048064EF64054E700C301961D6
:10526700C2199002B774058052EF64064E700C3075
:10527700194FC2199002B774078040EF64074E7048
:105287000C30193DC2199002B7740A802EEF6408DA
:105297004E700C30192BC2199002B7740B801CEF9B
:1052A70064094E700C301919C2199002B7740C803A
:1052B7000A30190DC2199002B77408F0E490027B06
:1052C700F030270FC227E4900271F090006FF0D200
:1052D7002EC217301902C219304002C240203303D0
:1052E7000205E9C2330205E9302E0CC22E7A757920
:1052F700EE12E77912CB069002ADE075F00A84242E
:1053070030FFE4FB7D4012DF1E9002ADE075F00A2E
:1053170084E5F02430FF7D4812DF1E900055E075CC
:10532700F00A842430FF7D5512DF1E900055E0758A
:10533700F00A84E5F02430FF7D5D12DF1E90000047
:10534700E075F00A842430FF7D6A12DF1E900000AA
:10535700E075F00A84E5F02430FF7D7212DF1E7DD0
:10536700027F2812E95A9002B8E075F00A842430C7
:10537700FF12E8619002B8E075F00A84E5F0243086
:10538700FF12E861E4FF12E58D7F2412E58D90009E
:10539700F5E075F00A842430FF12E8619000F5E02B
:1053A70075F00A84E5F02430FF12E8617B057D4A39
:1053B70030A0047F7B80027F7C12DF1EA2A282A125
:1053C70050087B057D527F7E8010A2A1B0A27B058D
:1053D7007D5250047F7D80027F7F12DF1EA2A48250
:1053E700A350087B057D5A7F7E8010A2A3B0A47BC3
:1053F700057D5A50047F7D80027F7F12DF1E7B056B
:105407007D6230A6047F7B80027F7C12DF1E7B05D6
:105417007D6A30A7047F7B80027F7C12DF1E7D02BE
:105427007F4E30443212E95A7F2012E8617F3512ED
:10543700E8617F5612E861E4FF12E58D7F2D12E8DF
:1054470061E4FF12E58D7F5512E8617F5312E86131
:105457007F4212E861801812E95A9002D7E0FEA352
:10546700E0FF90039CEEF0A3EFF07D2E12D7177D9F
:10547700047F1712E95A900332E0FF602590039CDE
:10548700E4F0A3EFF0E0F8E4F0E890039CF0900379
:1054970033E0FF90039DE02FF090039CE03400F091
:1054A7008007E490039CF0A3F090039CE0FEA3E048
:1054B700FF7D2E12D71712EA34EF64037031900282
:1054C700B2E0FFC390039DE09F7480F890039CE0D7
:1054D700648098500E7B0112E1D390026FE0440183
:1054E700F0801412E1D190026FE054FEF0800812B0
:1054F700E1D1E490026FF07D037F1712E95A900320
:1055070034E0FF602590039CE4F0A3EFF0E0F8E4BB
:10551700F0E890039CF0900335E0FF90039DE02FA7
:10552700F090039CE03400F08007E490039CF0A324
:10553700F090039CE0FEA3E0FF7D2E12D71712EA3E
:1055470034EF6403703B90027EE0FFC390039DE05D
:105557009F7480F890039CE064809850127B017DD3
:10556700047F3412E1D790026FE04402F08020E418
:10557700FB7D047F3412E1D790026FE054FDF08089
:105587000EE4FB7D047F3412E1D7E490026FF07DD7
:10559700057F1712E95A900331E075F002A4FFAEB8
:1055A700F090039CEEF0A3EFF0D39463EE64809445
:1055B70080400E7F3112E8617F3012E8617F3080D2
:1055C7002E7F2012E86190039CE0FEA3E0FF7C00A1
:1055D7007D0A12AB30EF2430FF12E86190039CE0A4
:1055E700FEA3E0FF7C007D0A12AB30ED2430FF12F2
:1055F700E86112EA34EF6403703B9002D1E0FFC325
:1056070090039DE09F7480F890039CE0648098501D
:10561700127B017D057F3412E1D790026FE04404CD
:10562700F08020E4FB7D057F3412E1D790026FE024
:1056370054FBF0800EE4FB7D057F3412E1D7E49044
:10564700026FF09002E9E075F002A4FF90039CE579
:10565700F0F0A3EFF07D067F1712E95AD3E09463C9
:1056670090039CE064809480400E7F3112E8617F54
:105677003012E8617F30802E7F2012E86190039C12
:10568700E0FEA3E0FF7C007D0A12AB30EF2430FF81
:1056970012E86190039CE0FEA3E0FF7C007D0A1204
:1056A700AB30ED2430FF12E86112EA34EF64037087
:1056B7003B9002C2E0FFC390039DE09F7480F89087
:1056C700039CE064809850127B017D067F3412E1D1
:1056D700D790026FE04408F08020E4FB7D067F341A
:1056E70012E1D790026FE054F7F0800EE4FB7D06DD
:1056F7007F3412E1D7E490026FF0301208E4FF1212
:10570700D4BE0257D89002CBE090037C6044E0FE01
:10571700A3E0FF7C007D0A12AAC97D2212AADBC37F
:1057270074FF9FFF12D4BE7D027F0612E95A9003D1
:105737007CE0FEA3E0FF7C007D1412AAC97DA912BC
:10574700AADBC374649F90039DF0E49E90039CF0D2
:105757008037E0FEA3E0FF7C007D0A12AAC97D2204
:1057670012AADB12D4BE7D027F0612E95A90037C8F
:10577700E0FEA3E0FF7C007D1412AAC97DA912AA4E
:10578700DB90039CEEF0A3EFF090039CE0FAA3E01C
:10579700FB64644A700E7F4112E8617F4C12E86136
:1057A7007F4C802A7C007D0AAF03AE0212AB30EF3C
:1057B7002430FF12E86190039CE0FEA3E0FF7C0029
:1057C7007D0A12AB30ED2430FF12E8617F2512E825
:1057D700612045030258A990006CE0FF9002D3E0D6
:1057E7006F600302589FEF701F7BFF7A877956908F
:1057F70003A47404F0A37420F0A37403F07D4D1286
:10580700E78A7D057F50807390006CE06401701F0C
:105817007BFF7A8779569003A47402F0A37420F073
:10582700A37403F07D5A12E78A7D037F5D804C9055
:10583700006CE06402701F7BFF7A8779569003A49F
:105847007402F0A37420F0A37403F07D0512E78AB5
:105857007D037F08802590006CE0640370207BFF48
:105867007A8779569003A47404F0A37420F0A37484
:1058770003F07D1112E78A7D057F1412E95A900023
:105887006CE024DDF582E43402F583E0FF3395E034
:10589700FE7D2D12D7178002D22E90006CE0900269
:1058A700D3F07D077F0612E95A9002CCE06401909D
:1058B70002E07008E0FFC3747D9F8003E0247DFF52
:1058C70012DE587D077F4312E95A9002C9E064014E
:1058D7009002DD7008E0FFC3747D9F8003E0247DA4
:1058E700FF12DE589002CBE064019002DF7008E0FF
:1058F700FFC3747D9F8003E0247DFFE4FD12AD812B
:105907009002CAE064019002DE7008E0FFC3747D74
:105917009F8003E0247DFF7D7B12AD81120006028C
:1059270005E9900313E0FF640370030205E9EF64E0
:1059370004702B302D12C22D300F05C20F12C7D0A5
:10594700305405C25412952A2031030205E9C231A9
:105957009002EAE09002DCF0129E020205E9900351
:0D59670013E0640560030205E9F00205E9A4
:03000B00028983E4
:10898300C0E0C0F0C083C082C0D075D000C000C0BA
:1089930001C002C003C004C005C006C007758AE059
:1089A300758CB1D2329002E6E004F0E0D3943174D6
:1089B3008094804008E4F0900000E004F090000010
:1089C300E0D3943B748094804008E4F0900055E039
:1089D30004F0900055E0D3943B748094804008E405
:1089E300F09002ADE004F09002ADE0D394637480A4
:1089F300948040037463F03036529002B0E004F088
:108A0300E0D39431748094804008E4F09000F5E062
:108A130004F09000F5E0D3943B748094804008E424
:108A2300F09002B8E004F09002B8E0D3943B748075
:108A3300948040037463F0900292E0FF9002B8E0E8
:108A4300C39F4004D2148006C2148002C21430C7EC
:108A5300519002AEE4F0C234301879C21890035D2D
:108A630004F0900271E060279002BAE0FF7E006498
:108A73000B7004D252805DEF64134E7007C25690A0
:108A83000271804DD22E900271E4F0C2178045D25C
:108A93002E9002717401F09002B7E4F09002BAF0E4
:108AA3008032D218303404C21880069002AEE0043B
:108AB300F09002AEE0D39464748094804016E4F0A6
:108AC300C218D234900271E0700AB21290035D743E
:108AD30002F0D22E301E2E20122B90037FE004F0E2
:108AE300700690037EE004F0D390037FE094F4904B
:108AF300037EE09401400EE4F0A3F0D212D22E9054
:108B0300035D7402F0304516900068E004F0E0D392
:108B13009431748094804006E4F0C245D22E3048EC
:108B23001690006AE004F0E0D3944B748094804084
:108B330006E4F0C248D22D900300E0606BAE2DAF87
:108B43002EE4FCFD7BE87A03F9F812ABC6C006C03D
:108B5300079002B3E0FF3395E0FEC374E89FFF7410
:108B6300039EAB07FA3395E0F9F8D007D00612E875
:108B73000CEC12A9197BF07AA779C6783D12A6E905
:108B830012A9579002D7EEF0FCA3EFF0FD90005925
:108B9300E075F00AA4FFC3ED9FEC95F05005D253A6
:108BA300028C31C253028C31AE2DAF2EE4FCFD7B1F
:108BB300E87A03F9F812ABC6C006C0079002B4E026
:108BC300FF3395E0FEC374E89FFF74039EAB07FA7F
:108BD3003395E0F9F8D007D00612E80CEC12A91986
:108BE3007B067A817915783E12A6E912A95790027D
:108BF300D7EEF0FCA3EFF0FD90005CE075F00AA463
:108C0300FFC3ED9FEC95F050239002D7E0FEA3E065
:108C1300FF9490EE9401400EEF9458EE94025006A8
:108C2300D244C2538008C244D2538002C253201498
:108C33000920530690026FE060089000627403F00D
:108C4300801390035DE09000626008F090035DE4A0
:108C5300F08002E4F0204603028D3A900073E004B2
:108C6300F0900062E07003028D3A64017016C2B4A2
:108C7300900073E0D3940374809480400790006263
:108C8300E4F0D2B4900062E064027016C2B49000C3
:108C930073E0D3941E748094804007900062E4F0E4
:088CA300D2B490026FE06053AF
:108CAB00900073E075F05084AFF0900381EFF07E8D
:108CBB0000C3748094804009EF940A7480948040C0
:108CCB002AC3EF9414EE64809480400AEF941EEE56
:108CDB00648094804015C3EF9428EE6480948040A8
:108CEB000EEF9446EE648094805004C2B48047D259
:018CFB00B4C4
:108CFC00804330531B900073E075F01484C3E5F08F
:108D0C00940A748094804004C2B48029D2B4802523
:108D1C00301422900073E075F03284C3E5F0941E99
:108D2C00748094804004C2B4800BD2B4800790004D
:108D3C0073E4F0D2B490005630A0057401F08003B7
:108D4C007403F0A2A282A150089000577402F08024
:108D5C0011A2A1B0A290005750057401F0800374C9
:108D6C0003F0A2A482A3500890005A7402F0801160
:108D7C00A2A3B0A490005A50057401F080037403B0
:108D8C00F090005D30A6057401F080037403F09040
:108D9C00005E30A7057401F080037403F090031497
:108DAC00E0FF607812EA39EF64017021900330E043
:108DBC00FF601312EA39EF64019002C57003F08072
:108DCC005B7403F080569002C5E4F0804F9003145E
:108DDC00E0FF12EA39EF64027023900330E0FF6089
:108DEC001412EA39EF64019002C5700404F0802C6F
:108DFC007404F080279002C57401F0801F9003303A
:108E0C00E0FF601212EA39EF64019002C570028033
:108E1C00087405F080069002C57402F0900058E0CA
:108E2C00FF601012EA39EF64037004D22B8006C283
:108E3C002B8002C22B900012E0FF602E12EA39EF59
:108E4C0064037004D2368024900012E0FF12EA39D9
:108E5C00EF64027004C2368013C2369002B0E4F0A4
:108E6C009000F5F09002B8F08002C23690005BE002
:108E7C00FF601012EA39EF64037004D25B8006C203
:108E8C005B8002C25B9000F4E0FF600812EA39904C
:108E9C0002B1EFF09002B1E06401702A900053E04F
:108EAC00FC12A923E4FBFA7988784012A6E97B002E
:108EBC007A8079FF784312A5F812A95790027CEEBC
:108ECC00F0A3EFF080719002B1E06403706990023E
:108EDC00F7E0FEA3E0FFD390027DE09F90027CE0E0
:108EEC009E4009EEF0A3EFF0D20DC2119002E7E024
:108EFC00FEA3E0FFC390027DE09F90027CE09E50B9
:108F0C0009EEF0A3EFF0C20DD2113011149000F164
:108F1C00E0FF90027DE02FF090027CE03400F080C6
:108F2C0016300D139000F1E0FFC390027DE09FF02E
:108F3C0090027CE09400F0E4FF12E7C87F0112E796
:108F4C00C87F0212E7C87F0312E7C87F0412E7C884
:108F5C007F0512E7C87F0612E7C87F0712E7C890A3
:108F6C00006BE0FDAF3AAE3912E89B90003BEEF09F
:108F7C00A3EFF090006DE0FDAF3CAE3B12E89B9090
:108F8C00003DEEF0A3EFF090006EE0FDAF36AE3595
:108F9C0012E89B90003FEEF0A3EFF0900071E0FD23
:108FAC00AF38AE3712E89B900041EEF0A3EFF030F3
:108FBC0012169002CBE090003F60097403F0A3748A
:108FCC00FFF08004E4F0A3F0301E2D9002CBE060A3
:108FDC0011C3900040E094F590003FE094035018CA
:108FEC00800FD3900040E0940A90003FE094004042
:108FFC000790037EE4F0A3F0E4FF12C6297F011270
:10900C00C6297F0212C6297F0312C6297F0412C605
:10901C00297F0512C6297F0612C6297F0712C62989
:10902C00E4FF12BCD57F0112BCD57F0212BCD5E483
:10903C00FF12B5827F0112B5827F0212B5827F03C7
:10904C0012B5827F0412B582305B197D01E4FF12E8
:10905C00DDB57D017F0112DDB57D017F0212DDB52D
:10906C007D018016E4FDFF12DDB5E4FD7F0112DD0C
:10907C00B5E4FD7F0212DDB5E4FD7F0312DDB5E43E
:10908C00FD7F0412DDB5E4FD7F0512DDB5E4FD7F47
:10909C000612DDB5E4FD7F0712DDB5E4FF12E2B880
:1090AC000F12E2B830490A9002EBE09000F312E4A0
:1090BC00B8304A0A9002F6E09000F612E4B8304B51
:1090CC000D9002FBE0FF90026EE0FD12E4BB304C11
:1090DC000D900301E0FF900270E0FD12E4BB74FF01
:1090EC00255EF55E7401355DF55D74FF2560F560F8
:1090FC007401355FF55F74FF2562F56274013561AB
:10910C00F56174FF2564F56474013563F56374FFD0
:10911C002566F56674013565F56574FF2568F56897
:10912C0074013567F56774FF256AF56A7401356952
:10913C00F56974FF256CF56C7401356BF56B900358
:10914C0014E060349002C5E02476F582E43403F533
:10915C0083E0FF7E007C027DE412AAC97C007D6462
:10916C0012AADBEF248FFFE43EFE900054E025E0D2
:10917C00245DF8A60608A6077B007A00795D12E943
:10918C0011900272E025E0245DF8E6FF08E69003FA
:10919C004DCFF0A3EFF0900273E025E0245DF8E6EC
:1091AC00FF08E690034FCFF0A3EFF0900274E02598
:1091BC00E0245DF8E6FF08E6900351CFF0A3EFF052
:1091CC00900275E025E0245DF8E6FF08E690035375
:1091DC00CFF0A3EFF0900276E025E0245DF8E6FFF7
:1091EC0008E6900355CFF0A3EFF0900277E0FF254F
:1091FC00E0245DF8E6FD08E6900357CDF0A3EDF012
:10920C00900278E0FE25E0245DF8E6FD08E6900388
:10921C0059CDF0A3EDF0900279E0FD25E0245DF846
:10922C00E6FB08E690035BCBF0A3EBF09002C6E004
:10923C00D39400748094805003029320E014F020A7
:10924C002B03029320900272E025E02415F582E4B2
:10925C003403F583E0FBA3E090034DCBF0A3EBF0DC
:10926C00900273E025E02415F582E43403F583E0E5
:10927C00FBA3E090034FCBF0A3EBF0900274E0253E
:10928C00E02415F582E43403F583E0FBA3E09003BE
:10929C0051CBF0A3EBF0900275E025E02415F5829C
:1092AC00E43403F583E0FBA3E0900353CBF0A3EB92
:1092BC00F0900276E025E02415F582E43403F58382
:1092CC00E0FBA3E0900355CBF0A3EBF0EF25E024FB
:1092DC0015F582E43403F583E0FBA3E0900357CB50
:1092EC00F0A3EBF0EE25E02415F582E43403F583CE
:1092FC00E0FFA3E0900359CFF0A3EFF0ED25E024BD
:10930C0015F582E43403F583E0FFA3E090035BCF13
:10931C00F0A3EFF090029DE025E0245DF8E6F54D1A
:10932C0008E6F54EA3E025E0245DF8E6F54F08E6E7
:10933C00F550A3E025E0245DF8E6F55108E6F5527A
:10934C00A3E025E0245DF8E6F55308E6F554A3E028
:10935C0025E0245DF8E6F55508E6F556A3E025E092
:10936C00245DF8E6F55708E6F558A3E025E0245D02
:10937C00F8E6F55908E6F55AA3E025E0245DF8E691
:10938C00F55B08E6F55C90035E74A1F090034DE08C
:10939C00FCA3E0FDAE047802CEC313CE13D8F99033
:1093AC00035FF0AE04ED7806C333CE33CED8F9901C
:1093BC000360F090034FE0FCA3E0FDECC4F854F024
:1093CC00C8EDC4540F48FF900360E02FF0EDC4F8D3
:1093DC00540FC868FFA3EFF0900351E0FCA3E0FD2D
:1093EC00AE047806CEC313CE13D8F9FF900361E018
:1093FC002FF0AE04ED7802C333CE33CED8F9900300
:10940C0062F0900353E0FCA3E0FDECFF900362E0FC
:10941C002FF0A3EDF0900355E0FCA3E0FDAE047833
:10942C0002CEC313CE13D8F9900364F0AE04ED78DA
:10943C0006C333CE33CED8F9900365F0900357E0D2
:10944C00FCA3E0FDECC4F854F0C8EDC4540F48FF85
:10945C00900365E02FF0EDC4F8540FC868FFA3EF3C
:10946C00F0900359E0FCA3E0FDAE047806CEC313E4
:10947C00CE13D8F9FF900366E02FF0AE04ED78021E
:10948C00C333CE33CED8F9900367F090035BE0FC86
:10949C00A3E0FDECFF900367E02FF0AF05A3EFF026
:1094AC0090035EE0900325F090035FE0900326F0BC
:1094BC00900360E0900327F0900361E0900328F0A4
:1094CC00900362E0900329F0900363E090032AF08C
:1094DC00900364E090032BF0900365E090032CF074
:1094EC00900366E090032DF0900367E090032EF05C
:1094FC00A3EFF0304E0DC24E9000F2E0FC12A92307
:10950C0012C96FD007D006D005D004D003D002D03A
:0E951C0001D000D0D0D082D083D0F0D0E03289
:0300130002D835DB
:10D83500C0E0C0F0C083C082C0D075D000C000C0B9
:0DD8450001C002C003C004C005C006C0073A
:10D85200AF8DEF7F00FEAD8BEF2DFFE43EFE758BAB
:10D8620000758D00C3EF94F4EE9401500302D92A9F
:10D87200C3EF94D6EE9406502A900065E0FDC3945F
:10D8820008748094805013EF24A3FBEE34FDFAED6C
:10D8920025E0246DF8A60208A603900065E004F0D6
:10D8A20002D92FD3EF94B8EE940B407CEF94B0EEF4
:10D8B20094365074900065E0FF7E00940574809465
:10D8C20080406AEF940B748094805061E4F090027F
:10D8D200C6E0C39414748094805004E02405F0E4FC
:10D8E200FFEFC39408748094805032EF25E0246DDA
:10D8F200F8E6FC08E6FD9002DAE0FB3395E0FAEB8D
:10D902002DFDEA3CCD2BCD3AFCEF25E02415F58226
:10D91200E43403F583ECF0A3EDF00F80C47B017ACD
:0DD9220003791512E9118005900065E4F00D
:10D92F00D007D006D005D004D003D002D001D0004C
:0BD93F00D0D0D082D083D0F0D0E032F6
:03001B0002CC8391
:0FCC8300C0E0C0F0C083C082C0D075D000C00632
:10CC9200C28E20370302CDE2900061E004F0E0147E
:10CCA200B41200400302CDE290CCB875F003A4C5E3
:10CCB2008325F0C5837302CCEE02CD9102CD06022C
:10CCC200CD9102CD1E02CD9102CD3502CD9102CD84
:10CCD2004C02CD9102CD6302CD9102CD7A02CD916B
:10CCE20002CD9302CD9102CDCB02CDD5C2B3758BCD
:10CCF20070758DFEC374A7954E900398F074FD95E0
:10CD02004D02CDA8C2B3758B70758DFEC374A79505
:10CD120050900398F074FD954F02CDA8C2B3758B65
:10CD220070758DFEC374A79552900398F074FD95AB
:10CD3200518073C2B3758B70758DFEC374A7955401
:10CD4200900398F074FD9553805CC2B3758B707537
:10CD52008DFEC374A79556900398F074FD95558087
:10CD620045C2B3758B70758DFEC374A79558900339
:10CD720098F074FD9557802EC2B3758B70758DFE39
:10CD8200C374A7955A900398F074FD955980178043
:10CD920028C2B3758B70758DFEC374A7955C900322
:10CDA20098F074FD955B900397F0E0FEA3E090008D
:10CDB20063F0EE900060F08027D2B3900063E0F55C
:10CDC2008B900060E0F58D8017C2B3758B70758D06
:10CDD200FE800DD2B3758BF0758DD8900061E4F0B2
:02CDE200D28EEF
:0DCDE400D006D0D0D082D083D0F0D0E03285
:03003B0002B1CB44
:10B1CB00C0E0C0F0C083C082C0D075D000C000C04A
:10B1DB0001C002C003C004C005C006C00720D803CD
:10B1EB0002B382C2D89002C3E0FEA3E0F5EAEEF50B
:10B1FB00FAE024C4F09002C3E03409F0900380E03D
:10B20B0004F0E014B40800400302B56790B2257552
:10B21B00F003A4C58325F0C5837302B23D02B2656A
:10B22B0002B28D02B2B502B2DD02B30502B32D023A
:10B23B00B355AFBD753D008F3EAE3DE53E7802C3C5
:10B24B0033CE33CED8F9F53E8E3DAFBE2FF53EE46F
:10B25B00353DF53D75BC8902B567AFBD753F008FB8
:10B26B0040AE3FE5407802C333CE33CED8F9F5403C
:10B27B008E3FAFBE2FF540E4353FF53F75BC8A02DC
:10B28B00B567AFBD7541008F42AE41E5427802C351
:10B29B0033CE33CED8F9F5428E41AFBE2FF542E413
:10B2AB003541F54175BC8B02B567AFBD7543008F5A
:10B2BB0044AE43E5447802C333CE33CED8F9F544DC
:10B2CB008E43AFBE2FF544E43543F54375BC8C027A
:10B2DB00B567AFBD7545008F46AE45E5467802C3F1
:10B2EB0033CE33CED8F9F5468E45AFBE2FF546E4B7
:10B2FB003545F54575BC8D02B567AFBD7547008FFC
:10B30B0048AE47E5487802C333CE33CED8F9F5487B
:10B31B008E47AFBE2FF548E43547F54775BC8E0217
:10B32B00B567AFBD7549008F4AAE49E54A7802C390
:10B33B0033CE33CED8F9F54A8E49AFBE2FF54AE45A
:10B34B003549F54975BC8F02B567AFBD754B008F9D
:10B35B004CAE4BE54C7802C333CE33CED8F9F54C1B
:10B36B008E4BAFBE2FF54CE4354BF54B75BC88902F
:10B37B000380E4F002B567C2D920560302B42690CD
:10B38B0002C7E0FEA3E0F5EBEEF5FBE024D2F09074
:10B39B0002C7E03404F0301605C21612EBB090026F
:10B3AB00D4E004F0E0D3947D748094804002E4F008
:10B3BB007F0912EBA3EF602A9002D4E0FF13131363
:10B3CB00541F2401F582E43400F583C083C082E06E
:10B3DB00FEEF5407FFF87401088002C333D8FC4E0C
:10B3EB0080299002D4E0FF131313541F2401F5821C
:10B3FB00E43400F583C083C082E0FEEF5407FFF80E
:10B40B007401088002C333D8FCF45ED082D083F081
:10B41B009002D4E0FF12EBD402B567201A0302B5F9
:10B42B0067052CE52C6401600302B4B99002C7E0F8
:10B43B00FEA3E0F5EBEEF5FBE024D0F09002C7E0C5
:10B44B003407F09002C0E004F0E0D39404748094CD
:10B45B00804002E4F09002C0E02471F582E43403F2
:10B46B00F583E0FF12EBD4302910C229900290E053
:10B47B00FF12EACD12002B12EBE0301510C2159023
:10B48B00034274A0F07B017A0379428019300E10CD
:10B49B00C20E90034274A2F07B017A0379428006BC
:10B4AB007B017A0379257D0B12EA9B02B567E52CAC
:10B4BB00FB7A006402702B9002C7E0FEA3E0F5EB71
:10B4CB00EEF5FBE024D8F09002C7E03440F0208387
:10B4DB000BC2807D207F0712EB7FD28012EBB00274
:10B4EB00B567EB64034A70749002C7E0FEA3E0F506
:10B4FB00EBEEF5FBE02478F09002C7E03405F07535
:10B50B002C0020831D7B017A0379317D0B12E9C658
:10B51B0012EB79D280900308E004F09002D6E4F0AD
:10B52B0080189002D6E004F0E0D3943174809480BC
:10B53B0040087431F0900308E4F09002D5E004F079
:10B54B00E0D3943174809480400FE4F0900308E0D2
:10B55B009002E9F0900308E4F012EBBCD007D006A0
:10B56B00D005D004D003D002D001D000D0D0D082EF
:07B57B00D083D0F0D0E032D4
:10A5F10002A9C3E86480F8E933E83360110460F02C
:10A60100ED33EC337009E8FCE9FDEAFEEBFF2204CF
:10A6110060DED3EB9FEA9EE99DE8C2E78CF0C2F7CA
:10A6210095F0400CE8CCF8E9CDF9EACEFAEBCFFB96
:10A6310012A98E85D0F05804700320D5B3E80470B8
:10A64100075002B2D502A9CD92D5EC0460F7E4CC53
:10A65100C0E0C398F8603B94186008400DD0E0FB5F
:10A6610002A9A5E4FBFAC9FC8028E830E406E4C9A4
:10A67100FBE4CAFCE830E305E4C9CACBFCE85407B3
:10A681006010F8C3E913F9EA13FAEB13FBEC13FCBE
:10A69100D8F130F52FC3E49CFCEF9BFFEE9AFEED61
:10A6A10099FDD0E0FBEF4E4D4C701222DB0302A965
:10A6B100CAEC2CFCEF33FFEE33FEED33FDED30E75A
:10A6C100EB02A9A5EF2BFFEE3AFEED39FDD0E0FB41
:10A6D10050130BBB000302A9CDED13FDEE13FEEFEA
:08A6E10013FFEC13FC02A9A514
:10A6E900EC4D6011E8497017ED33EC3304600DE46B
:10A6F900FCFFFEFD22E933E8330470F802A9C31216
:10A70900A98E58046009E4CC248150062850090216
:10A71900A9CD28400302A9CAC0E0EB4A7044B98018
:10A7290006D0E0FB02A9B9EF4E701CBD8008EBFF13
:10A73900EAFEE9FD80EBE98DF0A4FEE5F002A7D27F
:10A74900E9CDF9EAFEEBFFEF89F0A4FCE5F0CE894B
:10A75900F0A42EFFE435F0CD89F0A42DFEE435F008
:10A769008067EF4E7005BD80D780C3EF8BF0A4AC36
:10A77900F0EE8BF0A42CFCE435F0F8EF8AF0A42C71
:10A78900E5F038FCE433CB8DF0A42CFCE5F03BF884
:10A79900EE8AF0A42CFCE5F038F8E433CF89F0A474
:10A7A9002CFCE5F038CF3400CE89F0A42FFFE5F07A
:10A7B9003EFEE433C98DF0A42EFEE5F039CD8AF0D2
:10A7C900A42FFFE5F03EFEE43DFD33D0E0FB50074A
:10A7D9000BBB000F02A9CDEC2CFCEF33FFEE33FECF
:06A7E900ED33FD02A9A5FD
:10A7EF0002A9CDEC5D046005E85904700302A9C30A
:10A7FF0012A98E580460F6EC4860F2EC7004FDFE6E
:10A80F00FF22C860DB2481C85009C398600250063C
:10A81F0002A9CA9850CAF582E9294B4A7005AB8242
:10A82F0002A9B975F0007C1A7880C3EF9BEE9AED00
:10A83F0099400DC3EF9BFFEE9AFEED99FDE842F0B4
:10A84F00DC23ACF0D0E0FFD0E0FED0E0FDAB822007
:10A85F00E7101BEB60BAEC2CFCEF33FFEE33FEED91
:10A86F0033FD02A9A5E803F830E705C0F075F00045
:10A87F00EF2FFFEE33FEED33FD40B830E7C280AA75
:10A88F0074F8CC6480CCC86480C8F58204604FC370
:10A89F00EB9FF5F0EA9E42F0E99D42F0E89C45F00F
:10A8AF00603C501DE5825FFFE582D313CB5BCBF499
:10A8BF002B5582FB50280ABA002409B900200880C2
:10A8CF001DE5825BFBE582D313CF5FCFF4C3132F5C
:10A8DF005582FF50090EBE00050DBD00010CC3EBE4
:10A8EF009FF5F0EA9E42F0E99D42F0E89C45F0604A
:09A8FF0007CC4820E701B3EC226C
:10A90800ED33EC33600A047003BD8004ECB2E7FC5D
:01A91800221C
:10A9190075F020800E75F010800575F0087D007EB9
:10A92900007F003392D530D50312AC15EC334010BB
:10A93900EF33FFEE33FEED33FDEC33FCD5F0ED22C2
:0EA94900E5F0247EA2D513CC92E7CDCEFF22FE
:10A95700EDD2E7CD33EC3392D524814006E4FFFEF8
:10A96700FDFC22FCE4CFCECDCC24E0501174FF8057
:10A97700EDC3CC13CCCD13CDCE13CECF13CF0470F4
:07A98700F030D5DE02AC1533
:10D22E0090038912AC76E4FFFE7D807C3F900389EB
:10D23E00E0F8A3E0F9A3E0FAA3E0FB12A88F7006D2
:10D24E0090038902D388900389E0FCA3E0FDA3E05C
:10D25E00FEA3E0FF12A9D8FBA3E0FCA3E0FDA3E030
:10D26E00FEA3E0FF12A9D8FFB40108E4FFFE7D8003
:10D27E007C3F22EF64046029EB64046024EBB4016C
:10D28E0030E4FFFEFDFC90038DE0F8A3E0F9A3E08F
:10D29E00FAA3E0FB12A88F60084006E4FFFEFDFC37
:10D2AE002290038D12AC82FFFFFFFF90038D02D3FD
:10D2BE0088E4900391F0A3F0FFFEFDFC900389E05B
:10D2CE00F8A3E0F9A3E0FAA3E0FB12A88F505F9059
:10D2DE00038DE0FCA3E0FDA3E0FEA3E0FF12A9573F
:10D2EE00900391EEF0A3EFF0FDCCEECCEC12A91E64
:10D2FE00C8ECC8C9EDC9CAEECACBEFCB90038DE01E
:10D30E00FCA3E0FDA3E0FEA3E0FF12A5F4E4FBFA0C
:10D31E00F9F812A88F708A900389E0FCA3E0FDA3B0
:10D32E00E0FEA3E0FF12A90890038912AC769003E9
:10D33E0089E0FCA3E0FDA3E0FEA3E0FF12D61B9064
:10D34E00038DE0F8A3E0F9A3E0FAA3E0FB12A6E94F
:10D35E0012DFCA90038D12AC76900392E030E01784
:10D36E0090038DE0FCA3E0FDA3E0FEA3E0FF12A975
:10D37E000890038D12AC7690038DE0FCA3E0FDA324
:06D38E00E0FEA3E0FF2217
:10A98E00E9D2E7C933E833F892D5EDD2E7CD33EC0F
:07A99E0033FC5002B2D52288
:10A9A500EC30E7100FBF000C0EBE00080DBD000413
:10A9B5000BEB6014A2D5EB13FCED92E7FD2274FFBF
:10A9C500FCFDFEFF22E480F8A2D574FF13FC7D8018
:03A9D500E480EF2C
:10A9D800ED33EC33601004700FED547F7005740292
:0AA9E80092E0227404220422E4220B
:10DF920033DA929E35B16011377FE5FE39218489EB
:10DFA2003AAEC3FF3C1D955B3D6358473E75FDF09D
:10DFB2003F3172183F800000C2D502A9CD02A9C329
:10DFC200BD80FA50F302A9CAED33EC330460F17B51
:10DFD2003B7AAA79B8783F12A6E9ED33EC3392D5B1
:10DFE200247B5011A2D570DB500BED4480240450E9
:10DFF20004A2D580CEEFFBEEFAEDF9ECF812A957A8
:10E00200EFF582F404FC12A92312A5F8C08290DF76
:10E0120092740912AA01ED33CC33D0F092D525F0D7
:0AE02200A2D57001C313CC13FD2238
:10D5E7003E9248DA3ECCCCCD3F2AAAAB40000000A1
:10D5F7003F8000003F9837F03FB504F33FD744FC26
:10D607003E3172173EB172173F0515913EDE5BD969
:10D61700D25D8002C25DEDD2E7F8CD33EC33047002
:10D627000BBD800592D502A9CD02A9C340FBD31437
:10D6370060F2F5F07C3FEE7A00C39496C8948B4075
:10D64700230AC89469C8941A401A0AC89468C894E7
:10D657001F40110AC8945AC89425400805F07A005B
:10D66700CDC2E7CDC0F090039312AC76EA2323C076
:10D67700E024F7F582E434D5F58312AC6612A5F8F9
:10D68700ECC0E0EDC0E0EEC0E0EFC0E012AC4A90C5
:10D69700039312AC5A12A5F4D0E0FBD0E0FAD0E025
:10D6A700F9D0E0B2E7F812A7F290039312AC7690A4
:10D6B700D5E7740312A9F290039312AC5A12A6E9A4
:10D6C700D0E0600F2403F582E434D6F58312AC660C
:10D6D70012A5F890039312AC76D0E0C3947FFDE4D3
:10D6E7009400FC12A91E7B187A727931783F12A632
:10D6F700E990039312AC5A12A5F8305D0B7BD97AE7
:09D707005B79DE783E12A6E922EE
:10A9F200C0E0EFFBEEFAEDF9ECF812A6E9D0E0F5D3
:10AA0200F0EFFBEEFAEDF9ECF812AC4AA3A3A3A324
:10AA1200E8C0E0E9C0E0EAC0E0EBC0E0C0F012A6A6
:10AA2200E912AC66A3A3A3A312A5F8D0F0D0E0FB71
:0DAA3200D0E0FAD0E0F9D0E0F8D5F0D42261
:0300000002E0BE5D
:0CE0BE00787FE4F6D8FD75817C02E10556
:10AA3F00C2D530F707B2D563F0FF05F030E70CB29F
:10AA4F00D5F4048463F0FF05F080018430D502F45F
:02AA5F000422CF
:10AA6100BB010689828A83E0225002E722BBFE02F3
:09AA7100E32289828A83E4932226
:10AA7A00BB010CE58229F582E5833AF583E0225091
:10AA8A0006E92582F8E622BBFE06E92582F8E222DB
:0DAA9A00E58229F582E5833AF583E49322F5
:10AAA700F8BB010DE58229F582E5833AF583E8F0E5
:10AAB700225006E92582C8F622BBFE05E92582C891
:02AAC700F22279
:10AAC900EF8DF0A4A8F0CF8CF0A428CE8DF0A42EA1
:02AAD900FE225B
:10AADB00BC000BBE0029EF8DF084FFADF022E4CC5F
:10AAEB00F875F008EF2FFFEE33FEEC33FCEE9DEC28
:10AAFB00984005FCEE9DFE0FD5F0E9E4CEFD22ED6E
:10AB0B00F8F5F0EE8420D21CFEADF075F008EF2FB7
:10AB1B00FFED33FD4007985006D5F0F222C398FDA8
:05AB2B000FD5F0EA2245
:10AB3000C2D5EC30E709B2D5E4C39DFDE49CFCEE40
:10AB400030E715B2D5E4C39FFFE49EFE12AADBC333
:10AB5000E49DFDE49CFC800312AADB30D507C3E42E
:06AB60009FFFE49EFE22AF
:10AB6600C5F0F8A3E028F0C5F0F8E582158270027A
:06AB76001583E038F02217
:10AB7C00BB010A89828A83E0F5F0A3E022500687A4
:10AB8C00F009E71922BBFE07E3F5F009E319228966
:0BAB9C00828A83E493F5F07401932299
:10ABA700BB010A89828A83F0E5F0A3F0225006F7F9
:0FABB70009A7F01922BBFE06F3E5F009F31922F6
:10ABC600E88FF0A4CC8BF0A42CFCE98EF0A42CFC2E
:10ABD6008AF0EDA42CFCEA8EF0A4CDA8F08BF0A4AC
:10ABE6002DCC3825F0FDE98FF0A42CCD35F0FCEB0B
:10ABF6008EF0A4FEA9F0EB8FF0A4CFC5F02ECD39D0
:0FAC0600FEE43CFCEAA42DCE35F0FDE43CFC223C
:10E80C00C2D5E830E70FB2D5E4C39BFBE49AFAE437
:10E81C0099F9E498F8EC30E717B2D512E84212AC4B
:10E82C00EFE4C39BFBE49AFAE499F9E498F88003CB
:10E83C0012ACEF30D50DE4C39FFFE49EFEE49DFDCA
:04E84C00E49CFC222A
:0EAC1500C3E49FFFE49EFEE49DFDE49CFC2250
:10AC2300E8600FECC313FCED13FDEE13FEEF13FF0F
:03AC3300D8F12233
:10AC3600E86010ECA2E713FCED13FDEE13FEEF1334
:04AC4600FFD8F02221
:10AC4A00E493FC740193FD740293FE740393FF2250
:0CAC5A00E0F8A3E0F9A3E0FAA3E0FB227D
:10AC6600E493F8740193F9740293FA740393FB2244
:0CAC7600ECF0A3EDF0A3EEF0A3EFF02251
:10AC8200A8828583F0D083D08212AC9912AC99123B
:10AC9200AC9912AC99E473E493A3C583C5F0C58360
:10ACA200C8C582C8F0A3C583C5F0C583C8C582C81C
:01ACB200227F
:10E0CA0002003EE493A3F8E493A34003F68001F22E
:10E0DA0008DFF48029E493A3F85407240CC8C33357
:10E0EA00C4540F4420C8834004F456800146F6DF26
:10E0FA00E4800B010204081020408090C29FE47E55
:10E10A00019360BCA3FF543F30E509541FFEE4931A
:10E11A00A360010ECF54C025E060A840B8E493A3E1
:10E12A00FAE493A3F8E493A3C8C582C8CAC583CA0C
:10E13A00F0A3C8C582C8CAC583CADFE9DEE780BEC4
:01C4640000D7
:10ACB30075F008758200EF2FFFEE33FECD33CDCC58
:10ACC30033CCC58233C5829BED9AEC99E5829840DB
:10ACD3000CF582EE9BFEED9AFDEC99FC0FD5F0D6B8
:10ACE300E4CEFBE4CDFAE4CCF9A88222B800C1B9E2
:10ACF3000059BA002DEC8BF084CFCECDFCE5F0CB20
:10AD0300F97818EF2FFFEE33FEED33FDEC33FCEB58
:10AD130033FB10D703994004EB99FB0FD8E5E4F913
:10AD2300FA227818EF2FFFEE33FEED33FDEC33FC00
:10AD3300C933C910D7059BE99A4007EC9BFCE99AF4
:10AD4300F90FD8E0E4C9FAE4CCFB2275F010EF2F39
:10AD5300FFEE33FEED33FDCC33CCC833C810D70739
:10AD63009BEC9AE899400AED9BFDEC9AFCE899F874
:0EAD73000FD5F0DAE4CDFBE4CCFAE4C8F92207
:00000001FF
