C51 COMPILER V9.01   MAIN                                                                  05/23/2019 13:18:08 PAGE 1   


C51 COMPILER V9.01, COMPILATION OF MODULE MAIN
OBJECT MODULE PLACED IN main.OBJ
COMPILER INVOKED BY: d:\Keil\C51\BIN\C51.EXE main.c LARGE

line level    source

   1          #include<reg51.h>                       //Large编译，否则xdata异常
   2          #include<math.h>
   3          #include<LOLI_3.h>       //显示需要的图形数据
   4          #define u8 unsigned char
   5          #define u16 unsigned int
   6          #include<intrins.h>
   7          
   8          /*****************************************************/
   9          //STC12 系列新增寄存器
  10          sfr IPH=0xb7;
  11          sfr P4=0xc0;
  12          sfr P4SW=0xbb;
  13          sfr P1ASF=0x9d;
  14          sfr P4M0=0xb4;
  15          sfr P3M0=0xb2;
  16          sfr P3M1=0xb1;
  17          sfr P2M0=0x96;
  18          sfr P0M0=0x94;
  19          sfr ADC_CONTR=0xbc;
  20          sfr ADC_RES=0xbd;
  21          sfr ADC_RESL=0xbe;
  22          
  23          sfr BRT=0x9c;
  24          sfr AUXR=0x8e;
  25          sfr WAKE_CLKO=0x8f;
  26          
  27          sfr IAP_DATA=0xc2;
  28          sfr IAP_ADDRH=0xc3;
  29          sfr IAP_ADDRL=0xc4;
  30          sfr IAP_CMD=0xc5;
  31          sfr IAP_TRIG=0xc6;
  32          sfr IAP_CONTR=0xc7;
  33          
  34          sfr CCON        =   0xD8;           //PCA control register
  35          sbit CCF0       =   CCON^0;         //PCA module-0 interrupt flag
  36          sbit CCF1       =   CCON^1;         //PCA module-1 interrupt flag
  37          sbit CR         =   CCON^6;         //PCA timer run control bit
  38          sfr CMOD        =   0xD9;           //PCA mode register
  39          sfr CL          =   0xE9;           //PCA base timer LOW
  40          sfr CH          =   0xF9;           //PCA base timer HIGH
  41          sfr CCAPM0      =   0xDA;           //PCA module-0 mode register
  42          sfr CCAP0L      =   0xEA;           //PCA module-0 capture register LOW
  43          sfr CCAP0H      =   0xFA;           //PCA module-0 capture register HIGH
  44          sfr CCAPM1      =   0xDB;           //PCA module-1 mode registers
  45          sfr CCAP1L      =   0xEB;           //PCA module-1 capture register LOW
  46          sfr CCAP1H      =   0xFB;           //PCA module-1 capture register HIGH
  47          
  48          
  49          /*************************************************/
  50          //LCD引脚定义
  51          sbit CS=P0^6;
  52          sbit RST=P0^7;
  53          sbit RS=P4^6;                                                             
  54          sbit SDA=P4^5;                                                     
  55          sbit CLK=P4^4;
C51 COMPILER V9.01   MAIN                                                                  05/23/2019 13:18:08 PAGE 2   

  56          sbit LEDA=P2^5;
  57          
  58          /**************************************************/
  59          //NRF24L01 引脚定义
  60          
  61          sbit CE=P0^0;
  62          sbit SCK=P0^1;
  63          sbit MDO=P0^2;
  64          sbit IRQ=P0^3;
  65          sbit MDI=P0^4;
  66          sbit CSN=P0^5;
  67          
  68          /*************************************************/
  69          //I/O定义
  70          
  71          sbit buzzer=P3^4;
  72          sbit PPM=P3^3;
  73          
  74          sbit KEY=P4^7;
  75          sbit K1=P3^0;
  76          sbit K2=P3^1;
  77          sbit K3=P3^7;
  78          sbit K4=P3^6;
  79          sbit K5=P3^2;
  80          sbit K6=P3^5;
  81          
  82          sbit SA=P2^0;
  83          sbit SB1=P2^1;
  84          sbit SB2=P2^2;
  85          sbit SC1=P2^3;
  86          sbit SC2=P2^4;
  87          sbit SD=P2^6;
  88          sbit SE=P2^7;
  89          
  90          
  91          /***********************************************/
  92          //数据、标志位
  93          u8 bdata DATA;
  94          sbit D_7=DATA^7;
  95          sbit D_6=DATA^6;
  96          sbit D_5=DATA^5;
  97          sbit D_4=DATA^4;
  98          sbit D_3=DATA^3;
  99          sbit D_2=DATA^2;
 100          sbit D_1=DATA^1;
 101          sbit D_0=DATA^0;
 102          
 103          
 104          
 105          //ROM存储
 106          #define Model_length 125   //模型数据 长度 宏定义
 107          #define Version  0xAC           //系统版本 A13
 108          
 109          u8 Model_number=0,Model_current=0,Model_addrH=2;
 110          bit Model_change,Model_reset,reset_action;
 111          /*******+军刀破+******************/
 112          //模型命名
 113          u8 Name_idx=0; //名字字母索引，最大7
 114          
 115          u8 Model_name[7]={0,0,0,0,0,0,0};
 116          //原来萝丽的定义是351，加上命名内容，定义为375
 117          u8 TEMP_DATA[375];
C51 COMPILER V9.01   MAIN                                                                  05/23/2019 13:18:08 PAGE 3   

 118          /*******+军刀破+******************/
 119          bit ROM_enable;
 120          bit Data_system,Data_model;
 121          bit save_action;
 122          
 123          
 124          
 125          bit calibration_action,calibration_ok;
 126          
 127          
 128          //显示
 129          u8 word[10];
 130          u8 WW[11][6];
 131          bit LCD_big;
 132          bit LCD_light=1;
 133          bit LCD_reverse;
 134          u8 LCD_vop=42;
 135          
 136          u8 boot_screen=0;
 137          bit boot_screen_en=1;
 138          
 139          
 140          
 141          
 142          
 143          //时钟
 144          bit event1,event2,event3;
 145          u8 t1=0,t2=0,t3=0;
 146          
 147          bit flag_20ms;
 148          
 149          
 150          u8 Master_clock,second=0,minute=0,hour=0;
 151          
 152          u8 clock2,second2=0,minute2=0;
 153          u8 clock_set=5,clock_switch=0;
 154          bit clock_go;
 155          
 156          
 157          u16 throttle_idle=0;
 158          u8 delay_time=0;
 159          u8 flash_time=0;
 160          
 161          
 162          
 163          //蜂鸣器
 164          bit Message_AlarmClock,Message_LowPower;
 165          u8 Message_KeyTone=0,Message_DataReturn_bad=0;
 166          u8 beep=0,sound=0;  
 167          bit Sound_enable=1;     
 168                  
 169                  
 170                  
 171                  
 172          
 173          //菜单模式
 174          bit PPM_OUT,PPM_IN,RC_TX,IR_TX,RC_check;
 175          bit config_change,star=1,RC_check_star;
 176          u8 menu=0,menu_1=0,menu_2=0,menu_3=0;
 177          u8 line=0,line_1=0,line_2=0,line_3=0;
 178          u8 last_line=0;
 179          
C51 COMPILER V9.01   MAIN                                                                  05/23/2019 13:18:08 PAGE 4   

 180          
 181          //按键
 182          bit KS,KS_long_press;
 183          u8 KS_press_time;
 184          bit key1,key2,key3,key4,key5,key6;
 185          bit s1,s2,s3,s4,s5,s6;
 186          bit s1_long_press,s2_long_press,s3_long_press,s4_long_press,s5_long_press,s6_long_press;
 187          u8 s1_press_time,s2_press_time,s3_press_time,s4_press_time,s5_press_time,s6_press_time;
 188          bit key_time;
 189          bit increase,decrease,up,down,left,right;
 190          
 191          
 192          //ADC
 193          u16 data adc[8],adc_buff[8];
 194          u8 t_adc=0;
 195          u8 Battery_1s=1,VLD1=35,VLD2=70;
 196          u16 battery_voltage;
 197          char v_trim1=0,v_trim2=0;
 198          bit USB_5V;
 199          
 200          
 201          
 202          
 203          
 204          
 205          //硬件配置
 206          //u8 Right_throttle;
 207          
 208          bit throttle_lock,Throttle_check=1,Auto_lock,Trim_step;
 209          u8 tt=0;
 210          u8 middle_change_last;
 211          
 212          u16 value0,value1;
 213          
 214          
 215          
 216          u8 IN_mapping[8];
 217          
 218          bit recover;
 219          
 220          bit NRF_config_change,config_change;
 221          bit first;
 222          
 223          u16 CH1_max=600,CH2_max=600,CH3_max=600,CH4_max=600;
 224          u16 CH1_min=400,CH2_min=400,CH3_min=400,CH4_min=400;
 225          u8 CH1_offset=51,CH2_offset=51,CH3_offset=51,CH4_offset=51;
 226          u16 CH_value[4];
 227          
 228          
 229          
 230          u8 ratio_switch=0;
 231          bit use_new_ratio;
 232          
 233          
 234          
 235          //无线通信
 236          bit cancel,connecting;
 237          u8 TX_power=3;
 238          bit CD;
 239          u8 data RC_TX_state=0;
 240          u8 t_check,t_hopping,NRF_error=0;
 241          
C51 COMPILER V9.01   MAIN                                                                  05/23/2019 13:18:08 PAGE 5   

 242          u8 CD_data[16];
 243          
 244          u8 NRF_mapping[8];
 245          u16 NRF_buff[8];
 246          u8 timer2=0,timer3=0,receive=0;
 247          
 248          
 249          u8 rx_sum,FUCK_sum=0;//坑爹的xdata，定义成rx不能用，定义成FUCK就能用了
 250          
 251          
 252          u8 address[5];
 253          u8 hopping[5];
 254          u8 code address_0[5]={'L','O','V','E','!'};//使用LOVE作为对频暗语
 255          
 256          
 257          
 258          u8 tx_buff[11],tx_data[11],rx[11]={0,0,0};
 259          u8 tx_order[11];
 260          
 261          
 262          u8 TX_protocol=3;
 263          
 264          
 265          u8 Power_V=70,Chip_V=40,TX_min=60,RX_min=60;
 266          
 267          
 268          
 269          
 270          //接收机设置
 271          u8 receiver_mode[8];
 272          bit Receiver_change;
 273          bit NRF_change;
 274          
 275          char out_control[8];
 276          u16 out_control_data[8];
 277          
 278          
 279          //PPM
 280          
 281          u8 T_l,T_h;
 282          u8 t_ppm=0,t_PPMout=0;
 283          int PPM_DATA[8]={0,0,0,0,0,0,0,0};
 284          int data PPM_buff[8];
 285          u16 data PPMout[8]={500,600,800,200,1000,0,100,300};
 286          u8 PPM_mapping[8]={0,1,2,3,4,5,6,7};
 287          
 288          u8 train_switch=0;
 289          bit train_output;
 290          u8 PPM_updata=0;
 291          char PPM_offset=0;
 292          
 293          //自动控制
 294          u8 auto_switch=0,auto_mode=2;
 295          char auto_middle=-100,auto_star=-50,auto_end=50;
 296          u8 auto_speed=10;
 297          int auto_value=0;
 298          u16 auto_max,auto_min;
 299          bit auto_h,auto_l=0;
 300          
 301          
 302          
 303          
C51 COMPILER V9.01   MAIN                                                                  05/23/2019 13:18:08 PAGE 6   

 304          //开关
 305          u8 Switch_A,Switch_B,Switch_C,Switch_D,Switch_E;
 306          u8 Combination_Switch=0,Com_Swt_IN1=0,Com_Swt_IN2=0;
 307          u8 Com_Swt_out[6]={16,29,42,55,68,81};
 308          u8 Com_Swt_mapping=4;
 309          u8 Return_alarm_switch=0;
 310          
 311          
 312          //通道运算
 313          int data operation[8];
 314          
 315          
 316          
 317          char CH_middle[8];
 318          bit ratio_mode;
 319          u8 CH_ratio[2][8];
 320          u8 New_ratio[2][4]={60,60,60,60,60,60,60,60};
 321          u8 CH_inverted[8];
 322          u8 CH_middle_change=0;
 323          
 324          
 325          u8 mixer_name;
 326          bit mixer1,mixer2,mixer3,mixer4;
 327          u8 mixer1_same,mixer1_contrary;
 328          u8 mixer2_same,mixer2_contrary;
 329          u8 mixer3_same,mixer3_contrary;
 330          u8 mixer4_same,mixer4_contrary;
 331          
 332          
 333          
 334          
 335          
 336          
 337          //曲线运算
 338          u8 curve_buff[51];
 339          u8 index_number=0;
 340          bit index_change;
 341          char last_index;
 342          char CH_index[3];
 343          
 344          u8 point_num=3,curve_num=0;
 345          u8 turnning_point[5][7];
 346          u16 throttle;
 347          
 348          
 349          
 350          /***********************************************************/
 351          //延时函数
 352          
 353          void Delay1ms()         //@12.000MHz
 354          {
 355   1              unsigned char i, j;
 356   1              i = 12;
 357   1              j = 168;
 358   1              do
 359   1              {
 360   2                      while (--j);
 361   2              } while (--i);
 362   1      }
 363          
 364          void delay_ms(u16 i)    //延时毫秒
 365          {
C51 COMPILER V9.01   MAIN                                                                  05/23/2019 13:18:08 PAGE 7   

 366   1              while(i--)
 367   1              Delay1ms();
 368   1      }
 369          
 370          /**********************************************************/
 371          //ROM操作函数、数据读写控制
 372          
 373          u8 EEPROM_read(u8 address_H,u16 address_L)      //读数据
 374          {
 375   1              IAP_CMD=0x01;
 376   1              if(address_L>255)
 377   1              {
 378   2                      IAP_ADDRH=address_H+1;
 379   2                      IAP_ADDRL=address_L-255;        
 380   2              }
 381   1              else 
 382   1              {
 383   2                      IAP_ADDRH=address_H;
 384   2                      IAP_ADDRL=address_L;    
 385   2              }
 386   1              
 387   1              IAP_TRIG=0x5a;                  
 388   1              IAP_TRIG=0xa5; _nop_();
 389   1              return IAP_DATA;
 390   1      }
 391          
 392          void EEPROM_write(u8 address_H,u16 address_L,u8 byte)   //写入数据
 393          {
 394   1              IAP_CMD=0x02;
 395   1              IAP_DATA=byte;
 396   1              if(address_L>255)
 397   1              {
 398   2                      IAP_ADDRH=address_H+1;
 399   2                      IAP_ADDRL=address_L-255;        
 400   2              }
 401   1              else 
 402   1              {
 403   2                      IAP_ADDRH=address_H;
 404   2                      IAP_ADDRL=address_L;    
 405   2              }
 406   1      
 407   1              IAP_TRIG=0x5a;
 408   1              IAP_TRIG=0xa5; _nop_();
 409   1              
 410   1      }
 411          
 412          void EEPROM_clean(u8 address_H) //擦除数据
 413          {
 414   1              IAP_CMD=0x03;
 415   1              IAP_ADDRH=address_H;
 416   1              IAP_ADDRL=0;
 417   1              IAP_TRIG=0x5a;
 418   1              IAP_TRIG=0xa5;_nop_();
 419   1      }
 420          
 421          void Data_change(u8 m)//数据改变
 422          {
 423   1              if(m==1)Data_system=1;
 424   1              if(m==2)Data_model=1;
 425   1              
 426   1              event3=1,t3=0;//刷新事件3定时器
 427   1              
C51 COMPILER V9.01   MAIN                                                                  05/23/2019 13:18:08 PAGE 8   

 428   1      }
 429          
 430          void DATA_read1()       //读取系统参数
 431          {                                                               
 432   1              u8 i;u16 sum=0,sum_read;
 433   1              
 434   1              IAP_CONTR=0x83;
 435   1              /**
 436   1              +军刀破+
 437   1              将原来的74改为78，增加回传报警内容
 438   1              **/
 439   1              for(i=0;i<78;i++)
 440   1              {
 441   2                      sum+=EEPROM_read(0,i);
 442   2              }
 443   1              
 444   1              sum_read=EEPROM_read(0,78);//读校验和
 445   1              sum_read<<=8;
 446   1              sum_read+=EEPROM_read(0,79);
 447   1              
 448   1              if(EEPROM_read(0,0)!=Version||sum!=sum_read)     
 449   1              {
 450   2                      first=1;
 451   2                      
 452   2                      
 453   2                      RC_TX=1;PPM_OUT=1;
 454   2      
 455   2              }
 456   1              else
 457   1              {
 458   2      //              system=EEPROM_read(0,1);
 459   2                      Battery_1s=EEPROM_read(0,2);
 460   2                      LCD_vop=EEPROM_read(0,3);
 461   2                      LCD_light=EEPROM_read(0,4);
 462   2                      CH1_offset=EEPROM_read(0,5);
 463   2                      CH2_offset=EEPROM_read(0,6);
 464   2                      CH3_offset=EEPROM_read(0,7);
 465   2                      CH4_offset=EEPROM_read(0,8);
 466   2                      
 467   2                      address[0]=EEPROM_read(0,9);
 468   2                      address[1]=EEPROM_read(0,10);
 469   2                      address[2]=EEPROM_read(0,11);
 470   2                      address[3]=EEPROM_read(0,12);
 471   2                      address[4]=EEPROM_read(0,13);
 472   2                      hopping[0]=EEPROM_read(0,14);
 473   2                      hopping[1]=EEPROM_read(0,15);
 474   2                      hopping[2]=EEPROM_read(0,16);
 475   2                      hopping[3]=EEPROM_read(0,17);
 476   2                      hopping[4]=EEPROM_read(0,18);
 477   2      //              
 478   2                      VLD1=EEPROM_read(0,19);
 479   2                      VLD2=EEPROM_read(0,20);
 480   2                      Sound_enable=EEPROM_read(0,21); 
 481   2                      LCD_big=EEPROM_read(0,22);
 482   2                      TX_power=EEPROM_read(0,23);
 483   2                      v_trim1=EEPROM_read(0,24);
 484   2                      v_trim2=EEPROM_read(0,25);
 485   2                      clock_set=EEPROM_read(0,26);
 486   2                      
 487   2                      boot_screen=EEPROM_read(0,27);
 488   2      //              Right_throttle=EEPROM_read(0,28);
 489   2              
C51 COMPILER V9.01   MAIN                                                                  05/23/2019 13:18:08 PAGE 9   

 490   2                      Throttle_check=EEPROM_read(0,29);
 491   2      
 492   2                      Auto_lock=EEPROM_read(0,30);
 493   2                      clock_switch=EEPROM_read(0,31);
 494   2                      ratio_switch=EEPROM_read(0,32);
 495   2                      PPM_offset=EEPROM_read(0,33);
 496   2                      boot_screen_en=EEPROM_read(0,34);
 497   2                      LCD_reverse=EEPROM_read(0,35);
 498   2                      Return_alarm_switch=EEPROM_read(0,36);
 499   2      /*              NRF_mapping[7]=EEPROM_read(0,37);*/
 500   2                      
 501   2                      PPM_mapping[0]=EEPROM_read(0,38);
 502   2                      PPM_mapping[1]=EEPROM_read(0,39);
 503   2                      PPM_mapping[2]=EEPROM_read(0,40);
 504   2                      PPM_mapping[3]=EEPROM_read(0,41);
 505   2                      PPM_mapping[4]=EEPROM_read(0,42);
 506   2                      PPM_mapping[5]=EEPROM_read(0,43);
 507   2                      PPM_mapping[6]=EEPROM_read(0,44);
 508   2                      PPM_mapping[7]=EEPROM_read(0,45);
 509   2      
 510   2                      train_switch=EEPROM_read(0,46);
 511   2                      RC_TX=EEPROM_read(0,47);
 512   2                      Model_number=EEPROM_read(0,48);Model_current=Model_number;
 513   2                      PPM_OUT=EEPROM_read(0,49);
 514   2                      PPM_IN=EEPROM_read(0,50);
 515   2                      
 516   2                      auto_switch=EEPROM_read(0,51);
 517   2                      auto_star=EEPROM_read(0,52);
 518   2                      auto_end=EEPROM_read(0,53);
 519   2                      auto_middle=EEPROM_read(0,54);
 520   2      //              auto_mapping=EEPROM_read(0,55);
 521   2                      auto_speed=EEPROM_read(0,56);
 522   2                      
 523   2                      New_ratio[0][0]=EEPROM_read(0,57);
 524   2                      New_ratio[0][1]=EEPROM_read(0,58);
 525   2                      New_ratio[0][2]=EEPROM_read(0,59);
 526   2                      New_ratio[0][3]=EEPROM_read(0,60);
 527   2                      New_ratio[1][0]=EEPROM_read(0,61);
 528   2                      New_ratio[1][1]=EEPROM_read(0,62);
 529   2                      New_ratio[1][2]=EEPROM_read(0,63);
 530   2                      New_ratio[1][3]=EEPROM_read(0,64);
 531   2                      
 532   2                      Com_Swt_IN1=EEPROM_read(0,65);
 533   2                      Com_Swt_IN2=EEPROM_read(0,66);
 534   2                      Com_Swt_mapping=EEPROM_read(0,67);
 535   2                      Com_Swt_out[0]=EEPROM_read(0,68);
 536   2                      Com_Swt_out[1]=EEPROM_read(0,69);
 537   2                      Com_Swt_out[2]=EEPROM_read(0,70);
 538   2                      Com_Swt_out[3]=EEPROM_read(0,71);
 539   2                      Com_Swt_out[4]=EEPROM_read(0,72);
 540   2                      Com_Swt_out[5]=EEPROM_read(0,73);
 541   2                      /***************+军刀破+****************/
 542   2                      //读取回传报警值
 543   2                      Power_V=EEPROM_read(0,74); //报警动力电压
 544   2                      Chip_V=EEPROM_read(0,75);       //IC电压
 545   2                      TX_min=EEPROM_read(0,76);       //最小发射信号
 546   2                      RX_min=EEPROM_read(0,77);       //最小接收信号
 547   2                      /***************+军刀破+****************/               
 548   2                      
 549   2              }
 550   1              
 551   1      
C51 COMPILER V9.01   MAIN                                                                  05/23/2019 13:18:08 PAGE 10  

 552   1              IAP_CONTR=0;
 553   1      }
 554          
 555          
 556          void DATA_save1()       //保存系统参数
 557          {
 558   1              u8 i;u16 sum=0;
 559   1              
 560   1              IAP_CONTR=0x83;
 561   1      
 562   1              
 563   1              
 564   1                      EEPROM_clean(0);
 565   1                      EEPROM_write(0,0,Version);
 566   1      
 567   1      //              EEPROM_write(0,1,system);
 568   1                      EEPROM_write(0,2,Battery_1s);
 569   1                      EEPROM_write(0,3,LCD_vop);
 570   1                      EEPROM_write(0,4,LCD_light);
 571   1                      EEPROM_write(0,5,CH1_offset);
 572   1                      EEPROM_write(0,6,CH2_offset);
 573   1                      EEPROM_write(0,7,CH3_offset);
 574   1                      EEPROM_write(0,8,CH4_offset);
 575   1              
 576   1                      EEPROM_write(0,9,address[0]);
 577   1                      EEPROM_write(0,10,address[1]);
 578   1                      EEPROM_write(0,11,address[2]);
 579   1                      EEPROM_write(0,12,address[3]);
 580   1                      EEPROM_write(0,13,address[4]);
 581   1                      EEPROM_write(0,14,hopping[0]);
 582   1                      EEPROM_write(0,15,hopping[1]);
 583   1                      EEPROM_write(0,16,hopping[2]);
 584   1                      EEPROM_write(0,17,hopping[3]);
 585   1                      EEPROM_write(0,18,hopping[4]);
 586   1                      
 587   1                      EEPROM_write(0,19,VLD1);
 588   1                      EEPROM_write(0,20,VLD2);
 589   1                      EEPROM_write(0,21,Sound_enable);
 590   1      
 591   1                      
 592   1      
 593   1                      EEPROM_write(0,22,LCD_big);
 594   1                      EEPROM_write(0,23,TX_power);
 595   1                      EEPROM_write(0,24,v_trim1);
 596   1                      EEPROM_write(0,25,v_trim2);
 597   1      
 598   1                      EEPROM_write(0,26,clock_set);
 599   1                      EEPROM_write(0,27,boot_screen);
 600   1      //              EEPROM_write(0,28,Right_throttle);
 601   1                      EEPROM_write(0,29,Throttle_check);
 602   1      
 603   1                      EEPROM_write(0,30,Auto_lock);
 604   1                      EEPROM_write(0,31,clock_switch);
 605   1                      EEPROM_write(0,32,ratio_switch);
 606   1                      EEPROM_write(0,33,PPM_offset);
 607   1                      EEPROM_write(0,34,boot_screen_en);
 608   1                      EEPROM_write(0,35,LCD_reverse);
 609   1                      EEPROM_write(0,36,Return_alarm_switch);
 610   1      /*              EEPROM_write(0,37,NRF_mapping[7]);*/
 611   1                      
 612   1                      EEPROM_write(0,38,PPM_mapping[0]);
 613   1                      EEPROM_write(0,39,PPM_mapping[1]);
C51 COMPILER V9.01   MAIN                                                                  05/23/2019 13:18:08 PAGE 11  

 614   1                      EEPROM_write(0,40,PPM_mapping[2]);
 615   1                      EEPROM_write(0,41,PPM_mapping[3]);
 616   1                      EEPROM_write(0,42,PPM_mapping[4]);
 617   1                      EEPROM_write(0,43,PPM_mapping[5]);
 618   1                      EEPROM_write(0,44,PPM_mapping[6]);
 619   1                      EEPROM_write(0,45,PPM_mapping[7]);
 620   1                      
 621   1                      EEPROM_write(0,46,train_switch);
 622   1      
 623   1                      EEPROM_write(0,47,RC_TX);
 624   1                      EEPROM_write(0,48,Model_number);
 625   1                      EEPROM_write(0,49,PPM_OUT);
 626   1                      EEPROM_write(0,50,PPM_IN);
 627   1                      
 628   1                      EEPROM_write(0,51,auto_switch);
 629   1                      EEPROM_write(0,52,auto_star);
 630   1                      EEPROM_write(0,53,auto_end);
 631   1                      EEPROM_write(0,54,auto_middle);
 632   1      //              EEPROM_write(0,55,auto_mapping);
 633   1                      EEPROM_write(0,56,auto_speed);
 634   1                      
 635   1                      EEPROM_write(0,57,New_ratio[0][0]);
 636   1                      EEPROM_write(0,58,New_ratio[0][1]);
 637   1                      EEPROM_write(0,59,New_ratio[0][2]);
 638   1                      EEPROM_write(0,60,New_ratio[0][3]);
 639   1                      EEPROM_write(0,61,New_ratio[1][0]);
 640   1                      EEPROM_write(0,62,New_ratio[1][1]);
 641   1                      EEPROM_write(0,63,New_ratio[1][2]);
 642   1                      EEPROM_write(0,64,New_ratio[1][3]);
 643   1                      
 644   1                      EEPROM_write(0,65,Com_Swt_IN1);
 645   1                      EEPROM_write(0,66,Com_Swt_IN2);
 646   1                      EEPROM_write(0,67,Com_Swt_mapping);
 647   1                      EEPROM_write(0,68,Com_Swt_out[0]);
 648   1                      EEPROM_write(0,69,Com_Swt_out[1]);
 649   1                      EEPROM_write(0,70,Com_Swt_out[2]);
 650   1                      EEPROM_write(0,71,Com_Swt_out[3]);
 651   1                      EEPROM_write(0,72,Com_Swt_out[4]);
 652   1                      EEPROM_write(0,73,Com_Swt_out[5]);
 653   1                      /****+军刀破+****/
 654   1                      EEPROM_write(0,74,Power_V); //报警动力电压
 655   1                      EEPROM_write(0,75,Chip_V);      //IC电压
 656   1                      EEPROM_write(0,76,TX_min);      //最小发射信号
 657   1                      EEPROM_write(0,77,RX_min);      //最小接收信号
 658   1                      /***************+军刀破+****************/
 659   1              //将原来的74改为78，增加保存回传报警内容        
 660   1              for(i=0;i<78;i++)
 661   1              {
 662   2                      sum+=EEPROM_read(0,i);
 663   2              }
 664   1              EEPROM_write(0,78,sum>>8);
 665   1              EEPROM_write(0,79,sum); 
 666   1                      
 667   1              IAP_CONTR=0;
 668   1      }
 669          
 670          
 671          void Model_data_reset()//模型数据复位
 672          {
 673   1              u8 i;
 674   1              for(i=0;i<8;i++)
 675   1                      CH_middle[i]=0;
C51 COMPILER V9.01   MAIN                                                                  05/23/2019 13:18:08 PAGE 12  

 676   1              
 677   1              for(i=0;i<8;i++)                
 678   1                      CH_ratio[0][i]=100;
 679   1              
 680   1              for(i=0;i<8;i++)                
 681   1                      CH_ratio[1][i]=100;
 682   1              
 683   1              for(i=0;i<8;i++)
 684   1                      CH_inverted[i]=0;
 685   1                      
 686   1                      mixer1=0;
 687   1                      mixer2=0;
 688   1                      mixer3=0;
 689   1                      mixer4=0;
 690   1                      mixer1_same=1;
 691   1                      mixer1_contrary=0;
 692   1                      mixer2_same=2;
 693   1                      mixer2_contrary=3;
 694   1                      mixer3_same=3;
 695   1                      mixer3_contrary=0;
 696   1                      mixer4_same=5;
 697   1                      mixer4_contrary=0;
 698   1              
 699   1              for(i=0;i<6;i++)
 700   1                      IN_mapping[i]=i;
 701   1      
 702   1                      IN_mapping[6]=7;
 703   1                      IN_mapping[7]=8;
 704   1                      
 705   1              for(i=0;i<8;i++)        
 706   1                      NRF_mapping[i]=i;
 707   1                      
 708   1              for(i=0;i<8;i++)
 709   1                      receiver_mode[i]=0;
 710   1                      
 711   1              for(i=0;i<8;i++)
 712   1                      out_control[i]=0;
 713   1                      
 714   1              out_control[2]=-100;
 715   1      
 716   1              CH_index[0]=0;
 717   1              CH_index[1]=0;
 718   1              CH_index[2]=0;
 719   1              for(i=0;i<5;i++)
 720   1              {
 721   2                      turnning_point[i][0]=0;
 722   2                      turnning_point[i][1]=16;
 723   2                      turnning_point[i][2]=32;
 724   2                      turnning_point[i][3]=50;
 725   2                      turnning_point[i][4]=68;
 726   2                      turnning_point[i][5]=84;
 727   2                      turnning_point[i][6]=100;
 728   2              }
 729   1              /***************+军刀破+****************/
 730   1              //置空模型名
 731   1              for(i=0;i<7;i++)
 732   1              {
 733   2                      Model_name[i]=0;
 734   2              }
 735   1              /**************************************/
 736   1      
 737   1      }
C51 COMPILER V9.01   MAIN                                                                  05/23/2019 13:18:08 PAGE 13  

 738          
 739          u16 Model_adress(u16 num)//模型数据基地址
 740          {
 741   1              if(num>2)num-=3,Model_addrH=4;
 742   1              else Model_addrH=2;
 743   1      
 744   1              if(num==0)num=0;
 745   1              else if(num==1)num=Model_length;
 746   1              else num=Model_length*2;
 747   1              
 748   1              return num;
 749   1      }
 750          
 751          void DATA_read2()       //读取模型数据
 752          {
 753   1              u16 i,base;
 754   1              u16 sum,sum_read;
 755   1              
 756   1              IAP_CONTR=0x83;
 757   1              base=Model_adress(Model_current);       //读出所有数据
 758   1              for(i=0;i<Model_length*3;i++)
 759   1              {
 760   2                      TEMP_DATA[i]=EEPROM_read(Model_addrH,i);        
 761   2              }
 762   1              
 763   1              sum=0;
 764   1              for(i=base;i<base+Model_length-2;i++)//计算校验和
 765   1              {
 766   2                      sum+=TEMP_DATA[i];
 767   2              }
 768   1              sum_read=TEMP_DATA[base+Model_length-2];//读校验和
 769   1              sum_read<<=8;
 770   1              sum_read+=TEMP_DATA[base+Model_length-1];
 771   1              
 772   1              if(TEMP_DATA[base]!=Version||sum!=sum_read)//比较校验和
 773   1              {
 774   2                      Model_data_reset();
 775   2              }
 776   1              else
 777   1              {
 778   2                      
 779   2                              
 780   2                              CH_middle[0]=TEMP_DATA[1+base];                         //读出目标模型数据
 781   2                              CH_middle[1]=TEMP_DATA[2+base];
 782   2                              CH_middle[2]=TEMP_DATA[3+base];
 783   2                              CH_middle[3]=TEMP_DATA[4+base];
 784   2                              CH_middle[4]=TEMP_DATA[5+base];
 785   2                              CH_middle[5]=TEMP_DATA[6+base];
 786   2                              CH_middle[6]=TEMP_DATA[7+base];
 787   2                              CH_middle[7]=TEMP_DATA[8+base];
 788   2                              CH_ratio[0][0]=TEMP_DATA[9+base];
 789   2                              CH_ratio[0][1]=TEMP_DATA[10+base];
 790   2                              CH_ratio[0][2]=TEMP_DATA[11+base];
 791   2                              CH_ratio[0][3]=TEMP_DATA[12+base];
 792   2                              CH_ratio[0][4]=TEMP_DATA[13+base];
 793   2                              CH_ratio[0][5]=TEMP_DATA[14+base];
 794   2                              CH_ratio[0][6]=TEMP_DATA[15+base];
 795   2                              CH_ratio[0][7]=TEMP_DATA[16+base];
 796   2                              CH_ratio[1][0]=TEMP_DATA[17+base];
 797   2                              CH_ratio[1][1]=TEMP_DATA[18+base];
 798   2                              CH_ratio[1][2]=TEMP_DATA[19+base];
 799   2                              CH_ratio[1][3]=TEMP_DATA[20+base];
C51 COMPILER V9.01   MAIN                                                                  05/23/2019 13:18:08 PAGE 14  

 800   2                              CH_ratio[1][4]=TEMP_DATA[21+base];
 801   2                              CH_ratio[1][5]=TEMP_DATA[22+base];
 802   2                              CH_ratio[1][6]=TEMP_DATA[23+base];
 803   2                              CH_ratio[1][7]=TEMP_DATA[24+base];                      
 804   2                              CH_inverted[0]=TEMP_DATA[25+base];
 805   2                              CH_inverted[1]=TEMP_DATA[26+base];
 806   2                              CH_inverted[2]=TEMP_DATA[27+base];
 807   2                              CH_inverted[3]=TEMP_DATA[28+base];
 808   2                              CH_inverted[4]=TEMP_DATA[29+base];
 809   2                              CH_inverted[5]=TEMP_DATA[30+base];
 810   2                              CH_inverted[6]=TEMP_DATA[31+base];
 811   2                              CH_inverted[7]=TEMP_DATA[32+base];
 812   2                              mixer1=TEMP_DATA[33+base];
 813   2                              mixer2=TEMP_DATA[34+base];
 814   2                              mixer3=TEMP_DATA[35+base];
 815   2                              mixer4=TEMP_DATA[36+base];
 816   2                              mixer1_same=TEMP_DATA[37+base];
 817   2                              mixer1_contrary=TEMP_DATA[38+base];
 818   2                              mixer2_same=TEMP_DATA[39+base];
 819   2                              mixer2_contrary=TEMP_DATA[40+base];
 820   2                              mixer3_same=TEMP_DATA[41+base];
 821   2                              mixer3_contrary=TEMP_DATA[42+base];
 822   2                              mixer4_same=TEMP_DATA[43+base];
 823   2                              mixer4_contrary=TEMP_DATA[44+base];
 824   2                              
 825   2                              IN_mapping[0]=TEMP_DATA[45+base];
 826   2                              IN_mapping[1]=TEMP_DATA[46+base];
 827   2                              IN_mapping[2]=TEMP_DATA[47+base];
 828   2                              IN_mapping[3]=TEMP_DATA[48+base];
 829   2                              IN_mapping[4]=TEMP_DATA[49+base];
 830   2                              IN_mapping[5]=TEMP_DATA[50+base];
 831   2                              IN_mapping[6]=TEMP_DATA[51+base];
 832   2                              IN_mapping[7]=TEMP_DATA[52+base];
 833   2                              NRF_mapping[0]=TEMP_DATA[53+base];
 834   2                              NRF_mapping[1]=TEMP_DATA[54+base];
 835   2                              NRF_mapping[2]=TEMP_DATA[55+base];
 836   2                              NRF_mapping[3]=TEMP_DATA[56+base];
 837   2                              NRF_mapping[4]=TEMP_DATA[57+base];
 838   2                              NRF_mapping[5]=TEMP_DATA[58+base];
 839   2                              NRF_mapping[6]=TEMP_DATA[59+base];
 840   2                              NRF_mapping[7]=TEMP_DATA[60+base];
 841   2                              receiver_mode[0]=TEMP_DATA[61+base];
 842   2                              receiver_mode[1]=TEMP_DATA[62+base];
 843   2                              receiver_mode[2]=TEMP_DATA[63+base];
 844   2                              receiver_mode[3]=TEMP_DATA[64+base];
 845   2                              receiver_mode[4]=TEMP_DATA[65+base];
 846   2                              receiver_mode[5]=TEMP_DATA[66+base];
 847   2                              receiver_mode[6]=TEMP_DATA[67+base];
 848   2                              receiver_mode[7]=TEMP_DATA[68+base];
 849   2                              out_control[0]=TEMP_DATA[69+base];
 850   2                              out_control[1]=TEMP_DATA[70+base];
 851   2                              out_control[2]=TEMP_DATA[71+base];
 852   2                              out_control[3]=TEMP_DATA[72+base];
 853   2                              out_control[4]=TEMP_DATA[73+base];
 854   2                              out_control[5]=TEMP_DATA[74+base];
 855   2                              out_control[6]=TEMP_DATA[75+base];
 856   2                              out_control[7]=TEMP_DATA[76+base];
 857   2                              
 858   2                              CH_index[0]=TEMP_DATA[77+base];
 859   2                              CH_index[1]=TEMP_DATA[78+base];
 860   2                              CH_index[2]=TEMP_DATA[79+base];
 861   2                              turnning_point[0][0]=TEMP_DATA[80+base];
C51 COMPILER V9.01   MAIN                                                                  05/23/2019 13:18:08 PAGE 15  

 862   2                              turnning_point[0][1]=TEMP_DATA[81+base];
 863   2                              turnning_point[0][2]=TEMP_DATA[82+base];
 864   2                              turnning_point[0][3]=TEMP_DATA[83+base];
 865   2                              turnning_point[0][4]=TEMP_DATA[84+base];
 866   2                              turnning_point[0][5]=TEMP_DATA[85+base];
 867   2                              turnning_point[0][6]=TEMP_DATA[86+base];
 868   2                              
 869   2                              turnning_point[1][0]=TEMP_DATA[87+base];
 870   2                              turnning_point[1][1]=TEMP_DATA[88+base];
 871   2                              turnning_point[1][2]=TEMP_DATA[89+base];
 872   2                              turnning_point[1][3]=TEMP_DATA[90+base];
 873   2                              turnning_point[1][4]=TEMP_DATA[91+base];
 874   2                              turnning_point[1][5]=TEMP_DATA[92+base];
 875   2                              turnning_point[1][6]=TEMP_DATA[93+base];
 876   2                              
 877   2                              turnning_point[2][0]=TEMP_DATA[94+base];
 878   2                              turnning_point[2][1]=TEMP_DATA[95+base];
 879   2                              turnning_point[2][2]=TEMP_DATA[96+base];
 880   2                              turnning_point[2][3]=TEMP_DATA[97+base];
 881   2                              turnning_point[2][4]=TEMP_DATA[98+base];
 882   2                              turnning_point[2][5]=TEMP_DATA[99+base];
 883   2                              turnning_point[2][6]=TEMP_DATA[100+base];
 884   2                              
 885   2                              turnning_point[3][0]=TEMP_DATA[101+base];
 886   2                              turnning_point[3][1]=TEMP_DATA[102+base];
 887   2                              turnning_point[3][2]=TEMP_DATA[103+base];
 888   2                              turnning_point[3][3]=TEMP_DATA[104+base];
 889   2                              turnning_point[3][4]=TEMP_DATA[105+base];
 890   2                              turnning_point[3][5]=TEMP_DATA[106+base];
 891   2                              turnning_point[3][6]=TEMP_DATA[107+base];
 892   2                              
 893   2                              turnning_point[4][0]=TEMP_DATA[108+base];
 894   2                              turnning_point[4][1]=TEMP_DATA[109+base];
 895   2                              turnning_point[4][2]=TEMP_DATA[110+base];
 896   2                              turnning_point[4][3]=TEMP_DATA[111+base];
 897   2                              turnning_point[4][4]=TEMP_DATA[112+base];
 898   2                              turnning_point[4][5]=TEMP_DATA[113+base];
 899   2                              turnning_point[4][6]=TEMP_DATA[114+base];
 900   2                              /*************+军刀破+************/
 901   2                              //读模型名
 902   2                              Model_name[0]=TEMP_DATA[115+base];
 903   2                              Model_name[1]=TEMP_DATA[116+base];
 904   2                              Model_name[2]=TEMP_DATA[117+base];
 905   2                              Model_name[3]=TEMP_DATA[118+base];
 906   2                              Model_name[4]=TEMP_DATA[119+base];
 907   2                              Model_name[5]=TEMP_DATA[120+base];
 908   2                              Model_name[6]=TEMP_DATA[121+base];
 909   2                              /*************+军刀破+************/
 910   2              }
 911   1      
 912   1              IAP_CONTR=0;
 913   1      }
 914          
 915          void DATA_save2()       //保存模型数据
 916          {
 917   1              u16 i,base;
 918   1              u16 sum;
 919   1              IAP_CONTR=0x83;
 920   1              base=Model_adress(Model_current);
 921   1                      EEPROM_clean(Model_addrH);
 922   1                      
 923   1                              TEMP_DATA[base]=Version;
C51 COMPILER V9.01   MAIN                                                                  05/23/2019 13:18:08 PAGE 16  

 924   1      
 925   1                              TEMP_DATA[1+base]=CH_middle[0]; //修改目标模型数据
 926   1                              TEMP_DATA[2+base]=CH_middle[1];
 927   1                              TEMP_DATA[3+base]=CH_middle[2];
 928   1                              TEMP_DATA[4+base]=CH_middle[3];
 929   1                              TEMP_DATA[5+base]=CH_middle[4];
 930   1                              TEMP_DATA[6+base]=CH_middle[5];
 931   1                              TEMP_DATA[7+base]=CH_middle[6];
 932   1                              TEMP_DATA[8+base]=CH_middle[7];
 933   1                              TEMP_DATA[9+base]=CH_ratio[0][0];
 934   1                              TEMP_DATA[10+base]=CH_ratio[0][1];
 935   1                              TEMP_DATA[11+base]=CH_ratio[0][2];
 936   1                              TEMP_DATA[12+base]=CH_ratio[0][3];
 937   1                              TEMP_DATA[13+base]=CH_ratio[0][4];
 938   1                              TEMP_DATA[14+base]=CH_ratio[0][5];
 939   1                              TEMP_DATA[15+base]=CH_ratio[0][6];
 940   1                              TEMP_DATA[16+base]=CH_ratio[0][7];
 941   1                              TEMP_DATA[17+base]=CH_ratio[1][0];
 942   1                              TEMP_DATA[18+base]=CH_ratio[1][1];
 943   1                              TEMP_DATA[19+base]=CH_ratio[1][2];
 944   1                              TEMP_DATA[20+base]=CH_ratio[1][3];
 945   1                              TEMP_DATA[21+base]=CH_ratio[1][4];
 946   1                              TEMP_DATA[22+base]=CH_ratio[1][5];
 947   1                              TEMP_DATA[23+base]=CH_ratio[1][6];
 948   1                              TEMP_DATA[24+base]=CH_ratio[1][7];                      
 949   1                              TEMP_DATA[25+base]=CH_inverted[0];
 950   1                              TEMP_DATA[26+base]=CH_inverted[1];
 951   1                              TEMP_DATA[27+base]=CH_inverted[2];
 952   1                              TEMP_DATA[28+base]=CH_inverted[3];
 953   1                              TEMP_DATA[29+base]=CH_inverted[4];
 954   1                              TEMP_DATA[30+base]=CH_inverted[5];
 955   1                              TEMP_DATA[31+base]=CH_inverted[6];
 956   1                              TEMP_DATA[32+base]=CH_inverted[7];
 957   1                              TEMP_DATA[33+base]=mixer1;
 958   1                              TEMP_DATA[34+base]=mixer2;
 959   1                              TEMP_DATA[35+base]=mixer3;
 960   1                              TEMP_DATA[36+base]=mixer4;
 961   1                              TEMP_DATA[37+base]=mixer1_same;
 962   1                              TEMP_DATA[38+base]=mixer1_contrary;
 963   1                              TEMP_DATA[39+base]=mixer2_same;
 964   1                              TEMP_DATA[40+base]=mixer2_contrary;
 965   1                              TEMP_DATA[41+base]=mixer3_same;
 966   1                              TEMP_DATA[42+base]=mixer3_contrary;
 967   1                              TEMP_DATA[43+base]=mixer4_same;
 968   1                              TEMP_DATA[44+base]=mixer4_contrary;
 969   1                              
 970   1                              TEMP_DATA[45+base]=IN_mapping[0];
 971   1                              TEMP_DATA[46+base]=IN_mapping[1];
 972   1                              TEMP_DATA[47+base]=IN_mapping[2];
 973   1                              TEMP_DATA[48+base]=IN_mapping[3];
 974   1                              TEMP_DATA[49+base]=IN_mapping[4];
 975   1                              TEMP_DATA[50+base]=IN_mapping[5];
 976   1                              TEMP_DATA[51+base]=IN_mapping[6];
 977   1                              TEMP_DATA[52+base]=IN_mapping[7];
 978   1                              TEMP_DATA[53+base]=NRF_mapping[0];
 979   1                              TEMP_DATA[54+base]=NRF_mapping[1];
 980   1                              TEMP_DATA[55+base]=NRF_mapping[2];
 981   1                              TEMP_DATA[56+base]=NRF_mapping[3];
 982   1                              TEMP_DATA[57+base]=NRF_mapping[4];
 983   1                              TEMP_DATA[58+base]=NRF_mapping[5];
 984   1                              TEMP_DATA[59+base]=NRF_mapping[6];
 985   1                              TEMP_DATA[60+base]=NRF_mapping[7];
C51 COMPILER V9.01   MAIN                                                                  05/23/2019 13:18:08 PAGE 17  

 986   1                              TEMP_DATA[61+base]=receiver_mode[0];
 987   1                              TEMP_DATA[62+base]=receiver_mode[1];
 988   1                              TEMP_DATA[63+base]=receiver_mode[2];
 989   1                              TEMP_DATA[64+base]=receiver_mode[3];
 990   1                              TEMP_DATA[65+base]=receiver_mode[4];
 991   1                              TEMP_DATA[66+base]=receiver_mode[5];
 992   1                              TEMP_DATA[67+base]=receiver_mode[6];
 993   1                              TEMP_DATA[68+base]=receiver_mode[7];
 994   1                              TEMP_DATA[69+base]=out_control[0];
 995   1                              TEMP_DATA[70+base]=out_control[1];
 996   1                              TEMP_DATA[71+base]=out_control[2];
 997   1                              TEMP_DATA[72+base]=out_control[3];
 998   1                              TEMP_DATA[73+base]=out_control[4];
 999   1                              TEMP_DATA[74+base]=out_control[5];
1000   1                              TEMP_DATA[75+base]=out_control[6];
1001   1                              TEMP_DATA[76+base]=out_control[7];
1002   1                              
1003   1                              TEMP_DATA[77+base]=CH_index[0];
1004   1                              TEMP_DATA[78+base]=CH_index[1];
1005   1                              TEMP_DATA[79+base]=CH_index[2];
1006   1                              TEMP_DATA[80+base]=turnning_point[0][0];
1007   1                              TEMP_DATA[81+base]=turnning_point[0][1];
1008   1                              TEMP_DATA[82+base]=turnning_point[0][2];
1009   1                              TEMP_DATA[83+base]=turnning_point[0][3];
1010   1                              TEMP_DATA[84+base]=turnning_point[0][4];
1011   1                              TEMP_DATA[85+base]=turnning_point[0][5];
1012   1                              TEMP_DATA[86+base]=turnning_point[0][6];
1013   1                              
1014   1                              TEMP_DATA[87+base]=turnning_point[1][0];
1015   1                              TEMP_DATA[88+base]=turnning_point[1][1];
1016   1                              TEMP_DATA[89+base]=turnning_point[1][2];
1017   1                              TEMP_DATA[90+base]=turnning_point[1][3];
1018   1                              TEMP_DATA[91+base]=turnning_point[1][4];
1019   1                              TEMP_DATA[92+base]=turnning_point[1][5];
1020   1                              TEMP_DATA[93+base]=turnning_point[1][6];
1021   1                              
1022   1                              TEMP_DATA[94+base]=turnning_point[2][0];
1023   1                              TEMP_DATA[95+base]=turnning_point[2][1];
1024   1                              TEMP_DATA[96+base]=turnning_point[2][2];
1025   1                              TEMP_DATA[97+base]=turnning_point[2][3];
1026   1                              TEMP_DATA[98+base]=turnning_point[2][4];
1027   1                              TEMP_DATA[99+base]=turnning_point[2][5];
1028   1                              TEMP_DATA[100+base]=turnning_point[2][6];
1029   1                              
1030   1                              TEMP_DATA[101+base]=turnning_point[3][0];
1031   1                              TEMP_DATA[102+base]=turnning_point[3][1];
1032   1                              TEMP_DATA[103+base]=turnning_point[3][2];
1033   1                              TEMP_DATA[104+base]=turnning_point[3][3];
1034   1                              TEMP_DATA[105+base]=turnning_point[3][4];
1035   1                              TEMP_DATA[106+base]=turnning_point[3][5];
1036   1                              TEMP_DATA[107+base]=turnning_point[3][6];
1037   1                              
1038   1                              TEMP_DATA[108+base]=turnning_point[4][0];
1039   1                              TEMP_DATA[109+base]=turnning_point[4][1];
1040   1                              TEMP_DATA[110+base]=turnning_point[4][2];
1041   1                              TEMP_DATA[111+base]=turnning_point[4][3];
1042   1                              TEMP_DATA[112+base]=turnning_point[4][4];
1043   1                              TEMP_DATA[113+base]=turnning_point[4][5];
1044   1                              TEMP_DATA[114+base]=turnning_point[4][6];
1045   1                              /*************+军刀破+************/
1046   1                              //模型名
1047   1                              TEMP_DATA[115+base]=Model_name[0];
C51 COMPILER V9.01   MAIN                                                                  05/23/2019 13:18:08 PAGE 18  

1048   1                              TEMP_DATA[116+base]=Model_name[1];
1049   1                              TEMP_DATA[117+base]=Model_name[2];
1050   1                              TEMP_DATA[118+base]=Model_name[3];
1051   1                              TEMP_DATA[119+base]=Model_name[4];
1052   1                              TEMP_DATA[120+base]=Model_name[5];
1053   1                              TEMP_DATA[121+base]=Model_name[6];
1054   1                              /*************+军刀破+************/
1055   1                              
1056   1                                                      
1057   1      
1058   1              sum=0;
1059   1              for(i=base;i<base+Model_length-2;i++)//计算校验和
1060   1              {
1061   2                      sum+=TEMP_DATA[i];
1062   2              }
1063   1              TEMP_DATA[Model_length-2+base]=sum>>8;//写入校验和
1064   1              TEMP_DATA[Model_length-1+base]=sum;
1065   1              
1066   1      
1067   1              for(i=0;i<Model_length*3;i++)
1068   1              {
1069   2                      EEPROM_write(Model_addrH,i,TEMP_DATA[i]);       //写入所有数据
1070   2              }
1071   1              IAP_CONTR=0;
1072   1      }
1073          
1074          /**************************************************************************/
1075          //NRF24L01+
1076          u8 SPI(u8 byte)
1077          {
1078   1              u8 i;
1079   1              for(i=0;i<8;i++)
1080   1              {
1081   2                      MDI=(byte&0x80);
1082   2                      SCK=1;
1083   2                      byte<<=1;
1084   2                      byte|=MDO;
1085   2                      SCK=0;
1086   2              }
1087   1              return byte;
1088   1      }
1089          
1090          void REG_write(u8 address,u8 command)
1091          {
1092   1              CSN=0;
1093   1              SPI(0x20+address);
1094   1              SPI(command);
1095   1              CSN=1;
1096   1      }
1097          
1098          u8 REG_read(u8 address)
1099          {
1100   1              u8 m;
1101   1              CSN=0;
1102   1              SPI(address);
1103   1              m=SPI(0);
1104   1              CSN=1;
1105   1              return m;
1106   1      }
1107          
1108          void FIFO_write(u8 DATA_OUT[],u8 lengh)
1109          {
C51 COMPILER V9.01   MAIN                                                                  05/23/2019 13:18:08 PAGE 19  

1110   1              u8 i;
1111   1              CSN=0;
1112   1              SPI(0xa0);
1113   1              for(i=0;i<lengh;i++)
1114   1              SPI(DATA_OUT[i]);
1115   1              CSN=1;
1116   1      }
1117          void FIFO_write2(u8 DATA_OUT[],u8 lengh)
1118          {
1119   1              u8 i;
1120   1              CSN=0;
1121   1              SPI(0xa0);
1122   1              for(i=0;i<lengh;i++)
1123   1              SPI(DATA_OUT[i]);
1124   1              CSN=1;
1125   1      }
1126          void FIFO_read(u8 DATA_IN[],u8 lengh)           //读取接收数据缓冲区
1127          {
1128   1              u8 i;
1129   1              CSN=0;
1130   1              SPI(0x61);      //读取命令
1131   1              for(i=0;i<lengh;i++)
1132   1              DATA_IN[i]=SPI(0);         
1133   1              CSN=1;
1134   1      }
1135          void FIFO_read2(u8 DATA_IN[],u8 lengh)          //读取接收数据缓冲区
1136          {
1137   1              u8 i;
1138   1              CSN=0;
1139   1              SPI(0x61);      //读取命令
1140   1              for(i=0;i<lengh;i++)
1141   1              DATA_IN[i]=SPI(0);         
1142   1              CSN=1;
1143   1      }
1144          void TX_address(u8 DATA_IN[])
1145          {
1146   1              CSN=0;           
1147   1              SPI(0x20+0x10);
1148   1              SPI(DATA_IN[0]);
1149   1              SPI(DATA_IN[1]);
1150   1              SPI(DATA_IN[2]);
1151   1              SPI(DATA_IN[3]);
1152   1              SPI(DATA_IN[4]);
1153   1              CSN=1;  
1154   1      }  
1155          void RX_address(u8 DATA_IN[])
1156          {
1157   1              CSN=0;           
1158   1              SPI(0x20+0x0a);
1159   1              SPI(DATA_IN[0]);
1160   1              SPI(DATA_IN[1]);
1161   1              SPI(DATA_IN[2]);
1162   1              SPI(DATA_IN[3]);
1163   1              SPI(DATA_IN[4]);
1164   1              CSN=1;  
1165   1      }
1166          void RX_mode()                           
1167          {
1168   1              CE=0;
1169   1              REG_write(0x00,0x3b); //CRC,8 bit,Power on,RX
1170   1              CE=1;
1171   1      }                                  
C51 COMPILER V9.01   MAIN                                                                  05/23/2019 13:18:08 PAGE 20  

1172                  
1173          void TX_mode()                           
1174          {
1175   1              CE=0;
1176   1              REG_write(0x00,0x0a);
1177   1        CE=1;
1178   1      }
1179          
1180          void  NRF_power(u8 P)                           //发射功率设置
1181          {
1182   1              CE=0;
1183   1              if(P==3)REG_write(0x06,0x27);             //0db 修正之前注释错误
1184   1              else if(P==2)REG_write(0x06,0x25);        //-6db
1185   1              else if(P==1)REG_write(0x06,0x23);        //-12db
1186   1              else if(P==0)REG_write(0x06,0x21);    //-18db
1187   1              CE=1;
1188   1      }
1189          
1190          void NRF_size(u8 l)
1191          {
1192   1              CE=0;
1193   1              REG_write(0x11,l);  
1194   1              CE=1;
1195   1      }
1196          
1197          void NRF_channel(u8 c)
1198          {
1199   1              CE=0;
1200   1              REG_write(0x05,c);  
1201   1              CE=1;
1202   1      }
1203          
1204          
1205          void NRF_init()
1206          {       
1207   1              CE=0;
1208   1              SCK=0;
1209   1              REG_write(0x01,0x00); //禁止 自动应答
1210   1              REG_write(0x02,0x01); //允许 P0信道
1211   1              REG_write(0x04,0x00); //禁止 自动重发
1212   1              TX_mode(); //REG_write(0x1d,0x01);                       
1213   1              NRF_channel(66);
1214   1              NRF_power(TX_power);
1215   1              NRF_size(11);
1216   1              TX_address(address);
1217   1              RX_address(address);
1218   1      }
1219          
1220          void NRF_test() //无线模块终极测试
1221          {       
1222   1              u8 reset_err=0;
1223   1              
1224   1              if(MDO==0){NRF_error|=0x02;}//MOSI bad
1225   1              if(MDI==0)NRF_error|=0x10;              //MISO bad
1226   1              if(IRQ==0)NRF_error|=0x08;      //IRQ bad
1227   1                      if(CSN==0)NRF_error|=0x01;//CSN,CLK bad
1228   1              
1229   1              CE=0;
1230   1              SCK=0;
1231   1              CSN=0;
1232   1              
1233   1              if(SPI(0x20)!=0x0e){reset_err=1;}
C51 COMPILER V9.01   MAIN                                                                  05/23/2019 13:18:08 PAGE 21  

1234   1              SPI(0x0a);
1235   1      
1236   1              CSN=1;
1237   1      
1238   1              CSN=0;
1239   1              SPI(0x00);
1240   1      
1241   1              if(SPI(0x00)!=0x0a){NRF_error|=0x02;}//MOSI bad
1242   1              CSN=1;
1243   1      
1244   1              REG_write(0x01,0x00);
1245   1              REG_write(0x04,0x00);
1246   1              REG_write(0x11,1);
1247   1              
1248   1              FIFO_write(tx_buff,1);
1249   1              CE=1;
1250   1      
1251   1              delay_ms(2);
1252   1              
1253   1              CSN=0;
1254   1      
1255   1              if(SPI(0x00)!=0x2e){NRF_error|=0x04;}//CE bad
1256   1              CSN=1;
1257   1                      
1258   1              if(IRQ)NRF_error|=0x18; //IRQ bad
1259   1              else 
1260   1              {
1261   2                      if(NRF_error&0x04==0)NRF_error|=0x10;           //MISO bad
1262   2              }
1263   1              CE=1;
1264   1              
1265   1              if(reset_err&&NRF_error>1)NRF_error|=0x01;//CSN,CLK bad
1266   1              
1267   1              REG_write(0x07,0x20);   //清除TX中断信号
1268   1      }
1269          
1270          void device_connect()
1271          {
1272   1              u8 n;
1273   1              
1274   1              RC_TX=0;
1275   1               
1276   1              tx_order[0]=0xa0;
1277   1              tx_order[1]=hopping[0];
1278   1              tx_order[2]=hopping[1];
1279   1              tx_order[3]=hopping[2];
1280   1              tx_order[4]=hopping[3];
1281   1              tx_order[5]=hopping[4];
1282   1              tx_order[6]=address[0];
1283   1              tx_order[7]=address[1];
1284   1              tx_order[8]=address[2];
1285   1              tx_order[9]=address[3];
1286   1              tx_order[10]=address[4];        
1287   1                       
1288   1              NRF_channel(33);
1289   1              NRF_power(0);
1290   1              NRF_size(11);
1291   1              TX_address(address_0);
1292   1              RX_address(address_0);
1293   1              
1294   1              cancel=0;connecting=1;
1295   1              while(!cancel&connecting)                                        //把对频信息发给接收机，若收到回复表面通信成功，
C51 COMPILER V9.01   MAIN                                                                  05/23/2019 13:18:08 PAGE 22  

1296   1              {                                                                //收不到继续发送
1297   2                      TX_mode();
1298   2                      FIFO_write(tx_order,11);
1299   2                      Delay1ms();
1300   2                      RX_mode();
1301   2                      
1302   2                      while(1)
1303   2                      {               
1304   3                              Delay1ms();
1305   3                              if(IRQ==0)
1306   3                              {
1307   4                                      FIFO_read(rx,11);               //读取接收数据
1308   4                                      CE=0;
1309   4                                      REG_write(0x07,0x40);   //清除RX中断信号
1310   4                                      CE=1;   
1311   4                                      if(rx[0]=='O'&&rx[1]=='K')
1312   4                                      {
1313   5                                              cancel=0;connecting=0;
1314   5                                      }
1315   4                              }
1316   3                                      
1317   3                              n++;if(n>50){n=0;break;}
1318   3                      }
1319   2              }
1320   1      
1321   1      
1322   1              RC_TX=1;
1323   1              NRF_power(TX_power);//恢复发射状态
1324   1              NRF_size(11);
1325   1              TX_address(address);
1326   1              RX_address(address); 
1327   1                               
1328   1      }
1329          
1330          
1331          
1332          
1333          
1334          
1335          /***********************************************/
1336          //12864液晶操作函数
1337          void LCD(u8 D)
1338          {
1339   1              DATA=D;
1340   1              CLK=0;SDA=D_7;CLK=1;
1341   1              CLK=0;SDA=D_6;CLK=1;
1342   1              CLK=0;SDA=D_5;CLK=1;
1343   1              CLK=0;SDA=D_4;CLK=1;
1344   1              CLK=0;SDA=D_3;CLK=1;
1345   1              CLK=0;SDA=D_2;CLK=1;
1346   1              CLK=0;SDA=D_1;CLK=1;
1347   1              CLK=0;SDA=D_0;CLK=1;
1348   1              CLK=0;
1349   1      }
1350          
1351          
1352          void location(u8 x,u8 y)
1353          {
1354   1              RS=0;
1355   1              if(LCD_reverse)
1356   1              {
1357   2                      if(LCD_big)x+=3;
C51 COMPILER V9.01   MAIN                                                                  05/23/2019 13:18:08 PAGE 23  

1358   2                      else x+=4;
1359   2              }
1360   1              else
1361   1              {
1362   2                      if(LCD_big)x++; 
1363   2              }
1364   1              
1365   1              LCD(0xb0+y);
1366   1              LCD(((x>>4)&0x0f)+0x10);
1367   1              LCD(x&0x0f);
1368   1              RS=1;
1369   1      }
1370          
1371          void LCD_ON()
1372          {CS=0;}
1373          
1374          void LCD_OFF()
1375          {CS=1;}
1376          
1377          void LCD_clean(u8 x,u8 y,u8 length,u8 width)//清空指定区域
1378          {
1379   1              u8 i,j;
1380   1        for(i=0;i<width;i++)
1381   1        {
1382   2                      location(x,i+y);
1383   2                      for(j=0;j<length;j++)
1384   2                LCD(0);
1385   2        }
1386   1      }
1387          
1388          void LCD_init()
1389          {
1390   1        LCD_ON();
1391   1              
1392   1              RST=0;
1393   1        delay_ms(2);
1394   1        RST=1;
1395   1        delay_ms(10);
1396   1      
1397   1        RS=0;
1398   1        LCD(0xe2);//软复位
1399   1              Delay1ms();
1400   1        
1401   1        LCD(0x2c);
1402   1              LCD(0x2e);
1403   1              LCD(0x2f);//开启升压
1404   1        LCD(0x23);//粗调对比度
1405   1        LCD(0x81);//微调对比度
1406   1        LCD(LCD_vop);
1407   1              
1408   1              LCD(0xa0);//从左到右
1409   1        LCD(0xa2);//偏压1:9 
1410   1              LCD(0xa4);//正常显示
1411   1              LCD(0xa6);//正显 
1412   1        LCD(0xc8);//从上到下
1413   1        
1414   1              if(LCD_big)LCD(0x60);//起始行2
1415   1        else LCD(0x40);//起始行1
1416   1        LCD(0xaf);
1417   1        RS=1;
1418   1              
1419   1        LCD_clean(0,0,128,8);
C51 COMPILER V9.01   MAIN                                                                  05/23/2019 13:18:08 PAGE 24  

1420   1        LCD_OFF();
1421   1       
1422   1      }
1423          
1424          void send(u8 k)
1425          {
1426   1              u8 j;
1427   1              for(j=0;j<6;j++)
1428   1              LCD(font[k-32][j]);             
1429   1      }
1430          
1431          void send2(u8 k,u8 x,u8 y)               //写大字母
1432          {
1433   1              u8 i;
1434   1              k-=32;
1435   1              location(x,y);
1436   1              for(i=0;i<8;i++)
1437   1              {
1438   2                      LCD(font_big[k][i]);    
1439   2              }
1440   1              location(x,y+1);
1441   1              for(i=8;i<16;i++)
1442   1              {
1443   2                      LCD(font_big[k][i]);    
1444   2              }
1445   1      }
1446          
1447          /**
1448          写大字母，反显
1449          */
1450          void send2_rev(u8 k,u8 x, u8 y)
1451          {
1452   1              u8 i;
1453   1              k-=32;
1454   1              location(x,y);
1455   1              for(i=0;i<8;i++)
1456   1              {
1457   2                      LCD(~font_big[k][i]);   
1458   2              }
1459   1              location(x,y+1);
1460   1              for(i=8;i<16;i++)
1461   1              {
1462   2                      LCD(~font_big[k][i]);   
1463   2              }
1464   1      }
1465          
1466          void send2_hex(u8 k,u8 x,u8 y)
1467          {
1468   1              u8 i;
1469   1              if(k>9)
1470   1              {
1471   2                      k+=23;
1472   2                      location(x,y);
1473   2                      for(i=0;i<8;i++)
1474   2                      {
1475   3                              LCD(font_big[k][i]);    
1476   3                      }
1477   2                      location(x,y+1);
1478   2                      for(i=8;i<16;i++)
1479   2                      {
1480   3                              LCD(font_big[k][i]);    
1481   3                      }
C51 COMPILER V9.01   MAIN                                                                  05/23/2019 13:18:08 PAGE 25  

1482   2              }
1483   1              else
1484   1              {
1485   2                      k+=16;
1486   2                      location(x,y);
1487   2                      for(i=0;i<8;i++)
1488   2                      {
1489   3                              LCD(font_big[k][i]);    
1490   3                      }
1491   2                      location(x,y+1);
1492   2                      for(i=8;i<16;i++)
1493   2                      {
1494   3                              LCD(font_big[k][i]);    
1495   3                      }
1496   2              }
1497   1              
1498   1      }
1499          
1500          void send3(u8 *p,u8 x,u8 y)              //写汉字
1501          {
1502   1              u8 i;
1503   1              location(x,y);
1504   1              for(i=0;i<12;i++)
1505   1              {
1506   2                      LCD(*p),p++;    
1507   2              }
1508   1              location(x,y+1);
1509   1              for(i=0;i<12;i++)
1510   1              {
1511   2                      LCD(*p),p++;    
1512   2              }
1513   1      }
1514          
1515          void write(u8 x,u8 y)                   //显示汉字
1516          {
1517   1              u8 *d;
1518   1              d=word;
1519   1              while(*d)
1520   1              {               
1521   2                      send3(hzk[*d],x,y);
1522   2                      d++;x+=12;
1523   2              }
1524   1      
1525   1      }
1526          void write0(u8 *d,u8 x,u8 y)                    //显示汉字串
1527          {
1528   1      
1529   1              while(*d)
1530   1              {               
1531   2                      send3(hzk[*d],x,y);
1532   2                      d++;x+=12;
1533   2              }
1534   1      
1535   1      }
1536          /*
1537          void write2(u8 x,u8 y)                  //显示大字母
1538          {
1539                  u8 *d;
1540                  d=word;
1541                  while(*d)
1542                  {               
1543                          send2(*d,x,y);
C51 COMPILER V9.01   MAIN                                                                  05/23/2019 13:18:08 PAGE 26  

1544                          d++;x+=8;
1545                  }
1546          
1547          }*/
1548          
1549          
1550          void photo(u8 *p,u8 x,u8 y,u8 length,u8 width)//显示指定大小的图片
1551          {
1552   1        u8 i,j;
1553   1        for(i=0;i<width;i++)
1554   1        {
1555   2                      location(x,i+y);
1556   2                      for(j=0;j<length;j++)
1557   2                LCD(*p),p++;
1558   2        }     
1559   1      }
1560          
1561          void display_trim1(u8 v,u8 base)//显示竖微调
1562          {
1563   1              u8 i;unsigned long L1,L2=0,L3,L4=0;
1564   1              L1=0x03e00000;v/=5;
1565   1              for(i=0;i<v;i++)
1566   1              {
1567   2                      if(L1&1)
1568   2                      {
1569   3                              L1>>=1,L2>>=1;L2|=0x80000000;
1570   3                      }
1571   2                      else L1>>=1,L2>>=1;
1572   2              }
1573   1              L2|=0x40000000;
1574   1      
1575   1              if(v==0)L3=0x00100000,L4=0;
1576   1              else if(v==50)L3=0,L4=0x00000100;
1577   1              else
1578   1              {
1579   2                      L3=0x02080000;L4=0;
1580   2                      for(i=1;i<v;i++)
1581   2                      {
1582   3                              if(L3&1)
1583   3                              {
1584   4                                      L3>>=1,L4>>=1;L4|=0x80000000;
1585   4                              }
1586   3                              else L3>>=1,L4>>=1;
1587   3                      }
1588   2              }
1589   1              L4|=0x40000000;
1590   1      
1591   1              location(base,7);LCD(L1>>24);LCD(L3>>24);LCD(0x03);LCD(L3>>24);LCD(L1>>24);
1592   1              location(base,6);LCD(L1>>16);LCD(L3>>16);LCD(0xff);LCD(L3>>16);LCD(L1>>16);
1593   1              location(base,5);LCD(L1>>8); LCD(L3>>8); LCD(0xff);LCD(L3>>8); LCD(L1>>8);
1594   1              location(base,4);LCD(L1);    LCD(L3);    LCD(0xff);LCD(L3);    LCD(L1);
1595   1              location(base,3);LCD(L2>>24);LCD(L4>>24);LCD(0xff);LCD(L4>>24);LCD(L2>>24);
1596   1              location(base,2);LCD(L2>>16);LCD(L4>>16);LCD(0xff);LCD(L4>>16);LCD(L2>>16);
1597   1              location(base,1);LCD(L2>>8); LCD(L4>>8); LCD(0xff);LCD(L4>>8); LCD(L2>>8);  
1598   1              location(base,0);LCD(L2);        LCD(L4);        LCD(0xf8);LCD(L4);    LCD(L2);          
1599   1      }
1600          
1601          void display_trim2(u8 v)//显示横微调
1602          {
1603   1              u8 i;char m;
1604   1              v=v/5+2;                
1605   1              for(i=0;i<55;i++)
C51 COMPILER V9.01   MAIN                                                                  05/23/2019 13:18:08 PAGE 27  

1606   1              {               
1607   2                      if(i==27)LCD(0x7c);
1608   2                      else
1609   2                      {
1610   3                              m=v-i;
1611   3                              if(m==3)LCD(0x38);
1612   3                              else if(m==2)LCD(0x54); 
1613   3                              else if(m==1)LCD(0x54);
1614   3                              else if(m==0)LCD(0x54);
1615   3                              else if(m==-1)LCD(0x54);
1616   3                              else if(m==-2)LCD(0x54);
1617   3                              else if(m==-3)LCD(0x38);
1618   3                              else LCD(0x10);
1619   3                      }
1620   2                      
1621   2              }
1622   1      }
1623          
1624          void display_throttle(u8 x)//显示油门
1625          {
1626   1              u8 i;long L=0;
1627   1              x=x/8;
1628   1              for(i=0;i<x;i++)
1629   1              {
1630   2                      L>>=1;
1631   2                      L|=0x80000000;
1632   2              }
1633   1              L++;
1634   1              location(9,6);LCD(L>>24);LCD(L>>24);
1635   1              location(9,5);LCD(L>>16);LCD(L>>16);
1636   1              location(9,4);LCD(L>>8);LCD(L>>8);
1637   1              location(9,3);LCD(L);LCD(L);
1638   1      }
1639          
1640          void warning(u8 x,u8 y,u8 W)//警告
1641          {
1642   1              location(x,y);
1643   1              if(W)
1644   1              {
1645   2                      LCD(0x40);LCD(0x60);LCD(0x50);LCD(0x48);LCD(0x44);LCD(0x42);LCD(0x6d);
1646   2                      LCD(0x42);LCD(0x44);LCD(0x48);LCD(0x50);LCD(0x60);LCD(0x40);    
1647   2              }
1648   1              else
1649   1              {
1650   2                      LCD(0x00);LCD(0x00);LCD(0x00);LCD(0x00);LCD(0x00);LCD(0x00);LCD(0x00);
1651   2                      LCD(0x00);LCD(0x00);LCD(0x00);LCD(0x00);LCD(0x00);LCD(0x00);
1652   2              }
1653   1              
1654   1      }
1655          
1656          void write_num100(int num,u8 x,u8 y,u8 c)//写1000内数字，c为类型选择
1657          {
1658   1              if(c=='-'||c=='/'||c=='#')
1659   1              {
1660   2                      if(num>0)send2('+',x-8,y);
1661   2                      else if(num<0)num=-num,send2('-',x-8,y);
1662   2                      else send2(' ',x-8,y);
1663   2              }
1664   1              if(num>99)send2(num/100+48,x,y);
1665   1              else send2(' ',x,y);
1666   1              send2(num%100/10+48,x+8,y);
1667   1              if(c=='.'||c=='#')
C51 COMPILER V9.01   MAIN                                                                  05/23/2019 13:18:08 PAGE 28  

1668   1              {
1669   2                      send2('.',x+16,y);
1670   2                      send2(num%10+48,x+24,y);
1671   2                      if(c=='#')send2('%',x+32,y);
1672   2                      
1673   2              }
1674   1              else
1675   1              {
1676   2                      send2(num%10+48,x+16,y);
1677   2                      if(c=='%'||c=='/')send2('%',x+24,y);
1678   2              }
1679   1              
1680   1      }
1681          
1682          void write_num1000(int num,u8 c)//写10000内数字
1683          {               
1684   1              
1685   1              if(num>999)
1686   1              {
1687   2                      if(c==0)send(49);
1688   2                      else num/=10;
1689   2                      
1690   2                      send(num%1000/100+48);                                                  
1691   2                      send(num%100/10+48);
1692   2                              if(c=='.')LCD(0x00),LCD(0x40);                  
1693   2                      send(num%10+48);
1694   2              }
1695   1              else 
1696   1              {
1697   2                      if(c==0)send(' ');
1698   2                      else if(c=='-')
1699   2                      {
1700   3                              if(num>0)send('+');
1701   3                              else if(num<0)num=-num,send('-');
1702   3                              else send(' ');
1703   3                      }
1704   2                      send(num%1000/100+48);
1705   2                              if(c=='.')LCD(0x00),LCD(0x40);                          
1706   2                      send(num%100/10+48);                    
1707   2                      send(num%10+48);
1708   2              }       
1709   1              
1710   1              
1711   1                                                                              
1712   1              
1713   1      }
1714          
1715          u8 move_cursor(u8 line,u8 line_max)//光标移动
1716          {
1717   1              if(last_line!=line)LCD_clean(0,0,128,8);
1718   1              last_line=line;
1719   1              
1720   1              if(up)
1721   1              {
1722   2                      up=0;
1723   2                      if(line>0)line--;
1724   2                      else line=line_max;
1725   2              }
1726   1              if(down)
1727   1              {
1728   2                      down=0;
1729   2                      if(line<line_max)line++;
C51 COMPILER V9.01   MAIN                                                                  05/23/2019 13:18:08 PAGE 29  

1730   2                      else line=0;
1731   2              }
1732   1              
1733   1              return line;
1734   1      }
1735          
1736          /*********+军刀破+******************
1737          显示当前模型名称，当模型未有命名时，显示第几号模型，即当时系统所有的模型号数
1738          */
1739          void displayModel()
1740          {
1741   1                              u8 i=0;
1742   1                      bit have=0;
1743   1                      for(i=0;i<7;i++)
1744   1                      {
1745   2                              send2(Model_name[i]+32,70+i*8,3);
1746   2                              if(Model_name[i]>0 && Model_name[i]<=90) have=1;
1747   2                      }
1748   1              //没有命名的模型显示序号 
1749   1              if(!have)
1750   1              {
1751   2                      int idx=70;
1752   2                      if(Model_current<10)
1753   2                      {
1754   3                      send3(hzk[Model_current+81],idx,3);
1755   3                      idx+=12;
1756   3                      send3(hzk[68],idx,3);  //号
1757   3                      idx+=12;
1758   3                      send3(hzk[8],idx,3);   //模
1759   3                      idx+=12;
1760   3                      send3(hzk[159],idx,3); //型
1761   3                      }
1762   2                      else if(Model_current<19)
1763   2                      {
1764   3                              idx=64;
1765   3                              send3(hzk[90],idx,3);
1766   3                              idx+=12;
1767   3                              send3(hzk[Model_current+71],idx,3);  
1768   3                              idx+=12;
1769   3                              send3(hzk[68],idx,3);  //号
1770   3                              idx+=12;
1771   3                              send3(hzk[8],idx,3);   //模
1772   3                              idx+=12;
1773   3                              send3(hzk[159],idx,3); //型
1774   3                      }
1775   2                      else
1776   2                      {
1777   3                              idx=64;
1778   3                              send3(hzk[(Model_current+1)/10+80],idx,3);
1779   3                              idx+=12;
1780   3                              send3(hzk[90],idx,3);  
1781   3                              idx+=12;
1782   3                              send3(hzk[68],idx,3);  //号
1783   3                              idx+=12;
1784   3                              send3(hzk[8],idx,3);   //模
1785   3                              idx+=12;
1786   3                              send3(hzk[159],idx,3); //型
1787   3                      }
1788   2              }
1789   1      }
1790          /*******+军刀破+******************/
1791                  
C51 COMPILER V9.01   MAIN                                                                  05/23/2019 13:18:08 PAGE 30  

1792          void display_menu(u8 line,u8 line_max)//显示菜单
1793          {
1794   1              
1795   1              if(line_max<4)send3(hzk[1],0,line+line);
1796   1              else 
1797   1              {
1798   2                      if(line<3)send3(hzk[1],0,line+line);
1799   2                      else if(line==line_max)send3(hzk[1],0,6);
1800   2                      else send3(hzk[1],0,4);
1801   2              }
1802   1              
1803   1              if(line<3)
1804   1              {
1805   2                      if(line_max==2)
1806   2                      {
1807   3                              write0(WW[0],12,0);
1808   3                              write0(WW[1],12,2);
1809   3                              write0(WW[2],12,4);
1810   3                      }
1811   2                      else
1812   2                      {
1813   3                              write0(WW[0],12,0);
1814   3                              write0(WW[1],12,2);
1815   3                              write0(WW[2],12,4);
1816   3                              write0(WW[3],12,6);     
1817   3                      }
1818   2                      
1819   2              }
1820   1              else if(line==line_max)
1821   1              {
1822   2                      write0(WW[line-3],12,0);
1823   2                      write0(WW[line-2],12,2);
1824   2                      write0(WW[line-1],12,4);
1825   2                      write0(WW[line],12,6);
1826   2              }
1827   1              else if(line<line_max)
1828   1              {
1829   2                      write0(WW[line-2],12,0);
1830   2                      write0(WW[line-1],12,2);
1831   2                      write0(WW[line],12,4);
1832   2                      write0(WW[line+1],12,6);
1833   2              }
1834   1              
1835   1              
1836   1              if(line_max>=9)
1837   1              {
1838   2                      location(97,7);
1839   2                      if(line>=9)send('1'),send(line+49-10);
1840   2                      else send(' '),send(line+49);
1841   2                      
1842   2                      send('/');send('1');send(line_max+49-10);
1843   2              }
1844   1              else
1845   1              {
1846   2                      location(109,7);send(line+49);send('/');send(line_max+49);
1847   2              }       
1848   1                      
1849   1      }
1850          
1851          void display_mapping(u8 mode,u8 x,u8 y)//显示映射对象
1852          {
1853   1              switch(mode)
C51 COMPILER V9.01   MAIN                                                                  05/23/2019 13:18:08 PAGE 31  

1854   1              {
1855   2                      case 0:send3(hzk[96],x,y);send3(hzk[97],x+12,y);send2('1',x+24,y);break;
1856   2                      case 1:send3(hzk[96],x,y);send3(hzk[97],x+12,y);send2('2',x+24,y);break;
1857   2                      case 2:send3(hzk[96],x,y);send3(hzk[97],x+12,y);send2('3',x+24,y);break;
1858   2                      case 3:send3(hzk[96],x,y);send3(hzk[97],x+12,y);send2('4',x+24,y);break;
1859   2                      case 4:send3(hzk[100],x,y);send3(hzk[101],x+12,y);send2('1',x+24,y);break;
1860   2                      case 5:send3(hzk[100],x,y);send3(hzk[101],x+12,y);send2('2',x+24,y);break;
1861   2                      case 6:send3(hzk[100],x,y);send3(hzk[101],x+12,y);send2('3',x+24,y);break;
1862   2                      case 7:send3(hzk[58],x,y);send3(hzk[59],x+12,y);send2('A',x+24,y);break;
1863   2                      case 8:send3(hzk[58],x,y);send3(hzk[59],x+12,y);send2('B',x+24,y);break;
1864   2                      case 9:send3(hzk[58],x,y);send3(hzk[59],x+12,y);send2('C',x+24,y);break;
1865   2                      case 10:send3(hzk[58],x,y);send3(hzk[59],x+12,y);send2('D',x+24,y);break;
1866   2                      case 11:send3(hzk[58],x,y);send3(hzk[59],x+12,y);send2('E',x+24,y);break;
1867   2                      
1868   2                      case 12:send3(hzk[104],x,y);send3(hzk[105],x+12,y);send2('1',x+24,y);break;
1869   2      /*              case 14:send3(hzk[104],x,y);send3(hzk[105],x+12,y);send2('2',x+24,y);break;*/
1870   2                      case 13:send2('P',x,y);send2('P',x+8,y);send2('M',x+16,y);send2('1',x+24,y);break;
1871   2                      case 14:send2('P',x,y);send2('P',x+8,y);send2('M',x+16,y);send2('2',x+24,y);break;
1872   2                      case 15:send2('P',x,y);send2('P',x+8,y);send2('M',x+16,y);send2('3',x+24,y);break;
1873   2                      case 16:send2('P',x,y);send2('P',x+8,y);send2('M',x+16,y);send2('4',x+24,y);break;
1874   2                      case 17:send2('P',x,y);send2('P',x+8,y);send2('M',x+16,y);send2('5',x+24,y);break;
1875   2                      case 18:send2('P',x,y);send2('P',x+8,y);send2('M',x+16,y);send2('6',x+24,y);break;
1876   2                      case 19:send2('P',x,y);send2('P',x+8,y);send2('M',x+16,y);send2('7',x+24,y);break;
1877   2                      case 20:send2('P',x,y);send2('P',x+8,y);send2('M',x+16,y);send2('8',x+24,y);break;
1878   2              }
1879   1              
1880   1      }
1881          
1882          void display_receiver_mode(u8 mode,u8 x,u8 y)//显示接收机模式
1883          {
1884   1              switch(mode)
1885   1              {
1886   2                      case 0:send3(hzk[36],x,y);send3(hzk[37],x+12,y);break;
1887   2                      case 1:send3(hzk[175],x,y);send3(hzk[180],x+12,y);break;
1888   2                      case 2:send2('P',x,y);send2('W',x+8,y);send2('M',x+16,y);break;
1889   2                      case 3:send2('P',x,y);send2('P',x+8,y);send2('M',x+16,y);break;
1890   2                      case 4:send2('S',x,y);send2('.',x+8,y);send2('B',x+16,y);break;
1891   2              }       
1892   1      }
1893          
1894          void display_switch(u8 sw,u8 x,u8 y)//显示开关
1895          {
1896   1              switch(sw)
1897   1              {
1898   2                      case 0:send2(' ',x,y);send2('-',x+4,y);send3(hzk[10],x+12,y);send2('-',x+24,y);break;
1899   2                      case 1:send3(hzk[58],x,y);send3(hzk[59],x+12,y);send2('A',x+24,y);break;
1900   2                      case 2:send3(hzk[58],x,y);send3(hzk[59],x+12,y);send2('B',x+24,y);break;
1901   2                      case 3:send3(hzk[58],x,y);send3(hzk[59],x+12,y);send2('C',x+24,y);break;
1902   2                      case 4:send3(hzk[58],x,y);send3(hzk[59],x+12,y);send2('D',x+24,y);break;
1903   2                      case 5:send3(hzk[58],x,y);send3(hzk[59],x+12,y);send2('E',x+24,y);break;
1904   2              }
1905   1      }
1906          
1907          void display_bar(int *p)//显示条形图
1908          {
1909   1              u8 i,j;
1910   1              for(i=0;i<8;i++)
1911   1              {
1912   2                      location(20,i);LCD(0x3e);LCD(0x41);
1913   2                      for(j=0;j<103;j++)
1914   2                      {
1915   3                              
C51 COMPILER V9.01   MAIN                                                                  05/23/2019 13:18:08 PAGE 32  

1916   3                              if(j==8)LCD(0x7f);
1917   3                              else if(j==51)LCD(0x7f);
1918   3                              else if(j==94)LCD(0x7f);
1919   3                              else if(j>51)
1920   3                              {
1921   4                                      if(j>*p/10)LCD(0x41);
1922   4                                      else LCD(0x5d);
1923   4                              }
1924   3                              else if(j<51)
1925   3                              {
1926   4                                      if(j>*p/10)LCD(0x5d);
1927   4                                      else LCD(0x41);
1928   4                              }       
1929   3                              
1930   3                      }
1931   2                      LCD(0x41);LCD(0x3e);
1932   2                      p++;
1933   2              }
1934   1      
1935   1      }
1936          
1937          void point(u8 x,u8 z,u8 line)                     //画点
1938          {
1939   1              u8 d0=0,d1=0,d2=0,d3=0,d4=0,d5=0,d6=0,d7=0;
1940   1              
1941   1              if(z<8)
1942   1              {
1943   2                      d0=0x80;d0>>=z;                 
1944   2              }
1945   1              else if(z<16)
1946   1              {
1947   2                      d1=0x80;d1>>=z-8;       
1948   2              }
1949   1              else if(z<24)
1950   1              {
1951   2                      d2=0x80;d2>>=z-16;      
1952   2              }
1953   1              else if(z<32)
1954   1              {
1955   2                      d3=0x80;d3>>=z-24;      
1956   2              }
1957   1              else if(z<40)
1958   1              {
1959   2                      d4=0x80;d4>>=z-32;      
1960   2              }
1961   1              else if(z<48)
1962   1              {
1963   2                      d5=0x80;d5>>=z-40;      
1964   2              }
1965   1              else if(z<56)
1966   1              {
1967   2                      d6=0x80;d6>>=z-48;      
1968   2              }
1969   1              else if(z<64)
1970   1              {
1971   2                      d7=0x80;d7>>=z-56;      
1972   2              }
1973   1              
1974   1              if(x==line)
1975   1              {
1976   2                      d0=0x3f,d1=0xff,d2=0xff,d3=0xff,d4=0xff,d5=0xff,d6=0xff,d7=0xf8;
1977   2              }
C51 COMPILER V9.01   MAIN                                                                  05/23/2019 13:18:08 PAGE 33  

1978   1              if(x<3)
1979   1              {
1980   2                      d0|=0x80;d7|=0x02;
1981   2              }
1982   1              else if(x>47)
1983   1              {
1984   2                      d0|=0x80;d7|=0x02;
1985   2              } 
1986   1              
1987   1              
1988   1              d3|=0x01;
1989   1              
1990   1              if(x==0)
1991   1              {
1992   2                      location(73,0);LCD(0x1e);LCD(0x02);
1993   2                      location(73,7);LCD(0xf0);LCD(0x80);
1994   2                      location(126,0);LCD(0x02);LCD(0x1e);
1995   2                      location(126,7);LCD(0x80);LCD(0xf0);    
1996   2              }
1997   1              
1998   1              location(75+x,0);LCD(d7);
1999   1              location(75+x,1);LCD(d6);
2000   1              location(75+x,2);LCD(d5);
2001   1              location(75+x,3);LCD(d4);
2002   1              location(75+x,4);LCD(d3);
2003   1              location(75+x,5);LCD(d2);
2004   1              location(75+x,6);LCD(d1);
2005   1              location(75+x,7);LCD(d0);
2006   1      }
2007          
2008          void display_curve() //显示指数曲线
2009          {
2010   1              u8 i;
2011   1                      
2012   1      
2013   1              point(25,31,25);
2014   1              for(i=0;i<25;i++)
2015   1              {
2016   2      
2017   2                      point(i+26,curve_buff[i]+31,25);
2018   2                      point(24-i,31-curve_buff[i],25);                
2019   2      
2020   2              }
2021   1              
2022   1      }
2023          
2024          
2025          
2026          void display_curve2() //显示折线曲线
2027          {
2028   1              u8 i,n;
2029   1              
2030   1      
2031   1              if(point_num==0)n=0;
2032   1              if(point_num==1)n=8;
2033   1              if(point_num==2)n=16;
2034   1              if(point_num==3)n=25;
2035   1              if(point_num==4)n=34;
2036   1              if(point_num==5)n=42;
2037   1              if(point_num==6)n=50;
2038   1      
2039   1              for(i=0;i<51;i++)
C51 COMPILER V9.01   MAIN                                                                  05/23/2019 13:18:08 PAGE 34  

2040   1              {
2041   2      
2042   2                      point(i,curve_buff[i]+6,n);
2043   2                      
2044   2              }
2045   1              
2046   1      }
2047          
2048          
2049          
2050          /************************************************************************/
2051          //数据运算函数
2052          /*
2053          void data_check(int x,int max,int min)
2054          {
2055                  
2056                  if(x>max)x=max;
2057                  if(x<min)x=min;
2058          
2059          }
2060          */
2061          
2062          
2063          void Xdata_check(int *p)//坑爹的STC Xdata，只能用指针来调用，否则会出错
2064          {
2065   1              u8 i;
2066   1              for(i=0;i<8;i++)
2067   1              {
2068   2                      if(*p>1023)*p=1023;
2069   2                      if(*p<0)*p=0; 
2070   2                      p++;
2071   2              }
2072   1              
2073   1      }
2074          
2075          u8 rounding(float x)//四舍五入
2076          {
2077   1              u8 y;
2078   1              y=x;
2079   1              if((x-y)>0.5)y++;
2080   1              return y;
2081   1      }
2082          
2083          void get_curve(float index)//计算指数曲线
2084          {
2085   1              u8 i;
2086   1              
2087   1              if(index>=0)
2088   1              {
2089   2                      index=index/100+1;
2090   2                      
2091   2                      for(i=1;i<26;i++)
2092   2                      {
2093   3      
2094   3                              
2095   3                              curve_buff[i-1]=rounding(pow(i*0.04,index)*25);
2096   3      
2097   3                      }
2098   2              }
2099   1              else if(index<0)
2100   1              {
2101   2                      index=-index/100+1;
C51 COMPILER V9.01   MAIN                                                                  05/23/2019 13:18:08 PAGE 35  

2102   2                      for(i=1;i<26;i++)
2103   2                      {
2104   3      
2105   3                              
2106   3                              curve_buff[i-1]=rounding(25-pow(1-i*0.04,index)*25);
2107   3      
2108   3                      }
2109   2              }
2110   1              
2111   1              
2112   1      }
2113          
2114          void get_curve2()//油门曲线数据
2115          {
2116   1              
2117   1              int i;
2118   1              u8 b[7];
2119   1              for(i=0;i<7;i++)
2120   1              {
2121   2                      b[i]=turnning_point[curve_num][i]/2;
2122   2              }
2123   1              
2124   1              
2125   1              for(i=0;i<51;i++)
2126   1              {
2127   2                      if(i<8)
2128   2                      {
2129   3      
2130   3                              curve_buff[i]=i*(b[1]-b[0])/8+b[0];
2131   3                      }
2132   2                      else if(i<16)
2133   2                      {
2134   3      
2135   3                              curve_buff[i]=(i-8)*(b[2]-b[1])/8+b[1];
2136   3                      }
2137   2                      
2138   2                      else if(i<25)
2139   2                      {
2140   3      
2141   3                              curve_buff[i]=(i-16)*(b[3]-b[2])/9+b[2];
2142   3                      }
2143   2                      else if(i<34)
2144   2                      {
2145   3      
2146   3                              curve_buff[i]=(i-25)*(b[4]-b[3])/9+b[3];
2147   3                      }
2148   2                      else if(i<42)
2149   2                      {
2150   3      
2151   3                              curve_buff[i]=(i-34)*(b[5]-b[4])/8+b[4];
2152   3                      }
2153   2                      else
2154   2                      {
2155   3      
2156   3                              curve_buff[i]=(i-42)*(b[6]-b[5])/8+b[5];
2157   3                      }                       
2158   2              }
2159   1      }
2160          
2161          void function_size(u8 num,u8 mode)//舵量函数
2162          {
2163   1              u8 r0,r1;
C51 COMPILER V9.01   MAIN                                                                  05/23/2019 13:18:08 PAGE 36  

2164   1              if(mode)
2165   1              {
2166   2                      r0=New_ratio[0][num];
2167   2                      r1=New_ratio[1][num];
2168   2              }
2169   1              else
2170   1              {
2171   2                      r0=CH_ratio[0][num];
2172   2                      r1=CH_ratio[1][num];
2173   2              }
2174   1              
2175   1              if(operation[num]>0)
2176   1              {
2177   2                      operation[num]=(long)operation[num]*r1/100;
2178   2              }
2179   1              else
2180   1              {
2181   2                      operation[num]=(long)operation[num]*r0/100;
2182   2              }
2183   1              
2184   1      }
2185          
2186          void function_inverted(u8 num)//反转函数
2187          {
2188   1              
2189   1              if(CH_inverted[num]==1)operation[num]=-operation[num]+CH_middle[num];
2190   1              else operation[num]+=CH_middle[num];
2191   1      }
2192          
2193          
2194          void function_mix(u8 same,u8 contrary)//混控函数 
2195          {
2196   1              int y1,y2;
2197   1              
2198   1              y1=operation[same]+operation[contrary];
2199   1              y2=operation[same]-operation[contrary];
2200   1              
2201   1              operation[same]=y1;
2202   1              operation[contrary]=y2;
2203   1                              
2204   1      }
2205          
2206          void function_curve(u8 num)//指数曲线
2207          {
2208   1              float Index;int temp;
2209   1              
2210   1              if(num==2)num++;
2211   1              if(CH_index[num]>0)
2212   1              {
2213   2                      Index=(float)CH_index[num]/100+1;
2214   2              
2215   2                      temp=operation[num];
2216   2                      if(temp<0)temp=-temp;
2217   2      
2218   2                      temp=pow(0.0023474*temp,Index)*426;
2219   2                      
2220   2                      
2221   2                      if(operation[num]<0)temp=-temp;
2222   2                      
2223   2                      operation[num]=temp;    
2224   2                      
2225   2              }
C51 COMPILER V9.01   MAIN                                                                  05/23/2019 13:18:08 PAGE 37  

2226   1              else if(CH_index[num]<0)
2227   1              {
2228   2                      Index=(float)-CH_index[num]/100+1;
2229   2                      
2230   2                      temp=operation[num];
2231   2                      if(temp<0)temp=-temp;
2232   2      
2233   2                      temp=426-pow(1-0.0023474*temp,Index)*426;
2234   2                      
2235   2                      
2236   2                      if(operation[num]<0)temp=-temp;
2237   2                      
2238   2                      operation[num]=temp;
2239   2              }
2240   1      
2241   1              
2242   1              
2243   1      }
2244          
2245          void function_curve2(u8 num)//多点曲线
2246          {
2247   1              u16 temp;
2248   1              int b[7];
2249   1              u8 i;
2250   1              for(i=0;i<7;i++)
2251   1              {
2252   2                      b[i]=turnning_point[num][i]*17/2;
2253   2              }
2254   1              
2255   1      
2256   1              
2257   1              if(num==0)temp=operation[2]+426;
2258   1              else temp=operation[num+3]+426;
2259   1      
2260   1              
2261   1      
2262   1                      if(temp<136)
2263   1                      {
2264   2      
2265   2                              temp=(long)temp*(b[1]-b[0])/136+b[0];
2266   2                      }
2267   1                      else if(temp<272)
2268   1                      {
2269   2      
2270   2                              temp=(long)(temp-136)*(b[2]-b[1])/136+b[1];
2271   2                      }
2272   1                      
2273   1                      else if(temp<426)
2274   1                      {
2275   2      
2276   2                              temp=(long)(temp-272)*(b[3]-b[2])/154+b[2];
2277   2                      }
2278   1                      else if(temp<580)
2279   1                      {
2280   2      
2281   2                              temp=(long)(temp-426)*(b[4]-b[3])/154+b[3];
2282   2                      }
2283   1                      else if(temp<716)
2284   1                      {
2285   2      
2286   2                              temp=(long)(temp-580)*(b[5]-b[4])/136+b[4];
2287   2                      }
C51 COMPILER V9.01   MAIN                                                                  05/23/2019 13:18:08 PAGE 38  

2288   1                      else
2289   1                      {
2290   2      
2291   2                              temp=(long)(temp-716)*(b[6]-b[5])/136+b[5];
2292   2                      }                       
2293   1              
2294   1              
2295   1                      
2296   1                      
2297   1              if(num==0)throttle=temp,operation[2]=temp-426;
2298   1              else operation[num+3]=temp-426;
2299   1                      
2300   1      }
2301          
2302          
2303          
2304          
2305          
2306          void function_mapping(u8 num)//输入映射
2307          {
2308   1      
2309   1              switch(IN_mapping[num])
2310   1              {
2311   2                      case 0:operation[num]=CH_value[0]*5/6-426;break;
2312   2                      case 1:operation[num]=CH_value[1]*5/6-426;break;
2313   2                      case 2:operation[num]=CH_value[2]*5/6-426;break;
2314   2                      case 3:operation[num]=CH_value[3]*5/6-426;break;
2315   2                      case 4:operation[num]=adc[1]*5/6-426;break;
2316   2                      case 5:operation[num]=adc[2]*5/6-426;break;
2317   2                      case 6:operation[num]=adc[3]*5/6-426;break;
2318   2                      
2319   2                      case 7:if(Switch_A==1)operation[num]=-426;
2320   2                                                      else if(Switch_A==2)operation[num]=0;
2321   2                                                      else operation[num]=426;break;
2322   2                      case 8:if(Switch_B==1)operation[num]=-426;
2323   2                                                      else if(Switch_B==2)operation[num]=0;
2324   2                                                      else operation[num]=426;break;
2325   2                      case 9:if(Switch_C==1)operation[num]=-426;
2326   2                                                      else if(Switch_C==2)operation[num]=0;
2327   2                                                      else operation[num]=426;break;
2328   2                      case 10:if(Switch_D==1)operation[num]=-426;
2329   2                                                      else if(Switch_D==2)operation[num]=0;
2330   2                                                      else operation[num]=426;break;
2331   2                      case 11:if(Switch_E==1)operation[num]=-426;
2332   2                                                      else if(Switch_E==2)operation[num]=0;
2333   2                                                      else operation[num]=426;break;
2334   2                      
2335   2                      /*start------改自“柴门”--------*/
2336   2                      //舵量增加时遥控首界面中的开关状态显示却是往下，改为开关在上时是舵量增加
2337   2                      /*case 7:if(Switch_A==1)operation[num]=426;
2338   2                                                      else if(Switch_A==2)operation[num]=0;
2339   2                                                      else operation[num]=-426;break;
2340   2                      case 8:if(Switch_B==1)operation[num]=426;
2341   2                                                      else if(Switch_B==2)operation[num]=0;
2342   2                                                      else operation[num]=-426;break;
2343   2                      case 9:if(Switch_C==1)operation[num]=426;
2344   2                                                      else if(Switch_C==2)operation[num]=0;
2345   2                                                      else operation[num]=-426;break;
2346   2                      case 10:if(Switch_D==1)operation[num]=426;
2347   2                                                      else if(Switch_D==2)operation[num]=0;
2348   2                                                      else operation[num]=-426;break;
2349   2                      case 11:if(Switch_E==1)operation[num]=426;
C51 COMPILER V9.01   MAIN                                                                  05/23/2019 13:18:08 PAGE 39  

2350   2                                                      else if(Switch_E==2)operation[num]=0;
2351   2                                                      else operation[num]=-426;break;
2352   2                      *//*end------改自“柴门”--------*/
2353   2                                                      
2354   2                      case 12:operation[num]=auto_value-426;break;                            
2355   2                      case 13:operation[num]=PPM_DATA[0]-426;break;
2356   2                      case 14:operation[num]=PPM_DATA[1]-426;break;
2357   2                      case 15:operation[num]=PPM_DATA[2]-426;break;
2358   2                      case 16:operation[num]=PPM_DATA[3]-426;break;
2359   2                      case 17:operation[num]=PPM_DATA[4]-426;break;
2360   2                      case 18:operation[num]=PPM_DATA[5]-426;break;
2361   2                      case 19:operation[num]=PPM_DATA[6]-426;break;
2362   2                      case 20:operation[num]=PPM_DATA[7]-426;break;
2363   2              
2364   2              }
2365   1      }
2366          
2367          void change_trim(u8 num,u8 direction)//按键微调
2368          {
2369   1              if(direction)
2370   1              {
2371   2                      if(CH_inverted[num]==0)
2372   2                      {
2373   3                              if(CH_middle[num]<125)
2374   3                              {
2375   4                                      if(Trim_step)CH_middle[num]++;
2376   4                                      else if(CH_middle[num]%5)CH_middle[num]+=(5-CH_middle[num]%5);
2377   4                                      else CH_middle[num]+=5; 
2378   4                                      
2379   4                      //              Data_change(2);
2380   4                              }
2381   3                      }
2382   2                      else
2383   2                      {
2384   3                              if(CH_middle[num]>-125)
2385   3                              {
2386   4                                      if(Trim_step)CH_middle[num]--;
2387   4                                      else if(CH_middle[num]%5)CH_middle[num]-=(CH_middle[num]%5);
2388   4                                      else CH_middle[num]-=5;
2389   4                                      
2390   4                      //              Data_change(2);
2391   4                              }
2392   3                                      
2393   3                              
2394   3                      }       
2395   2              }
2396   1              else
2397   1              {
2398   2                      if(CH_inverted[num]==0)
2399   2                      {
2400   3                              if(CH_middle[num]>-125)
2401   3                              {
2402   4                                      if(Trim_step)CH_middle[num]--;
2403   4                                      else if(CH_middle[num]%5)CH_middle[num]-=(CH_middle[num]%5);
2404   4                                      else CH_middle[num]-=5;
2405   4                                      
2406   4                      //              Data_change(2);
2407   4                              }
2408   3                                      
2409   3                              
2410   3                      }
2411   2                      else
C51 COMPILER V9.01   MAIN                                                                  05/23/2019 13:18:08 PAGE 40  

2412   2                      {
2413   3                              if(CH_middle[num]<125)
2414   3                              {
2415   4                                      if(Trim_step)CH_middle[num]++;
2416   4                                      else if(CH_middle[num]%5)CH_middle[num]+=(5-CH_middle[num]%5);
2417   4                                      else CH_middle[num]+=5;
2418   4                                      
2419   4                      //              Data_change(2);
2420   4                              }
2421   3                                      
2422   3                              
2423   3                      }       
2424   2              }
2425   1      
2426   1              
2427   1              if(CH_middle[num]==0)Message_KeyTone=2;
2428   1              CH_middle_change=num,event1=1,t1=0;
2429   1      }
2430          
2431          
2432          
2433          int CH_calib(int x,u8 offset)                           //修正摇杆行程
2434          {
2435   1      
2436   1              x=512+(x-512)*51/offset;
2437   1      
2438   1              if(x>1023)x=1023;
2439   1              if(x<0)x=0;
2440   1              return x;               
2441   1      }
2442          
2443          
2444          void function_filter(u8 num)  //ADC滤波
2445          {
2446   1              if(num==0)
2447   1              {
2448   2                      adc[0]=(adc_buff[0]+(long)adc[0]*9/10);
2449   2              }
2450   1      //      else adc[num]=(adc_buff[num]*5+adc[num]*5)/10;
2451   1              else adc[num]=adc_buff[num];
2452   1      }
2453          
2454          u8 Switch_Check(u8 num)//获取开关状态
2455          {
2456   1              switch(num)
2457   1              {
2458   2                      case 1:num=Switch_A;break;
2459   2                      case 2:num=Switch_B;break;
2460   2                      case 3:num=Switch_C;break;
2461   2                      case 4:num=Switch_D;break;
2462   2                      case 5:num=Switch_E;break;
2463   2              }
2464   1              return num;
2465   1      }
2466          
2467          
2468          /**********************************************************/
2469          
2470          void UartInit(void)             //57600bps@12.000MHz
2471          {
2472   1              PCON |= 0x80;           //使能波特率倍速位SMOD
2473   1              SCON = 0x50;            //8位数据,可变波特率
C51 COMPILER V9.01   MAIN                                                                  05/23/2019 13:18:08 PAGE 41  

2474   1              AUXR |= 0x04;           //独立波特率发生器时钟为Fosc,即1T
2475   1              BRT = 0xF3;             //设定独立波特率发生器重装值
2476   1              AUXR |= 0x01;           //串口1选择独立波特率发生器为波特率发生器
2477   1              AUXR |= 0x10;           //启动独立波特率发生器
2478   1      }
2479          
2480          void initial()                   //硬件初始化
2481          {
2482   1              ADC_CONTR=0x80;          //ADC配置
2483   1              P1ASF=0xff;
2484   1              
2485   1              LEDA=0;
2486   1              P4SW=0x70;                       //允许P4 IO
2487   1              P2M0=0x20;                       //推挽点亮背光
2488   1              
2489   1              
2490   1      
2491   1      
2492   1              TMOD=0x11;
2493   1              TCON=0x04;           
2494   1                      
2495   1        CCAPM0=0x49;             //PCA定时器初始化
2496   1              
2497   1              value0 += 3000;    //3ms
2498   1              CCAP0L = value0;
2499   1          CCAP0H = value0>> 8;
2500   1              value0 += 3000;    //3ms
2501   1              
2502   1              value1 += 20000;           //20ms
2503   1              CCAP1L = value1;
2504   1          CCAP1H = value1>> 8;  
2505   1                      value1 += 3000;    //3ms
2506   1              
2507   1              IP=0x80;
2508   1              IPH=0x0c;                        //优先级非常重要
2509   1              
2510   1              CCON=0x40;//打开PCA定时器
2511   1              IE=0x82;
2512   1        
2513   1      }       
2514                  
2515          
2516          main()
2517          {
2518   1              int temp;u8 i;
2519   1      
2520   1              delay_ms(200);
2521   1              initial();
2522   1      /*
2523   1              while(PCON&0x20)//低压判断
2524   1              {
2525   1                      PCON=0;
2526   1                      Delay1ms();
2527   1              }
2528   1      */      
2529   1              DATA_read1();//系统数据
2530   1              DATA_read2();//模型数据
2531   1              LCD_init();
2532   1              LEDA=LCD_light;
2533   1              
2534   1              UartInit();
2535   1      
C51 COMPILER V9.01   MAIN                                                                  05/23/2019 13:18:08 PAGE 42  

2536   1              LCD_ON();
2537   1              
2538   1              if(KEY==0)//强制恢复出厂
2539   1              {
2540   2                      delay_ms(3000);
2541   2                      if(KEY==0)
2542   2                      {
2543   3                              IAP_CONTR=0x82;         //擦除所有数据
2544   3                              EEPROM_clean(0);
2545   3                              EEPROM_clean(2);
2546   3                              EEPROM_clean(4);
2547   3      //                      EEPROM_clean(6);
2548   3                              IAP_CONTR=0;
2549   3                              word[0]=106,word[1]=107,word[2]=32,word[3]=136,word[4]=0,write(40,2);
2550   3                              word[0]=138,word[1]=139,word[2]=140,word[3]=57,word[4]=0,write(40,4);
2551   3                              while(1);
2552   3                      }       
2553   2              }
2554   1              
2555   1              if(first)//首次开机
2556   1              {
2557   2                      while(1)//设置
2558   2                      {
2559   3                              word[0]=130,word[1]=81,word[2]=131,word[3]=58,word[4]=132,word[5]=0,write(30,0);
2560   3                              word[0]=141,word[1]=142,word[2]=18,word[3]=13,word[4]=0,write(0,2);
2561   3                              word[0]=149,word[1]=150,word[2]=137,word[3]=109,word[4]=0,write(64,2);
2562   3                              if(adc_buff[4]>510)
2563   3                              {
2564   4                                      send3(hzk[1],0,4);send2('1',12,4);send2('2',20,4);send2('L',28,4);send2('E',36,4);
2565   4                                      send3(hzk[2],0,6);send2('1',12,6);send2('2',20,6);send2('C',28,6);send2(' ',36,6);
2566   4                                      if(KEY==0)
2567   4                                      {
2568   5                                              Battery_1s=1;
2569   5                                              while(!KEY);break;
2570   5                                      }
2571   4                                      
2572   4                              }
2573   3                              else 
2574   3                              {
2575   4                                      send3(hzk[2],0,4);send2('1',12,4);send2('2',20,4);send2('L',28,4);send2('E',36,4);
2576   4                                      send3(hzk[1],0,6);send2('1',12,6);send2('2',20,6);send2('C',28,6);send2(' ',36,6);
2577   4                                      if(KEY==0)
2578   4                                      {
2579   5                                              Battery_1s=0;
2580   5                                              while(!KEY);break;
2581   5                                      }
2582   4                              }
2583   3                              delay_ms(100);
2584   3      
2585   3                      }
2586   2                      
2587   2      
2588   2                      if(hopping[0]>125)hopping[0]=(hopping[0]-5)/2;
2589   2                      if(hopping[1]>125)hopping[1]=(hopping[1]-5)/2;
2590   2                      if(hopping[2]>125)hopping[2]=(hopping[2]-5)/2;
2591   2                      if(hopping[3]>125)hopping[3]=(hopping[3]-5)/2;
2592   2                      if(hopping[4]>125)hopping[4]=(hopping[4]-5)/2;
2593   2                      
2594   2                      DATA_save1();
2595   2                      
2596   2                      word[0]=157,word[1]=132,word[2]=12,word[3]=13,word[4]=52,word[5]=53;word[6]=0,write(0,4);
2597   2                      delay_ms(500);
C51 COMPILER V9.01   MAIN                                                                  05/23/2019 13:18:08 PAGE 43  

2598   2                      send3(hzk[1],0,6);delay_ms(200);
2599   2                      send3(hzk[1],12,6);delay_ms(200);
2600   2                      send3(hzk[1],24,6);delay_ms(200);
2601   2                      send3(hzk[1],36,6);delay_ms(200);
2602   2                      send3(hzk[1],48,6);delay_ms(200);
2603   2                      send3(hzk[1],60,6);delay_ms(200);
2604   2      
2605   2                      
2606   2              }
2607   1              else if(Throttle_check)//开机安全油门
2608   1              {
2609   2                      delay_ms(100);
2610   2                      CH_value[2]=CH_calib(adc_buff[4],CH3_offset);
2611   2                      if(CH_value[2]>80)      
2612   2                              {
2613   3                                      while(1)
2614   3                                      {
2615   4                                              if(boot_screen==0)photo(bmp5,40,2,50,4);
2616   4                                              else
2617   4                                              {
2618   5                                                      word[0]=141,word[1]=142,word[2]=185,word[3]=186,word[4]=0,write(38,4);
2619   5                                              }
2620   4                                      
2621   4                                              word[0]=147,word[1]=148,word[2]=149,word[3]=150,word[4]=151,
2622   4                                              word[5]=52,word[6]=153,word[7]=0,write(20,6); 
2623   4                              
2624   4                                              delay_ms(100);
2625   4                                              if(KEY==0)break;
2626   4                                              CH_value[2]=CH_calib(adc_buff[4],CH3_offset);
2627   4                                              if(CH_value[2]<80)break;
2628   4                                      }  
2629   3                              }       
2630   2                      
2631   2              }
2632   1              
2633   1              
2634   1              
2635   1              
2636   1              NRF_test();
2637   1              NRF_init();
2638   1              if(NRF_error)
2639   1              {
2640   2                      photo(screen2,0,0,128,8);
2641   2                      if(NRF_error&0x01)location(39,5),send(133),location(106,5),send(133);
2642   2                      if(NRF_error&0x02)location(83,5),send(133);
2643   2                      if(NRF_error&0x04)location(29,5),send(133);
2644   2                      if(NRF_error&0x08)location(64,5),send(133);
2645   2                      if(NRF_error&0x10)location(49,5),send(133);
2646   2                      delay_ms(2000);
2647   2              }
2648   1              else if(boot_screen_en)
2649   1              {
2650   2      
2651   2                      if(boot_screen==0)//开机画面
2652   2                      {
2653   3                              photo(screen3,0,0,128,8);
2654   3                              if(i<100)
2655   3                              {
2656   4                                      delay_ms(500);
2657   4                                      photo(bmp4,80,4,46,4);
2658   4                                      location(107,6);LCD(0);LCD(0x20);LCD(0xf0);LCD(0);
2659   4                                      location(107,7);LCD(0xc0);LCD(0xc8);LCD(0xcf);LCD(0xc8);
C51 COMPILER V9.01   MAIN                                                                  05/23/2019 13:18:08 PAGE 44  

2660   4                                      delay_ms(500);
2661   4                              }
2662   3                              else if(i<200)
2663   3                              {
2664   4                                      delay_ms(1000);
2665   4                                      photo(bmp4,80,4,46,4);
2666   4                                      location(107,6);LCD(0x20);LCD(0x10);LCD(0x10);LCD(0xe0);
2667   4                                      location(107,7);LCD(0xcc);LCD(0xca);LCD(0xc9);LCD(0xc8);
2668   4                                      delay_ms(1000);
2669   4                              }
2670   3                              else 
2671   3                              {
2672   4                                      delay_ms(2000);
2673   4                                      photo(bmp4,80,4,46,4);
2674   4                                      delay_ms(1500);
2675   4                              }       
2676   3                      }
2677   2                      else if(boot_screen==1)
2678   2                      {
2679   3                              photo(screen4,0,0,128,8);
2680   3                              location(37,7);
2681   3                              for(i=0;i<50;i++)
2682   3                              {
2683   4                                      LCD(0xf7);
2684   4                                      delay_ms(40);
2685   4                              }               
2686   3                              delay_ms(500);  
2687   3                      }
2688   2      
2689   2                      
2690   2      
2691   2              }
2692   1      
2693   1      
2694   1      
2695   1              if(PPM_OUT)
2696   1              {
2697   2                      TMOD=0x11;
2698   2                      EX1=0;ET1=1;P3M0=0x08;
2699   2              }
2700   1              if(PPM_IN)
2701   1              {
2702   2                      TMOD=0x91;
2703   2                      EX1=1;ET1=0;
2704   2              }
2705   1      
2706   1              auto_max=auto_end*4.25+511;
2707   1              auto_min=auto_star*4.25+511;                     
2708   1                      
2709   1              
2710   1              TR1=1;
2711   1              TR0=1;
2712   1              delay_ms(50);
2713   1              CCAPM1=0x49;
2714   1      
2715   1      
2716   1              adc[0]=adc_buff[0]*10;
2717   1              
2718   1      //menu=1;menu_1=1;menu_2=30;
2719   1              
2720   1              
2721   1              
C51 COMPILER V9.01   MAIN                                                                  05/23/2019 13:18:08 PAGE 45  

2722   1              while(1)        //主函数做刷新显示、菜单处理
2723   1              {
2724   2                      
2725   2                      if(flag_20ms)
2726   2                      {
2727   3                              flag_20ms=0,tt++;
2728   3      /*************************************************************/
2729   3      //按键检测                      
2730   3                              
2731   3                              if(K1)                                  
2732   3                              {
2733   4                                      s1_press_time=0;
2734   4                                      s1_long_press=0;
2735   4                                      if(s1)                             
2736   4                                      {                                          
2737   5                                              s1=0;                     
2738   5                                              key1=1;
2739   5                                      } 
2740   4                              }
2741   3                              else 
2742   3                              {
2743   4                                      s1=1;
2744   4                                      s1_press_time++;
2745   4                                      if(s1_press_time>50)
2746   4                                      {
2747   5                                              s1_press_time=0;s1=0;
2748   5                                              s1_long_press=1;
2749   5                                      }
2750   4                              }                                 
2751   3              
2752   3                              if(K2)                                  
2753   3                              {
2754   4                                      s2_press_time=0;
2755   4                                      s2_long_press=0;
2756   4                                      if(s2)                             
2757   4                                      {                                          
2758   5                                              s2=0;                     
2759   5                                              key2=1;
2760   5                                      } 
2761   4                              }
2762   3                              else 
2763   3                              {
2764   4                                      s2=1;
2765   4                                      s2_press_time++;
2766   4                                      if(s2_press_time>50)
2767   4                                      {
2768   5                                              s2_press_time=0;s2=0;
2769   5                                              s2_long_press=1;
2770   5                                      }
2771   4                              }
2772   3                              
2773   3                              if(K3)                                  
2774   3                              {
2775   4                                      s3_press_time=0;
2776   4                                      s3_long_press=0;
2777   4                                      if(s3)                             
2778   4                                      {                                          
2779   5                                              s3=0;                     
2780   5                                              key3=1;
2781   5                                      } 
2782   4                              }
2783   3                              else 
C51 COMPILER V9.01   MAIN                                                                  05/23/2019 13:18:08 PAGE 46  

2784   3                              {
2785   4                                      s3=1;
2786   4                                      s3_press_time++;
2787   4                                      if(s3_press_time>50)
2788   4                                      {
2789   5                                              s3_press_time=0;s3=0;
2790   5                                              s3_long_press=1;
2791   5                                      }
2792   4                              }
2793   3                              
2794   3                              if(K4)                                  
2795   3                              {
2796   4                                      s4_press_time=0;
2797   4                                      s4_long_press=0;
2798   4                                      if(s4)                             
2799   4                                      {                                          
2800   5                                              s4=0;                     
2801   5                                              key4=1;
2802   5                                      } 
2803   4                              }
2804   3                              else 
2805   3                              {
2806   4                                      s4=1;
2807   4                                      s4_press_time++;
2808   4                                      if(s4_press_time>50)
2809   4                                      {
2810   5                                              s4_press_time=0;s4=0;
2811   5                                              s4_long_press=1;
2812   5                                      }
2813   4                              }
2814   3                              
2815   3                              if(K5)                                  
2816   3                              {
2817   4                                      s5_press_time=0;
2818   4                                      s5_long_press=0;
2819   4                                      if(s5)                             
2820   4                                      {                                          
2821   5                                              s5=0;                     
2822   5                                              key5=1;
2823   5                                      } 
2824   4                              }
2825   3                              else 
2826   3                              {
2827   4                                      s5=1;
2828   4                                      s5_press_time++;
2829   4                                      if(s5_press_time>50)
2830   4                                      {
2831   5                                              s5_press_time=0;s5=0;
2832   5                                              s5_long_press=1;
2833   5                                      }
2834   4                              }
2835   3                              
2836   3                              if(K6)                                  
2837   3                              {
2838   4                                      s6_press_time=0;
2839   4                                      s6_long_press=0;
2840   4                                      if(s6)                             
2841   4                                      {                                          
2842   5                                              s6=0;                     
2843   5                                              key6=1;
2844   5                                      } 
2845   4                              }
C51 COMPILER V9.01   MAIN                                                                  05/23/2019 13:18:08 PAGE 47  

2846   3                              else 
2847   3                              {
2848   4                                      s6=1;
2849   4                                      s6_press_time++;
2850   4                                      if(s6_press_time>50)
2851   4                                      {
2852   5                                              s6_press_time=0;s6=0;
2853   5                                              s6_long_press=1;
2854   5                                      }
2855   4                              }
2856   3                                      
2857   3                      
2858   3                              
2859   3                      }
2860   2                      else
2861   2                      {
2862   3                              while(!flag_20ms);
2863   3                      }
2864   2                      
2865   2                              
2866   2                      if(tt==1)//按键处理
2867   2                      {
2868   3                              
2869   3                              if(s1_long_press)
2870   3                              {
2871   4                                      key_time=!key_time;
2872   4                                      if(key_time)key1=1;
2873   4                              }
2874   3                              if(s2_long_press)
2875   3                              {
2876   4                                      key_time=!key_time;
2877   4                                      if(key_time)key2=1;
2878   4                              }
2879   3                                                      
2880   3                              if(menu==0)
2881   3                              {
2882   4                                      if(s3_long_press)
2883   4                                      {
2884   5                                              key_time=!key_time;
2885   5                                              if(key_time)key3=1;
2886   5                                      }
2887   4                                      if(s4_long_press)
2888   4                                      {
2889   5                                              key_time=!key_time;
2890   5                                              if(key_time)key4=1;
2891   5                                      }               
2892   4                              }
2893   3                              
2894   3                              if(s5_long_press)
2895   3                              {
2896   4                                      key_time=!key_time;
2897   4                                      if(key_time)key5=1;
2898   4                              }
2899   3                              if(s6_long_press)
2900   3                              {
2901   4                                      key_time=!key_time;
2902   4                                      if(key_time)key6=1;
2903   4                              }
2904   3      
2905   3                              if(key1)
2906   3                              {
2907   4                                      key1=0;Message_KeyTone=1;
C51 COMPILER V9.01   MAIN                                                                  05/23/2019 13:18:08 PAGE 48  

2908   4                                      if(menu)decrease=1;
2909   4                                      else 
2910   4                                      {
2911   5                                              change_trim(3,0);
2912   5                                      }
2913   4                              }
2914   3                              if(key2)
2915   3                              {
2916   4                                      key2=0;Message_KeyTone=1;
2917   4                                      if(menu)increase=1;
2918   4                                      else 
2919   4                                      {
2920   5                                              change_trim(3,1);
2921   5                                      }
2922   4                              }
2923   3                              if(key3)
2924   3                              {
2925   4                                      key3=0;Message_KeyTone=1;
2926   4                                      if(menu)
2927   4                                              left=1;
2928   4                                      else 
2929   4                                      {
2930   5                                              change_trim(0,0);
2931   5                                              
2932   5                                      }
2933   4                              }
2934   3                              if(key4)
2935   3                              {
2936   4                                      key4=0;Message_KeyTone=1;
2937   4                                      if(menu)right=1;
2938   4                                      else 
2939   4                                      {
2940   5                                              change_trim(0,1);
2941   5                                              
2942   5                                      }
2943   4                              }
2944   3                              if(key5)
2945   3                              {
2946   4                                      key5=0;Message_KeyTone=1;
2947   4                                      if(menu)down=1;
2948   4                                      else 
2949   4                                      {
2950   5                                              change_trim(1,0);
2951   5                                      }
2952   4                              }
2953   3                              if(key6)
2954   3                              {
2955   4                                      key6=0;Message_KeyTone=1;
2956   4                                      if(menu)up=1;
2957   4                                      else 
2958   4                                      {
2959   5                                              change_trim(1,1);
2960   5                                      }
2961   4                              }
2962   3      
2963   3                      }
2964   2                      else if(tt==2)
2965   2                      {
2966   3                              LCD_ON();
2967   3                              if(menu)        //主菜单                         
2968   3                              {                       
2969   4                                      if(star)
C51 COMPILER V9.01   MAIN                                                                  05/23/2019 13:18:08 PAGE 49  

2970   4                                      {
2971   5                                              star=0;
2972   5                                              up=0,down=0,left=0,right=0,increase=0,decrease=0;
2973   5                                              LCD_clean(0,0,128,8);
2974   5                                      }
2975   4                                      
2976   4                                      
2977   4                              
2978   4                                      if(menu_1)//一级菜单
2979   4                                      {
2980   5                                                                      
2981   5                                              
2982   5                                              if(menu_2)//二级菜单
2983   5                                              {
2984   6                                              
2985   6                                                      
2986   6                                                      if(menu_3)//三级菜单
2987   6                                                      {
2988   7                                                              
2989   7                                                              
2990   7                                                              
2991   7                                                              if(menu_3==1)//新舵量
2992   7                                                              {
2993   8                                                                      line_3=move_cursor(line_3,3);
2994   8                                                                      
2995   8                                                                      WW[0][0]=94,WW[0][1]=95,WW[0][2]=81,WW[0][3]=0;
2996   8                                                                      WW[1][0]=94,WW[1][1]=95,WW[1][2]=82,WW[1][3]=0;
2997   8                                                                      WW[2][0]=94,WW[2][1]=95,WW[2][2]=83,WW[2][3]=0;
2998   8                                                                      WW[3][0]=94,WW[3][1]=95,WW[3][2]=84,WW[3][3]=0;
2999   8                                                                      
3000   8                                                                      display_menu(line_3,3);
3001   8                                                                      
3002   8                                                                      if(increase)
3003   8                                                                      {
3004   9                                                                              increase=0;
3005   9                                                                              if(New_ratio[ratio_mode][line_3]<120)
3006   9                                                                              {
3007  10                                                                                      New_ratio[ratio_mode][line_3]++;Data_change(1);
3008  10                                                                              }
3009   9                                                                              
3010   9                                                                      }
3011   8                                                                      if(decrease)
3012   8                                                                      {
3013   9                                                                              decrease=0;
3014   9                                                                              if(New_ratio[ratio_mode][line_3]>0)
3015   9                                                                              {
3016  10                                                                                      New_ratio[ratio_mode][line_3]--;Data_change(1);
3017  10                                                                              }
3018   9                                                                              
3019   9                                                                      }
3020   8                                                                      
3021   8                                                                      
3022   8                                                                              write_num100(New_ratio[ratio_mode][0],70,0,'%');
3023   8                                                                              write_num100(New_ratio[ratio_mode][1],70,2,'%');
3024   8                                                                              write_num100(New_ratio[ratio_mode][2],70,4,'%');
3025   8                                                                              write_num100(New_ratio[ratio_mode][3],70,6,'%');
3026   8                                                                      
3027   8                                                                      if(ratio_mode)
3028   8                                                                      {
3029   9                                                                              send2('+',62,0);
3030   9                                                                              send2('+',62,2);
3031   9                                                                              send2('+',62,4);
C51 COMPILER V9.01   MAIN                                                                  05/23/2019 13:18:08 PAGE 50  

3032   9                                                                              send2('+',62,6);
3033   9                                                                      }
3034   8                                                                      else
3035   8                                                                      {
3036   9                                                                              send2('-',62,0);
3037   9                                                                              send2('-',62,2);
3038   9                                                                              send2('-',62,4);
3039   9                                                                              send2('-',62,6);
3040   9                                                                      }
3041   8                                                              
3042   8                                                              }
3043   7                                                              else if(menu_3==2)//组合舵量
3044   7                                                              {
3045   8                                                                      line_3=move_cursor(line_3,5);
3046   8                                                                      
3047   8                                                                      WW[0][0]=8,WW[0][1]=9,WW[0][2]=81,WW[0][3]=0;
3048   8                                                                      WW[1][0]=8,WW[1][1]=9,WW[1][2]=82,WW[1][3]=0;
3049   8                                                                      WW[2][0]=8,WW[2][1]=9,WW[2][2]=83,WW[2][3]=0;
3050   8                                                                      WW[3][0]=8,WW[3][1]=9,WW[3][2]=84,WW[3][3]=0;
3051   8                                                                      WW[4][0]=8,WW[4][1]=9,WW[4][2]=85,WW[4][3]=0;
3052   8                                                                      WW[5][0]=8,WW[5][1]=9,WW[5][2]=86,WW[5][3]=0;
3053   8                                                                      
3054   8                                                                      display_menu(line_3,5);
3055   8                                                                      
3056   8                                                                      if(increase)
3057   8                                                                      {
3058   9                                                                              increase=0;
3059   9                                                                              if(Com_Swt_out[line_3]<100)
3060   9                                                                              {
3061  10                                                                                      Com_Swt_out[line_3]++;Data_change(1);
3062  10                                                                              }
3063   9                                                                              
3064   9                                                                      }
3065   8                                                                      if(decrease)
3066   8                                                                      {
3067   9                                                                              decrease=0;
3068   9                                                                              if(Com_Swt_out[line_3]>0)
3069   9                                                                              {
3070  10                                                                                      Com_Swt_out[line_3]--;Data_change(1);
3071  10                                                                              }
3072   9                                                                              
3073   9                                                                      }
3074   8                                                                      
3075   8                                                                      if(line_3<3)
3076   8                                                                      {
3077   9                                                                              write_num100(Com_Swt_out[0],70,0,'%');
3078   9                                                                              write_num100(Com_Swt_out[1],70,2,'%');
3079   9                                                                              write_num100(Com_Swt_out[2],70,4,'%');
3080   9                                                                              write_num100(Com_Swt_out[3],70,6,'%');
3081   9                                                                      }
3082   8                                                                      else if(line_3<4)
3083   8                                                                      {
3084   9                                                                              write_num100(Com_Swt_out[1],70,0,'%');
3085   9                                                                              write_num100(Com_Swt_out[2],70,2,'%');
3086   9                                                                              write_num100(Com_Swt_out[3],70,4,'%');
3087   9                                                                              write_num100(Com_Swt_out[4],70,6,'%');
3088   9                                                                      }
3089   8                                                                      else
3090   8                                                                      {
3091   9                                                                              write_num100(Com_Swt_out[2],70,0,'%');
3092   9                                                                              write_num100(Com_Swt_out[3],70,2,'%');
3093   9                                                                              write_num100(Com_Swt_out[4],70,4,'%');
C51 COMPILER V9.01   MAIN                                                                  05/23/2019 13:18:08 PAGE 51  

3094   9                                                                              write_num100(Com_Swt_out[5],70,6,'%');
3095   9                                                                      }
3096   8                                                                              
3097   8                                                                      
3098   8                                                              }
3099   7                                                              
3100   7                                                              
3101   7                                                              
3102   7                                                              
3103   7                                                              if(left)left=0,menu_3=0;//,star=1;
3104   7                                                              increase=0;decrease=0;right=0;
3105   7                                                              
3106   7                                                      }
3107   6                                                      else
3108   6                                                      {
3109   7                                                              if(menu_2==1)//正反
3110   7                                                              {
3111   8                                                                      line_2=move_cursor(line_2,7);
3112   8                                                                      
3113   8                                                                      WW[0][0]=94,WW[0][1]=95,WW[0][2]=81,WW[0][3]=0;
3114   8                                                                      WW[1][0]=94,WW[1][1]=95,WW[1][2]=82,WW[1][3]=0;
3115   8                                                                      WW[2][0]=94,WW[2][1]=95,WW[2][2]=83,WW[2][3]=0;
3116   8                                                                      WW[3][0]=94,WW[3][1]=95,WW[3][2]=84,WW[3][3]=0;
3117   8                                                                      WW[4][0]=94,WW[4][1]=95,WW[4][2]=85,WW[4][3]=0;
3118   8                                                                      WW[5][0]=94,WW[5][1]=95,WW[5][2]=86,WW[5][3]=0;
3119   8                                                                      WW[6][0]=94,WW[6][1]=95,WW[6][2]=87,WW[6][3]=0;
3120   8                                                                      WW[7][0]=94,WW[7][1]=95,WW[7][2]=88,WW[7][3]=0;
3121   8                                                                      display_menu(line_2,7);
3122   8                                                                      
3123   8                                                                      if(line_2<3)
3124   8                                                                      {
3125   9                                                                              if(CH_inverted[0])send3(hzk[35],60,0);
3126   9                                                                              else send3(hzk[34],60,0);
3127   9                                                                              if(CH_inverted[1])send3(hzk[35],60,2);
3128   9                                                                              else send3(hzk[34],60,2);
3129   9                                                                              if(CH_inverted[2])send3(hzk[35],60,4);
3130   9                                                                              else send3(hzk[34],60,4);
3131   9                                                                              if(CH_inverted[3])send3(hzk[35],60,6);
3132   9                                                                              else send3(hzk[34],60,6);
3133   9                                                                      }
3134   8                                                                      else if(line_2==7)
3135   8                                                                      {
3136   9                                                                              if(CH_inverted[4])send3(hzk[35],60,0);
3137   9                                                                              else send3(hzk[34],60,0);
3138   9                                                                              if(CH_inverted[5])send3(hzk[35],60,2);
3139   9                                                                              else send3(hzk[34],60,2);
3140   9                                                                              if(CH_inverted[6])send3(hzk[35],60,4);
3141   9                                                                              else send3(hzk[34],60,4);
3142   9                                                                              if(CH_inverted[7])send3(hzk[35],60,6);
3143   9                                                                              else send3(hzk[34],60,6);
3144   9                                                                      }
3145   8                                                                      else
3146   8                                                                      {
3147   9                                                                              if(CH_inverted[line_2-2])send3(hzk[35],60,0);
3148   9                                                                              else send3(hzk[34],60,0);
3149   9                                                                              if(CH_inverted[line_2-1])send3(hzk[35],60,2);
3150   9                                                                              else send3(hzk[34],60,2);
3151   9                                                                              if(CH_inverted[line_2])send3(hzk[35],60,4);
3152   9                                                                              else send3(hzk[34],60,4);
3153   9                                                                              if(CH_inverted[line_2+1])send3(hzk[35],60,6);
3154   9                                                                              else send3(hzk[34],60,6);
3155   9                                                                      }
C51 COMPILER V9.01   MAIN                                                                  05/23/2019 13:18:08 PAGE 52  

3156   8                                                                              
3157   8                                                                              
3158   8                                                                      if(increase|decrease)
3159   8                                                                      {
3160   9                                                                              increase=0;decrease=0;
3161   9                                                                              if(CH_inverted[line_2])
3162   9                                                                              {
3163  10                                                                                      CH_inverted[line_2]=0;Data_change(2);
3164  10                                                                              }
3165   9                                                                              else
3166   9                                                                              {
3167  10                                                                                      CH_inverted[line_2]=1;Data_change(2);
3168  10                                                                              }
3169   9                                                                              
3170   9                                                                      }                                               
3171   8                                                                      
3172   8                                                                      
3173   8                                                              }
3174   7                                                              else if(menu_2==2)//舵量
3175   7                                                              {
3176   8                                                                      line_2=move_cursor(line_2,7);
3177   8                                                                      
3178   8                                                                      WW[0][0]=94,WW[0][1]=95,WW[0][2]=81,WW[0][3]=0;
3179   8                                                                      WW[1][0]=94,WW[1][1]=95,WW[1][2]=82,WW[1][3]=0;
3180   8                                                                      WW[2][0]=94,WW[2][1]=95,WW[2][2]=83,WW[2][3]=0;
3181   8                                                                      WW[3][0]=94,WW[3][1]=95,WW[3][2]=84,WW[3][3]=0;
3182   8                                                                      WW[4][0]=94,WW[4][1]=95,WW[4][2]=85,WW[4][3]=0;
3183   8                                                                      WW[5][0]=94,WW[5][1]=95,WW[5][2]=86,WW[5][3]=0;
3184   8                                                                      WW[6][0]=94,WW[6][1]=95,WW[6][2]=87,WW[6][3]=0;
3185   8                                                                      WW[7][0]=94,WW[7][1]=95,WW[7][2]=88,WW[7][3]=0;
3186   8                                                                      display_menu(line_2,7);
3187   8                                                                      
3188   8                                                                      if(increase)
3189   8                                                                      {
3190   9                                                                              increase=0;
3191   9                                                                              if(CH_ratio[ratio_mode][line_2]<120)
3192   9                                                                              {
3193  10                                                                                      CH_ratio[ratio_mode][line_2]++;Data_change(2);
3194  10                                                                              }
3195   9                                                                              
3196   9                                                                      }
3197   8                                                                      if(decrease)
3198   8                                                                      {
3199   9                                                                              decrease=0;
3200   9                                                                              if(CH_ratio[ratio_mode][line_2]>0)
3201   9                                                                              {
3202  10                                                                                      CH_ratio[ratio_mode][line_2]--;Data_change(2);
3203  10                                                                              }
3204   9                                                                              
3205   9                                                                      }
3206   8                                                                      
3207   8                                                                      if(line_2<3)
3208   8                                                                      {
3209   9                                                                              write_num100(CH_ratio[ratio_mode][0],70,0,'%');
3210   9                                                                              write_num100(CH_ratio[ratio_mode][1],70,2,'%');
3211   9                                                                              write_num100(CH_ratio[ratio_mode][2],70,4,'%');
3212   9                                                                              write_num100(CH_ratio[ratio_mode][3],70,6,'%');
3213   9                                                                      }
3214   8                                                                      else if(line_2==7)
3215   8                                                                      {
3216   9                                                                              write_num100(CH_ratio[ratio_mode][4],70,0,'%');
3217   9                                                                              write_num100(CH_ratio[ratio_mode][5],70,2,'%');
C51 COMPILER V9.01   MAIN                                                                  05/23/2019 13:18:08 PAGE 53  

3218   9                                                                              write_num100(CH_ratio[ratio_mode][6],70,4,'%');
3219   9                                                                              write_num100(CH_ratio[ratio_mode][7],70,6,'%');
3220   9                                                                      }
3221   8                                                                      else
3222   8                                                                      {
3223   9                                                                              write_num100(CH_ratio[ratio_mode][line_2-2],70,0,'%');
3224   9                                                                              write_num100(CH_ratio[ratio_mode][line_2-1],70,2,'%');
3225   9                                                                              write_num100(CH_ratio[ratio_mode][line_2],70,4,'%');
3226   9                                                                              write_num100(CH_ratio[ratio_mode][line_2+1],70,6,'%');
3227   9                                                                      }
3228   8                                                                      
3229   8                                                                      if(ratio_mode)
3230   8                                                                      {
3231   9                                                                              send2('+',62,0);
3232   9                                                                              send2('+',62,2);
3233   9                                                                              send2('+',62,4);
3234   9                                                                              send2('+',62,6);
3235   9                                                                      }
3236   8                                                                      else
3237   8                                                                      {
3238   9                                                                              send2('-',62,0);
3239   9                                                                              send2('-',62,2);
3240   9                                                                              send2('-',62,4);
3241   9                                                                              send2('-',62,6);
3242   9                                                                      }
3243   8                                                                      
3244   8                                                                      
3245   8                                                              }
3246   7                                                              else if(menu_2==3)//输入映射
3247   7                                                              {
3248   8                                                                      line_2=move_cursor(line_2,7);
3249   8                                                                      
3250   8                                                                      WW[0][0]=94,WW[0][1]=95,WW[0][2]=81,WW[0][3]=0;
3251   8                                                                      WW[1][0]=94,WW[1][1]=95,WW[1][2]=82,WW[1][3]=0;
3252   8                                                                      WW[2][0]=94,WW[2][1]=95,WW[2][2]=83,WW[2][3]=0;
3253   8                                                                      WW[3][0]=94,WW[3][1]=95,WW[3][2]=84,WW[3][3]=0;
3254   8                                                                      WW[4][0]=94,WW[4][1]=95,WW[4][2]=85,WW[4][3]=0;
3255   8                                                                      WW[5][0]=94,WW[5][1]=95,WW[5][2]=86,WW[5][3]=0;
3256   8                                                                      WW[6][0]=94,WW[6][1]=95,WW[6][2]=87,WW[6][3]=0;
3257   8                                                                      WW[7][0]=94,WW[7][1]=95,WW[7][2]=88,WW[7][3]=0;
3258   8                                                                      display_menu(line_2,7);
3259   8                                                                      
3260   8                                                                      send3(hzk[4],60,0);
3261   8                                                                      send3(hzk[4],60,2);
3262   8                                                                      send3(hzk[4],60,4);
3263   8                                                                      send3(hzk[4],60,6);
3264   8                                                                      
3265   8                                                                      if(increase)
3266   8                                                                      {
3267   9                                                                              increase=0;
3268   9                                                                              if(IN_mapping[line_2]<20)IN_mapping[line_2]++,Data_change(2);
3269   9                                                                      }
3270   8                                                                      if(decrease)
3271   8                                                                      {
3272   9                                                                              decrease=0;
3273   9                                                                              if(IN_mapping[line_2]>0)IN_mapping[line_2]--,Data_change(2);
3274   9                                                                      }
3275   8                                                                      
3276   8                                                                      if(line_2<3)
3277   8                                                                      {
3278   9                                                                              display_mapping(IN_mapping[0],72,0);
3279   9                                                                              display_mapping(IN_mapping[1],72,2);
C51 COMPILER V9.01   MAIN                                                                  05/23/2019 13:18:08 PAGE 54  

3280   9                                                                              display_mapping(IN_mapping[2],72,4);
3281   9                                                                              display_mapping(IN_mapping[3],72,6);
3282   9                                                                      }
3283   8                                                                      else if(line_2==7)
3284   8                                                                      {
3285   9                                                                              display_mapping(IN_mapping[4],72,0);
3286   9                                                                              display_mapping(IN_mapping[5],72,2);
3287   9                                                                              display_mapping(IN_mapping[6],72,4);
3288   9                                                                              display_mapping(IN_mapping[7],72,6);
3289   9                                                                      }
3290   8                                                                      else 
3291   8                                                                      {
3292   9                                                                              display_mapping(IN_mapping[line_2-2],72,0);
3293   9                                                                              display_mapping(IN_mapping[line_2-1],72,2);
3294   9                                                                              display_mapping(IN_mapping[line_2],72,4);
3295   9                                                                              display_mapping(IN_mapping[line_2+1],72,6);
3296   9                                                                      }
3297   8                                                                      
3298   8                                                                      
3299   8                                                                      
3300   8                                                                      
3301   8                                                              }
3302   7                                                              else if(menu_2==4)//微调
3303   7                                                              {
3304   8                                                                      line_2=move_cursor(line_2,7);
3305   8                                                                      
3306   8                                                                      WW[0][0]=94,WW[0][1]=95,WW[0][2]=81,WW[0][3]=0;
3307   8                                                                      WW[1][0]=94,WW[1][1]=95,WW[1][2]=82,WW[1][3]=0;
3308   8                                                                      WW[2][0]=94,WW[2][1]=95,WW[2][2]=83,WW[2][3]=0;
3309   8                                                                      WW[3][0]=94,WW[3][1]=95,WW[3][2]=84,WW[3][3]=0;
3310   8                                                                      WW[4][0]=94,WW[4][1]=95,WW[4][2]=85,WW[4][3]=0;
3311   8                                                                      WW[5][0]=94,WW[5][1]=95,WW[5][2]=86,WW[5][3]=0;
3312   8                                                                      WW[6][0]=94,WW[6][1]=95,WW[6][2]=87,WW[6][3]=0;
3313   8                                                                      WW[7][0]=94,WW[7][1]=95,WW[7][2]=88,WW[7][3]=0;
3314   8                                                                      display_menu(line_2,7);
3315   8                                                                      
3316   8                                                                      if(increase)
3317   8                                                                      {
3318   9                                                                              increase=0;
3319   9                                                                              if(CH_middle[line_2]<100)
3320   9                                                                              {
3321  10                                                                                      CH_middle[line_2]++;Data_change(2);
3322  10                                                                              }
3323   9                                                                              
3324   9                                                                      }
3325   8                                                                      if(decrease)
3326   8                                                                      {
3327   9                                                                              decrease=0;
3328   9                                                                              if(CH_middle[line_2]>-100)
3329   9                                                                              {
3330  10                                                                                      CH_middle[line_2]--;Data_change(2);
3331  10                                                                              }
3332   9                                                                              
3333   9                                                                      }
3334   8                                                                      
3335   8                                                                      if(line_2<3)
3336   8                                                                      {
3337   9                                                                              write_num100(CH_middle[0],70,0,'-');
3338   9                                                                              write_num100(CH_middle[1],70,2,'-');
3339   9                                                                              write_num100(CH_middle[2],70,4,'-');
3340   9                                                                              write_num100(CH_middle[3],70,6,'-');
3341   9                                                                      }
C51 COMPILER V9.01   MAIN                                                                  05/23/2019 13:18:08 PAGE 55  

3342   8                                                                      else if(line_2==7)
3343   8                                                                      {
3344   9                                                                              write_num100(CH_middle[4],70,0,'-');
3345   9                                                                              write_num100(CH_middle[5],70,2,'-');
3346   9                                                                              write_num100(CH_middle[6],70,4,'-');
3347   9                                                                              write_num100(CH_middle[7],70,6,'-');
3348   9                                                                      }
3349   8                                                                      else
3350   8                                                                      {
3351   9                                                                              write_num100(CH_middle[line_2-2],70,0,'-');
3352   9                                                                              write_num100(CH_middle[line_2-1],70,2,'-');
3353   9                                                                              write_num100(CH_middle[line_2],70,4,'-');
3354   9                                                                              write_num100(CH_middle[line_2+1],70,6,'-');
3355   9                                                                      }
3356   8                              
3357   8                                                              }
3358   7                                                              else if(menu_2==5)//混控
3359   7                                                              {
3360   8                                                                      line_2=move_cursor(line_2,2);
3361   8                                                                      
3362   8                                                                      WW[0][0]=91,WW[0][1]=79,WW[0][2]=92,WW[0][3]=0;
3363   8                                                                      WW[1][0]=93,WW[1][1]=79,WW[1][2]=92,WW[1][3]=0;
3364   8                                                                      WW[2][0]=106,WW[2][1]=107,WW[2][2]=108,WW[2][3]=109;WW[2][4]=0;
3365   8                                                                      display_menu(line_2,2);
3366   8                                                                      
3367   8                                                                      if(mixer_name==1)
3368   8                                                                      {
3369   9                                                                              word[0]=110;word[1]=111;word[2]=112;word[3]=0;write(64,4);
3370   9                                                                      }
3371   8                                                                      else if(mixer_name==2)
3372   8                                                                      {
3373   9                                                                              word[0]=113;word[1]=114;word[2]=0;write(64,4);
3374   9                                                                      }
3375   8                                                                      else if(mixer_name==3)
3376   8                                                                      {
3377   9                                                                              send2('V',64,4);send3(hzk[115],72,4);
3378   9                                                                      }
3379   8                                                                      else if(mixer_name==4)
3380   8                                                                      {
3381   9                                                                              word[0]=116;word[1]=117;word[2]=112;word[3]=0;write(64,4);
3382   9                                                                      }
3383   8                                                                      
3384   8                                                                      
3385   8                                                                      
3386   8                                                                      if(line_2<1)
3387   8                                                                      {
3388   9                                                                              
3389   9                                                                              if(increase)
3390   9                                                                              {
3391  10                                                                                      increase=0;
3392  10                                                                                      if(mixer_name==1)
3393  10                                                                                      {
3394  11                                                                                              if(mixer1_same<7)mixer1_same++,Data_change(2);
3395  11                                                                                      }
3396  10                                                                                      else if(mixer_name==2)
3397  10                                                                                      {
3398  11                                                                                              if(mixer2_same<7)mixer2_same++,Data_change(2);
3399  11                                                                                      }
3400  10                                                                                      else if(mixer_name==3)
3401  10                                                                                      {
3402  11                                                                                              if(mixer3_same<7)mixer3_same++,Data_change(2);
3403  11                                                                                      }
C51 COMPILER V9.01   MAIN                                                                  05/23/2019 13:18:08 PAGE 56  

3404  10                                                                                      else if(mixer_name==4)
3405  10                                                                                      {
3406  11                                                                                              if(mixer4_same<7)mixer4_same++,Data_change(2);
3407  11                                                                                      }
3408  10                                                                              }
3409   9                                                                              if(decrease)
3410   9                                                                              {
3411  10                                                                                      decrease=0;
3412  10                                                                                      if(mixer_name==1)
3413  10                                                                                      {
3414  11                                                                                              if(mixer1_same>0)mixer1_same--,Data_change(2);
3415  11                                                                                      }
3416  10                                                                                      else if(mixer_name==2)
3417  10                                                                                      {
3418  11                                                                                              if(mixer2_same>0)mixer2_same--,Data_change(2);
3419  11                                                                                      }
3420  10                                                                                      else if(mixer_name==3)
3421  10                                                                                      {
3422  11                                                                                              if(mixer3_same>0)mixer3_same--,Data_change(2);
3423  11                                                                                      }
3424  10                                                                                      else if(mixer_name==4)
3425  10                                                                                      {
3426  11                                                                                              if(mixer4_same>0)mixer4_same--,Data_change(2);
3427  11                                                                                      }
3428  10                                                                              }
3429   9                                                                              
3430   9                                                                      }
3431   8                                                                      else if(line_2<2)
3432   8                                                                      {
3433   9                                                                      if(increase)
3434   9                                                                              {
3435  10                                                                                      increase=0;
3436  10                                                                                      if(mixer_name==1)
3437  10                                                                                      {
3438  11                                                                                              if(mixer1_contrary<7)mixer1_contrary++,Data_change(2);
3439  11                                                                                      }
3440  10                                                                                      else if(mixer_name==2)
3441  10                                                                                      {
3442  11                                                                                              if(mixer2_contrary<7)mixer2_contrary++,Data_change(2);
3443  11                                                                                      }
3444  10                                                                                      else if(mixer_name==3)
3445  10                                                                                      {
3446  11                                                                                              if(mixer3_contrary<7)mixer3_contrary++,Data_change(2);
3447  11                                                                                      }
3448  10                                                                                      else if(mixer_name==4)
3449  10                                                                                      {
3450  11                                                                                              if(mixer4_contrary<7)mixer4_contrary++,Data_change(2);
3451  11                                                                                      }
3452  10                                                                              }
3453   9                                                                              if(decrease)
3454   9                                                                              {
3455  10                                                                                      decrease=0;
3456  10                                                                                      if(mixer_name==1)
3457  10                                                                                      {
3458  11                                                                                              if(mixer1_contrary>0)mixer1_contrary--,Data_change(2);
3459  11                                                                                      }
3460  10                                                                                      else if(mixer_name==2)
3461  10                                                                                      {
3462  11                                                                                              if(mixer2_contrary>0)mixer2_contrary--,Data_change(2);
3463  11                                                                                      }
3464  10                                                                                      else if(mixer_name==3)
3465  10                                                                                      {
C51 COMPILER V9.01   MAIN                                                                  05/23/2019 13:18:08 PAGE 57  

3466  11                                                                                              if(mixer3_contrary>0)mixer3_contrary--,Data_change(2);
3467  11                                                                                      }
3468  10                                                                                      else if(mixer_name==4)
3469  10                                                                                      {
3470  11                                                                                              if(mixer4_contrary>0)mixer4_contrary--,Data_change(2);
3471  11                                                                                      }
3472  10                                                                              }                                                                                                       
3473   9                                                                              
3474   9                                                                      }
3475   8                                                                      else if(line_2<3)
3476   8                                                                      {
3477   9                                                                      if(right)
3478   9                                                                              {
3479  10                                                                                      right=0;
3480  10                                                                                      if(mixer_name==1)
3481  10                                                                                      {
3482  11                                                                                              mixer1_same=1;mixer1_contrary=0;Data_change(2);
3483  11                                                                                      }
3484  10                                                                                      else if(mixer_name==2)
3485  10                                                                                      {
3486  11                                                                                              mixer2_same=2;mixer2_contrary=3;Data_change(2);
3487  11                                                                                      }
3488  10                                                                                      else if(mixer_name==3)
3489  10                                                                                      {
3490  11                                                                                              mixer3_same=0;mixer3_contrary=3;Data_change(2);
3491  11                                                                                      }
3492  10                                                                                      else if(mixer_name==4)
3493  10                                                                                      {
3494  11                                                                                              mixer4_same=5;mixer4_contrary=0;Data_change(2);
3495  11                                                                                      }
3496  10                                                                              }
3497   9                                                                      }       
3498   8                                                                              
3499   8                                                                                      
3500   8                                                                      
3501   8                                                                      if(mixer_name==1)
3502   8                                                                      {
3503   9                                                                              send2(mixer1_same+49,60,0);
3504   9                                                                              send2(mixer1_contrary+49,60,2);
3505   9                                                                      }
3506   8                                                                      else if(mixer_name==2)
3507   8                                                                      {
3508   9                                                                              send2(mixer2_same+49,60,0);
3509   9                                                                              send2(mixer2_contrary+49,60,2);
3510   9                                                                      }
3511   8                                                                      else if(mixer_name==3)
3512   8                                                                      {
3513   9                                                                              send2(mixer3_same+49,60,0);
3514   9                                                                              send2(mixer3_contrary+49,60,2);
3515   9                                                                      }
3516   8                                                                      else if(mixer_name==4)
3517   8                                                                      {
3518   9                                                                              send2(mixer4_same+49,60,0);
3519   9                                                                              send2(mixer4_contrary+49,60,2);
3520   9                                                                      }
3521   8                                                                      
3522   8                                                              }
3523   7                                                              else if(menu_2==6)//失控舵量
3524   7                                                              {
3525   8                                                                      line_2=move_cursor(line_2,7);
3526   8                                                                      
3527   8                                                                      WW[0][0]=29,WW[0][1]=30,WW[0][2]=81,WW[0][3]=0;
C51 COMPILER V9.01   MAIN                                                                  05/23/2019 13:18:08 PAGE 58  

3528   8                                                                      WW[1][0]=29,WW[1][1]=30,WW[1][2]=82,WW[1][3]=0;
3529   8                                                                      WW[2][0]=29,WW[2][1]=30,WW[2][2]=83,WW[2][3]=0;
3530   8                                                                      WW[3][0]=29,WW[3][1]=30,WW[3][2]=84,WW[3][3]=0;
3531   8                                                                      WW[4][0]=29,WW[4][1]=30,WW[4][2]=85,WW[4][3]=0;
3532   8                                                                      WW[5][0]=29,WW[5][1]=30,WW[5][2]=86,WW[5][3]=0;
3533   8                                                                      WW[6][0]=29,WW[6][1]=30,WW[6][2]=87,WW[6][3]=0;
3534   8                                                                      WW[7][0]=29,WW[7][1]=30,WW[7][2]=88,WW[7][3]=0;
3535   8                                                                      display_menu(line_2,7);
3536   8                                                                      
3537   8                                                                      if(increase)
3538   8                                                                      {
3539   9                                                                              increase=0;
3540   9                                                                              if(out_control[line_2]<120)
3541   9                                                                              {
3542  10                                                                                      out_control[line_2]++;Data_change(2);config_change=1;
3543  10                                                                                      
3544  10                                                                              }
3545   9                                                                              
3546   9                                                                      }
3547   8                                                                      if(decrease)
3548   8                                                                      {
3549   9                                                                              decrease=0;
3550   9                                                                              if(out_control[line_2]>-120)
3551   9                                                                              {
3552  10                                                                                      out_control[line_2]--;Data_change(2);config_change=1;
3553  10                                                                                      
3554  10                                                                              }
3555   9                                                                              
3556   9                                                                      }
3557   8                                                                      
3558   8                                                                      if(config_change)
3559   8                                                                      {
3560   9                                                                              config_change=0;
3561   9                                                                              out_control_data[0]=(int)out_control[0]*4.25+511;
3562   9                                                                              out_control_data[1]=(int)out_control[1]*4.25+511;
3563   9                                                                              out_control_data[2]=(int)out_control[2]*4.25+511;
